:020000040800F2
:1000000018D30020950300083D360008F33500089A
:1000100039360008C12B0008B73E00080000000078
:10002000000000000000000000000000D5020008F1
:10003000D13300080000000031030008CD3900086A
:10004000AF030008AF030008AF030008AF030008C8
:10005000AF030008AF030008AF030008AF030008B8
:10006000AF030008AF030008AF030008AF030008A8
:10007000AF030008AF030008AF030008AF03000898
:10008000AF030008AF030008AF030008AF03000888
:10009000AF030008AF030008AF030008AF03000878
:1000A000AF030008AF030008AF030008AF03000868
:1000B000453A0008AF030008AF030008AF0300088B
:1000C000AF030008AF030008AF030008AF03000848
:1000D000AF030008993C0008AF030008AF03000815
:1000E000AF030008AF030008AF030008AF03000828
:1000F000AF030008AF030008AF030008AF03000818
:10010000AF030008AF030008AD3A0008AF030008D2
:10011000AF030008AF030008AF030008AF030008F7
:1001200051300008AF030008AF030008AF03000818
:10013000AF030008AF030008AF030008AF030008D7
:10014000AF030008AF030008AF030008AF030008C7
:10015000AF030008AF030008AF030008AF030008B7
:10016000AF030008AF030008AF030008AF030008A7
:10017000AF030008AF030008AF030008AF03000897
:10018000AF030008AF03000800F002F800F092F897
:100190000AA090E8000C82448344AAF10107DA45E2
:1001A00001D100F087F8AFF2090EBAE80F0013F0A2
:1001B000010F18BFFB1A43F001031847E0F70000D6
:1001C00000F80000103A24BF78C878C1FAD8520766
:1001D00024BF30C830C144BF04680C6070470000C1
:1001E0000023002400250026103A28BF78C1FBD840
:1001F000520728BF30C148BF0B6070476E2901F01D
:10020000B880702901F02B82662906F08186652965
:1002100006F07E86672906F07B86612906F07A86DD
:1002200003681B0A28BF41F08001692900F0548649
:10023000642900F05186752900F04E866F2901F07F
:10024000B881782901F0F781E92901F05381E42987
:1002500001F05081F52901F04D81EF2901F0B581C0
:10026000F82901F0F6810368DB0928BF41F080011D
:10027000632901F0C280732901F0C780E32901F0EE
:100280002986F32901F02E86002070471FB506F05D
:100290003AFE01F07DFE04000020002106F03EFB46
:1002A000401C60600020002106F022FBE0601FBDC2
:1002B00010B510BD01F03EFE1146FFF7E7FF03F059
:1002C000B7FE01F01BFF03B4FFF7F2FF03BC03F01E
:1002D00013FE00002C4B19680868B0E8F04F80F35B
:1002E0000988BFF36F8F4FF0000080F311887047CB
:1002F0000000000008480068006880F308884FF09C
:10030000000080F3148862B661B6BFF34F8FBFF36D
:100310006F8F00DF00BF00BF08ED00E0DFF80C00CA
:10032000016841F470010160704700BF88ED00E092
:10033000EFF30980BFF36F8F134B1A681EF0100F95
:1003400008BF20ED108A20E9F04F106009B44FF08B
:10035000500080F31188BFF34F8FBFF36F8F05F00C
:1003600075FA4FF0000080F3118809BC196808681D
:10037000B0E8F04F1EF0100F08BFB0EC108A80F309
:100380000988BFF36F8F704748000020EFF30580A6
:10039000704700000948804709480047FEE7FEE72C
:1003A000FEE7FEE7FEE7FEE7FEE7FEE7FEE7FEE725
:1003B00004480549054A064B70470000DD3900082E
:1003C0008901000818CD002018D3002018CF002084
:1003D00018CF00209FED3A0A5FEA920C53D000BF7D
:1003E000F0EC010A0B1DB0EC011A60EEA00A41EE20
:1003F000010AF5EEC00AF1EE10FAC6BFB1EEE01A3E
:1004000081ED001A81ED000AF0EC010A191DB0EC33
:10041000011A60EEA00A41EE010AF5EEC00AF1EE03
:1004200010FAC6BFB1EEE01A83ED001A83ED000AA0
:10043000F0EC010A0B1DB0EC011A60EEA00A41EECF
:10044000010AF5EEC00AF1EE10FAC6BFB1EEE01AED
:1004500081ED001A81ED000AF0EC010A191DB0ECE3
:10046000011A60EEA00A41EE010AF5EEC00AF1EEB3
:1004700010FAC6BFB1EEE01A83ED001A83ED000A50
:10048000BCF1010CACD112F0030208BF704700BFF1
:10049000F0EC010A0B46B0EC011A091D60EEA00A4F
:1004A00041EE010AF5EEC00AF1EE10FAC6BFB1EE58
:1004B000E01A83ED001A83ED000A521EE8D170475E
:1004C000000000002DE9F04F8D082DED048B82B067
:1004D0000026AC463446019506EB0C0909EB0C0AE4
:1004E0000AEB0C0800EBC60700EBC90900EBCA0ACF
:1004F00000EBC80897ED003AD9ED003ADAED006A52
:1005000098ED006A97ED010ADAED014A33EE265ABA
:1005100073EE860A99ED014AD8ED015A30EE241A9D
:100520004FEA440B02EBCB0E70EE644A74EE251AD0
:1005300035EE200A9EED002ADEED012A87ED000A45
:1005400031EE210A73EEC63A34EE656A87ED010A90
:1005500035EE600A33EE663A71EE610A02EBC407CB
:1005600074EEE35A33EE064A97ED005A73EEA41A7E
:10057000D7ED014A33EE461A24EE056A0BEB040769
:1005800025EE855A02EBC70760EE026A65EEA45AB3
:1005900024EE244A97ED003AD7ED013A60EEA24AE4
:1005A00020EE822A21EE037A20EE220A61EEA30ACF
:1005B00021EE833A61EE231A76EEA42A32EE400A47
:1005C00036EE251A75EE443AC9ED002A77EE200A78
:1005D00089ED010A73EE611A8AED001ACAED013A3B
:1005E000C8ED000A761CC8ED011A1C446D1E7FF48C
:1005F00073AF4FF6FF7404EA830B019B0093042B47
:100600007DD966464FEA9C0C4FF00008C146ACF11C
:10061000010E00BF4FEA480303EB080402EBC303DB
:1006200002EBC80593ED003AD3ED014A02EBC40397
:1006300095ED005AD5ED015A93ED006A93ED014A0C
:10064000D8444B4603EB0C0404EB0C0707EB0C0AF5
:1006500000EBC30500EBC70700EBC40400EBCA0ABC
:10066000D5ED003A97ED007AD4ED008A9AED008A34
:1006700095ED010AD4ED010AD7ED017ADAED011A00
:1006800033EEC72A70EE676A70EEE12A33EE877A9E
:1006900078EE883A30EE270A38EEC81A70EEA11AC2
:1006A00072EE227A32EE622A77EE232A70EE618AA7
:1006B00036EEC18A30EE210A77EE630A31EE261A51
:1006C000C5ED002A85ED010A28EE050A67EE856A68
:1006D00028EE258A20EE837A20EEA49A68EE831A0B
:1006E00062EE062A61EE063A62EE040A67EEA57A29
:1006F00068EEA48A21EE041A36EE882A00E027E08C
:1007000077EE286A71EEC91A30EE670AC4ED006A06
:1007100032EE811AC4ED011A73EEE00A87ED002A69
:1007200087ED010A8AED001A3344CAED010A8B42B3
:1007300088D309F10109F1457FF66CAF4FF6FF73DD
:1007400003EA8B0B009B9B080093042B3FF659AFE9
:10075000DDF8041090ED000AD0ED042A90ED025A65
:1007600090ED031AD0ED064A90ED073A30EE222ABA
:10077000D0ED011AD0ED050A75EE243A31EE034AA8
:1007800030EE620A71EEA02A31EE431A32EE233ABD
:1007900071EEE00A75EE641A72EE844A32EE632A54
:1007A00072EEC43A80ED003A70EE012AC0ED014AC3
:1007B00030EEE14A80ED022A30EE410AC0ED033A04
:1007C00071EEA00AC0ED042A80ED054A80ED060A0C
:1007D000C0ED070A2030491EBCD102B0BDEC048B2D
:1007E000BDE8F08F2DE9F04F4FEA910A2DED048B13
:1007F00082B00024D446A046CDF804A004EB0C053A
:1008000005EB0C0606EB0C0900EBC40700EBC60673
:1008100000EBC50500EBC909D7ED011AD6ED012A99
:1008200095ED006AD9ED006AD7ED005A96ED007A91
:10083000D5ED010A99ED011A36EE262A71EEA23A9B
:1008400035EE873A71EEE21A30EE815A70EEC12A27
:100850004FEA480B02EBCB0E73EE020A9EED004A04
:10086000DEED014AC7ED000A73EE850A36EE666AD0
:1008700075EEC75AC7ED010A33EE422A02EBC807EC
:1008800031EE861A33EEC53A71EEC61A97ED006A5C
:1008900097ED015A75EEE20A0BEB080702EBC7076A
:1008A00075EEA22AD7ED005AD7ED013A60EE866ABE
:1008B00022EE047A62EEA57A23EE044A21EE066A5D
:1008C00061EEA55A60EE850A23EE243A22EE242A30
:1008D00021EE051A61EEA31A62EEA32A76EE203A03
:1008E00037EE433A74EE020A36EEC11A85ED003A4D
:1008F00077EEE11AC5ED010A35EEA22A86ED001A5F
:10090000C6ED013AC9ED001A641C89ED012A98442C
:10091000BAF1010A7FF472AF4FF6FF7404EA830B59
:10092000019B0093042B7CD966464FEA9C0C4FF048
:100930000008C146ACF1010E4FEA480303EB08047E
:1009400002EBC30302EBC805D3ED003A93ED017A45
:1009500002EBC403D5ED006AD5ED015AD3ED004A90
:1009600093ED013AD8444B4603EB0C0404EB0C071F
:1009700007EB0C0A00EBC30500EBC70700EBC40450
:1009800000EBCA0A95ED012A97ED018A95ED001A50
:10099000D4ED008AD4ED017A97ED009ADAED001AD1
:1009A000DAED010A32EE485A71EE492A38EEE14A90
:1009B00032EE082A37EEA08A37EEE06A78EEA11A06
:1009C00031EE091A75EE048A72EEC67A72EE862A44
:1009D00071EE610A31EE211A35EE444A32EE489A40
:1009E00085ED001A32EE081A28EEA66A27EEA65AFE
:1009F00068EEA58A85ED011A20EEA31A69EE231A86
:100A000022EEA42A24EE248A67EEA57A29EE079A1C
:100A100060EE870A24EE034A62EE832A35EE685AB6
:100A200000E027E036EE276A71EE497A31EEA01A2F
:100A300072EE440AC4ED007A84ED011A78EE221AAF
:100A400087ED005A87ED016ACAED000A3344CAED0A
:100A5000011A8B4288D309F10109F1457FF66CAF89
:100A60004FF6FF7303EA8B0B009B9B080093042B4C
:100A70003FF65AAFDDF8041090ED003AD0ED044A8D
:100A8000D0ED032A90ED071A90ED024AD0ED061A38
:100A9000D0ED013AD0ED050A33EE242A72EE815AE8
:100AA00033EE643A34EE215A73EEA04A73EEE03A24
:100AB00032EEC11A74EE610A32EE454A72EE052A30
:100AC00074EEA51A34EEE55A73EE414A33EEA02ACD
:100AD00033EE011A33EEE03A62EE805A61EE800A9C
:100AE00064EE003A65EE002AC0ED005A64EE801A0A
:100AF000C0ED010A22EE002AC0ED023A21EE004AC2
:100B0000C0ED032A23EE001AC0ED041A80ED052A79
:100B100080ED064A80ED071A2030491EACD102B0A4
:100B2000BDEC048BBDE8F08F70B504460D468078AF
:100B30002188A389626801280ED02846FFF7C2FCED
:100B4000E078012818BF70BDE28921882846A36893
:100B5000BDE8704000F066B894ED040A2846FFF73F
:100B600041FEEDE710B40180234C446082704FF0E9
:100B7000000CC370B1F5807F20D004DC10292FD089
:100B8000402906D122E0B1F5806F0FD0B1F5805F2A
:100B900004D04FF0FF3C10BC6046704701218181BA
:100BA000C18116499FED160A816016E004218181FA
:100BB000C18114499FED140A81600EE010218181EA
:100BC000C18112499FED120A816006E040218181B6
:100BD000C18110499FED100A816080ED040ADAE7B7
:100BE0004FF480718181C1810C499FED0D0A8160B4
:100BF00080ED040ACFE700009C7800089C70000894
:100C000000008039A27000080000803ABA70000825
:100C10000000803B1A7100080000803C9A720008B6
:100C20000000803D2DE9F0014E0801244FF0000C3A
:100C300004EB51076146A6F102082CE061452AD277
:100C400000EBCC0500EBC104D5ED000A94ED000AE1
:100C5000C4ED000A85ED000AD5ED010A94ED010A04
:100C6000C4ED010A85ED010ACC1900EBC4050CEBBB
:100C7000070400EBC40495ED000AD4ED000AC5EDAD
:100C8000000A84ED000AD4ED010A95ED010AC5EDD4
:100C9000010A84ED010A00EBC104B44400EBCC0C62
:100CA00094ED020ADCED000A891CC4ED020A8CED09
:100CB000000ADCED010A94ED030AC4ED030A8CED91
:100CC000010AB3F800C089B203EB42034145B5D92C
:100CD000BDE8F00170472DE9F00701254C0805EB50
:100CE00051064FF0000C651E6146002D88BFA846D6
:100CF0002ED8BDE8F0077047614529D250F8315031
:100D000050F83C7040F8317040F83C5000EBC1079F
:100D100000EBCC097D68D9F804A0C7F804A0C9F895
:100D200004508D190CEB060750F8359050F837A099
:100D300040F835A040F8379000EBC50500EBC70739
:100D4000D5F80490D7F804A0C5F804A0C7F804901B
:100D500000EBC105A444AF6850F83C90C5F808907A
:100D600040F83C7000EBCC0CEF68DCF80490C5F860
:100D70000C90CCF80470B3F800C0891C03EB42035C
:100D80004145B9D3BDE8F00770472DE9F00F0124C4
:100D90004D084FF0000C04EB5107012D9CBFBDE83E
:100DA000F00F7047014600EB870400264FEA550814
:100DB00015E000BFBCEB460F11D950F82CA0D1F8BC
:100DC0000090C1F800A040F82C900CEB0709D4F873
:100DD00000A050F829B0C4F800B040F829A0AC44F5
:100DE000D1F8049050F82CA0C1F804A040F82C9041
:100DF000B3F800C008310834761C03EB4203B8F1A5
:100E00000108D7D1BDE8F00F704770477CB51D468B
:100E100016460C00009001D02044401E074B7B4436
:100E20002A4669460190304600F0BDFA05461CB1DD
:100E30000020694600F0CAFA28467CBDB5050000CE
:100E40000FB4044910B503AA029800F0E3FA10BCED
:100E50005DF814FB3C0000200FB41CB5084B06AA3B
:100E60007B4469460090059800F09DFA04460020F6
:100E7000694600F0ABFA20461CBC5DF814FB00008C
:100E80006905000070B50C460546012A05D0287892
:100E9000800600D5EA69002302E0012305E05B1C1F
:100EA000934202D2E05C0028F9D1A869E618C01A82
:100EB000A861286A18442862284600F0C8F904E0AE
:100EC000D5E9012114F8010B9047B442F8D3284624
:100ED00000F0D3F970BD00002DE9F0410646002472
:100EE00010687529314616A510D000F0D7F90028F2
:100EF00002DA404213A507E031688A0701D512A53E
:100F000002E0490704D511A5012401E000F0CFF962
:100F100000210A2206F1240709E0B0FBF2FCB0FB35
:100F2000F2F302FB1C00303078541846491C0028AC
:100F3000F3D123462A463046BDE8F04100F0C0B95F
:100F4000000000002D0000002B0000002000000029
:100F50002DE9F05F894604464FF0000ADFF874B1CE
:100F6000FB44C0F820A02046E1688847002874D0E0
:100F7000252806D0D4E901219047206A401C206230
:100F8000F1E700265F462046E168884720280546AD
:100F900007DB312D05D2781910F8200C08B1064373
:100FA000F1E7B00701D526F00406C4F81CA000271D
:100FB000C4F818A02A2D09D0284602F096FF38B3AD
:100FC00004EB8708303DC8F8185019E059F8041BA5
:100FD000204604EB87029161E1688847012F0546AE
:100FE00018D1E069002820DA26F020061DE0D8F8A4
:100FF000180000EB800005EB40003038C8F81800FE
:101000002046E1688847054602F06FFF0028EED1D0
:10101000012F0AD02E2D08D12046E16888477F1C79
:101020000546022F46F02006C4DBA069002803DA3B
:10103000404246F00106A061F00701D026F01006FC
:101040006C2D0BD0682D09D04C2D39D06A2D35D0A0
:10105000742D35D07A2D33D016E038E0E1682F4674
:1010600020468847B842054609D16C2F26D04FF458
:101070008060E168064320468847054604E06C2FFF
:101080001AD04FF4807006430DB3A5F14100192822
:1010900002D8203546F400664A4629462046266096
:1010A0004E46FFF7ABF880B101280BD0F61D26F0B5
:1010B000070000F1080956E74020E4E78020D8E760
:1010C0000020D6E706F104094DE7284652E7206ADA
:1010D000BDE8F09F38E9000040EA0103024630B560
:1010E0009B0710D14FF0013400E008C208C91D1B56
:1010F0009D4315EAC41FF8D013F0FF0102F8011B4D
:101100000DD01B0AF8E711F8013B002B02F8013B58
:1011100005D011F8013B002B02F8013BF3D130BDA3
:1011200010B5431C02E010F8011B71B18107FAD120
:101130004FF0013202C88C1A8C4314EAC211F9D064
:10114000C01A0A0603D0C01E10BDC01A10BD0A0482
:1011500001D0801E10BD0902FCD0401E10BD032A24
:1011600040F2308010F0030C00F0158011F8013BC4
:10117000BCF1020F624498BF11F801CB00F8013BAB
:1011800038BF11F8013BA2F1040298BF00F801CB6F
:1011900038BF00F8013B11F0030300F06B82083AFE
:1011A000C0F0088051F8043B083A51F804CBA0E89D
:1011B0000810F5E7121D5CBF51F8043B40F8043BF2
:1011C000AFF30080D20724BF11F8013B11F801CB27
:1011D00048BF11F8012B24BF00F8013B00F801CBF8
:1011E00048BF00F8012B704702F0FF0343EA0322D7
:1011F00042EA024200F072BA4FF0000200B5134614
:1012000094469646203922BFA0E80C50A0E80C5026
:10121000B1F12001BFF4F7AF090728BFA0E80C50D7
:1012200048BF0CC05DF804EB890028BF40F8042BD0
:1012300008BF704748BF20F8022B11F0804F18BF3D
:1012400000F8012B7047704770477047704770B5C2
:10125000044685690068C10601D5302600E02026D5
:10126000C00707D070BDD4E9012130469047206AFD
:10127000401C20626D1EF6D570BD70B504468569B0
:101280000078C00707D170BDD4E901212020904724
:10129000206A401C20626D1EF6D570BD09684A05A3
:1012A00001D540B27047C905FCD500B27047096846
:1012B0004A0501D5C0B27047C905FCD580B2704758
:1012C0002DE9F0470D4699469246044600F1240860
:1012D0000168880604D5E06921F01001216000E072
:1012E0000120A84201DD471B00E00027A1697A190F
:1012F00002EB0900081AA0612078C00602D420463B
:10130000FFF7A5FF002608E0D4E901211AF806003E
:101310009047206A401C761C20624E45F4DB207802
:10132000C0060AD52046FFF792FF06E0D4E9012166
:1013300030209047206A401C2062381EA7F1010728
:10134000F4DC07E0D4E9012118F805009047206A91
:10135000401C2062281EA5F10105F3DC2046FFF7A2
:101360008CFF2078000602D50220BDE8F08701201E
:10137000FBE711680268006A530501D508700AE0AE
:10138000D30501D5088006E0130603D5C217C1E9CD
:10139000000200E0086001207047000001694A1C5B
:1013A00002610878704700B58FB0CDE901310021A6
:1013B000059105497944CDE9031011466846FFF7C8
:1013C000C7FD0FB000BD0000E5FFFFFF0A6802F88F
:1013D000010B0A607047D1E900239A4202D2531CE4
:1013E0000B601070704710B5436913B1AFF3008004
:1013F00001E0FFF747FD012010BD127800F1240144
:101400000A7000224A700122EDE711684FF0FF32A6
:10141000E9E70000074B70B50D467B44FFF7C3FFBB
:101420000446284600F062FD10B14FF0FF3070BD59
:10143000204670BDC72B00002DE9FF5F15468A4688
:101440000446DFF8AC80F8440027D8E900103E4697
:10145000CDE9001010E03AF816106A4602A800F034
:1014600049FD411C07D02178890603D5E269391866
:1014700091420DD80744761C2078800602D5E06999
:10148000B84205DDAE42E6DB3AF816000028E2D1AC
:10149000A069C01BA0612046FFF7D9FED8E9001063
:1014A000CDE90010002017E03AF818106A4602A8AB
:1014B00000F020FDB0F1FF3F81460BD000250DF17B
:1014C000080B05E0D4E901211BF8050090476D1CCD
:1014D0004D45F7D308F10100B0428046E4DB206AB5
:1014E000384420622046FFF7C8FEBDE8FF9F000099
:1014F00066E400002DE9F0418046D21D22F007028B
:101500000025D2E90002F52915A614D0011E72F1BA
:10151000000106DA0023D0EB030063EB020211A600
:1015200008E0D8F800108B0701D50FA602E04907A4
:1015300001D50EA601251146002408F1240704E078
:1015400000F0ECF830323A55641C50EA0102F7D151
:101550002B46324621464046BDE8F041FFF7B0BE7B
:10156000000000002D0000002B0000002000000003
:1015700030B4002100F1240408E002F00705D2088D
:10158000303542EA4372DB086554491C52EA0305D0
:10159000F3D10468002310A2250707D5A40600D4C0
:1015A00021B1C46901230DA2641EC46130BCFFF7E0
:1015B00087BE10B5044621461068FFF778FE024644
:1015C0002046BDE810400023D2E7D21D22F00701DB
:1015D000D1E90023CCE7000000000000300000004B
:1015E000F0B40D460188090502D5214C7C4402E087
:1015F0001F4C7C440E34002100F1240608E002F068
:101600000F071209E75D42EA03721B097754491C70
:1016100052EA0307F3D102780023120704D5702D94
:1016200006D009B1022311342246F0BCFFF748BEB0
:1016300001231034F8E770B504460D4621461068C2
:10164000FFF735FE024629462046BDE870400023DC
:10165000C6E7D21D22F00703D3E90023C0E70368E1
:10166000126843F0200303600823C3610023B7E737
:10167000C8E2000010B5203AC0F00B80B1E8185065
:10168000203AA0E81850B1E81850A0E81850BFF46C
:10169000F5AF5FEA027C24BFB1E81850A0E818500B
:1016A00044BF18C918C0BDE810405FEA827C24BF5F
:1016B00051F8043B40F8043B08BF7047D20728BFED
:1016C00031F8023B48BF11F8012B28BF20F8023B3C
:1016D00048BF00F8012B70474FF000020429C0F00A
:1016E000128010F0030C3FF489ADCCF1040CBCF176
:1016F000020F18BF00F8012BA8BF20F8022BA1EBA6
:101700000C01FFF77BBD5FEAC17C24BF00F8012B11
:1017100000F8012B48BF00F8012B704730B5B0F13D
:101720000A024FEA900E71F100034EEA817EB0EB9F
:101730000E0061EB91014FEA101E4EEA017E10EBA4
:101740000E0041EB11114FEA102E4EEA016E10EB24
:101750000E0041EB11214FEA104E4EEA014E10EB04
:101760000E0041EB1141401841F100014FEAD00059
:1017700040EA41704FEAD10110EB80054FEA810445
:1017800044EA907444EB01046D1944EB0404521BC9
:10179000A3414FF0000348BF0A3200D530BD401CC2
:1017A00041F1000130BD70472DE9FF4F0C461E4648
:1017B0004FF0FF378BB0D2E90001DDF860800A906E
:1017C0008A46C1F30A5505B93D46002108464FF047
:1017D0000000BAF1000F00F4400005DA00EB8000D1
:1017E0004FF4400101EA50004FEA9059B9F1010F5E
:1017F00000DDB9460A9850EA4A000ED044F610506F
:10180000A5F2FF3545432F14B8F1000F1ED07542E5
:10181000291E1EDDC9F100021CE0B8F1010F4FF0D6
:10182000000001D0302103E0F24305E02154401CC8
:10183000B042FBDB30460022002121540B99C1F855
:101840000880C1E900200FB0BDE8F08FBD1B6D1C02
:10185000DEE74A4600DA694206A800F0DDFB06AB87
:1018600093E8070003AB83E8070050460A9900F0AD
:1018700093FC8DE80700A0F500501F3800900398F6
:10188000002D0ADD42F21F014A460844002303A945
:101890000390684600F0FCFE09E0A0F500504A46BF
:1018A0001F38002303A90390684600F006FF8DE867
:1018B00007000004000C03D04FF0FF30410800E0A7
:1018C0001046B8F1000F03D00022009215461EE02A
:1018D000751E05D4FFF722FF303262556D1EF9D513
:1018E000B3460122084302D000227F1C04E0207886
:1018F000302801D100227F1E002A099784D01DE0E4
:10190000112D07DAFFF70AFF303262556D1C50EADD
:101910000102F5D1084302D00098C8B10EE00021C1
:10192000681E05E0235C625C63542254401E491C1F
:101930008142F7DBAB46A81B401E0990002004F84B
:101940000B000B98099AC0F80880C0E9002B7AE7D1
:1019500011264FF0000857E72DE9F04F884604465E
:10196000D21D22F0070191B0D1E90001CDE90A01B1
:1019700002F0A3FA02460B98C00F01D02D2007E019
:101980002068810701D52B2002E0202101EAC00058
:10199000032A099001D0072A05DB03464146204669
:1019A00000F0FAFA0BE12078800601D5E06900E04A
:1019B0000620B8F1650F814606D0B8F1660F18D041
:1019C000B8F1670F70D131E00020B9F1110F00902C
:1019D00001DB112301E009F101030AAA01A90CA806
:1019E000FFF7E2FEDDE90C70002609F101058346F0
:1019F00047E001204B4600904FF000470AAA01A99A
:101A00000CA8FFF7D1FEDDE90DB00C995D4600266C
:101A100010B909F101000D18B9EB050003D4C0F1AC
:101A2000FF3609F10105A5EB09002BE0B9F1010F23
:101A300001DA4FF001090020B9F1110F009048467A
:101A400001DD112300E003460AAA01A90CA8FFF753
:101A5000ABFEDDE90C704D4600268346207800077A
:101A60000AD4AB4500DA5D4601A8012D04DD411919
:101A700011F8011C302907D04F4502DA17F1040F85
:101A800004DA012082460FE06D1EEEE7002F02DC33
:101A9000ED1B3E4403E0781CA84200DD7D1CB81B12
:101AA00000F1010A4FF000472078000703D4AA454F
:101AB00001DB4FF0FF3A0021B7F1004F0DF1430871
:101AC0008DF8431024D002202B23002F01DA7F420F
:101AD0002D230A21021EA0F1010000DC5FB197FB5B
:101AE000F1FC97FBF1F201FB1C7C17460CF1300C6A
:101AF00008F801CDEEE7A8F101000370218809057F
:101B000001D5452100E06521A0F1010800F8011C84
:101B100009980FA9A1EB0807FF1D00B10120411989
:101B200001EBEA70A1693844081A401EA0612078D0
:101B3000C00602D42046FFF78AFB099828B1D4E9F1
:101B400001219047206A401C20622078C00622D5DF
:101B50002046FFF77CFB1EE0002E04DBB34502DDD0
:101B600001A8805D00E03020D4E901219047206A7F
:101B7000401C2062761CAAF101005FEA000A0AD12B
:101B800000F006FAC0680168405CD4E90121904782
:101B9000206A401C2062281EA5F10105DCDC07E05C
:101BA000D4E9012118F8010B9047206A401C2062FB
:101BB000381EA7F10107F3DC2046FFF75EFB032088
:101BC00011B041E62DE9F04F04460D46D21D22F03A
:101BD000070089B0D0E900974846394602F06DF910
:101BE0000246F80F01D02D2307E02068810701D5B8
:101BF0002B2302E0202101EAC0038DF820300BB135
:101C0000012000E00020032A824601D0072A04DBDD
:101C10002946204600F0C0F93FE12078800601D433
:101C20000D2500E0E569C7F30A560D2D49DA0021BC
:101C30004FEA175B08464FF00000002F00F4400009
:101C400007DA00EB80004FF4400100EBD07001EAAE
:101C500060008115012901DD4FF0FF3100224FEABC
:101C6000850CBCF1180F06D31346ACF118004FF0E9
:101C70008052C24003E04FF4801323FA0CF30CF1BE
:101C80000C0CBCF1200F04D3ACF1200C09FA0CF0C1
:101C900001E007FA0CF000294FF0004801DD18B907
:101CA0000FE00ED140450CD319EB02095F4121B979
:101CB000404502D19F4329EA0209BBEB175F00D0E0
:101CC000761C2088000502D57B48784402E07A48DB
:101CD0007844193808AA302302F80A30037C0AF144
:101CE0000101002E0AF1020A53546A4602DC4FF049
:101CF000300101E04FF031014FF001088DF8001084
:101D000002D0A6F2FF3603E059EA470100D06B4E3D
:101D1000002D02DC2178090704D54FF002082E219E
:101D20008DF80110C44600210BE0C7F303433F01C7
:101D3000C35C491C6D1E02F80830052908F1010832
:101D400001DA002DF1DC00210CE000EB1973491CD5
:101D50001B786D1E082902F808304FEA091908F1AE
:101D6000010801DA002DF0DC21688B0602D516E0AF
:101D7000A8F10108E04505DD02EB080313F8013C7A
:101D8000302BF5D0B8F1000F09DD02EB080313F892
:101D9000013C2E2B03D1090701D4A8F10108002D25
:101DA00005DD3E2102F808106D1E08F10108407C97
:101DB000002E02F8080008F1010804DA2D2076420E
:101DC00002F8080002E02B2002F808000A214FF474
:101DD0007A70864208F101080BDB96FBF0F3303392
:101DE00002F8083096FBF0F308F1010800FB1366D7
:101DF00001E0642E0CDB642096FBF0F3303302F834
:101E0000083096FBF0F308F1010800FB136601E0CF
:101E10000A2E06DB96FBF1F0303002F8080008F1DC
:101E2000010896FBF1F001FB1060303002F8080069
:101E3000A16908F1010808EB050202EB0A00081A83
:101E4000A0612078C00602D42046FFF700FA216A7C
:101E500008AE01EB0A00206204E0D4E9012116F883
:101E6000010B9047BAF1010AF7D22078C00602D5DB
:101E70002046FFF7ECF96E4609E016F8010B3E2804
:101E80000FD0D4E901219047206A401C2062B8F1AC
:101E90000108F2D22046FFF7F0F909B00320BDE8AF
:101EA000F08F206A2844206203E0D4E90121302029
:101EB00090476D1EEBD3F8E725DC000002FCFFFF26
:101EC00010B5436913B1AFF3008001E0FFF7B4FA36
:101ED000012010BD128800F1240182840022C284F6
:101EE0000122EDE711684FF0FF32E9E7007B00F0D7
:101EF0008000704770B516460C46054600F040F865
:101F0000036893F80101012806D0FF2C0FD8185D53
:101F100068B101202C7070BDD3F80701324621460C
:101F200003F2071303442846BDE8704018474FF0FA
:101F3000FF3070BD754600F0EBF8AE46050069460F
:101F4000534620F00700854618B020B5FEF730FA5A
:101F5000BDE820404FF000064FF000074FF00008AA
:101F60004FF0000B21F00701AC46ACE8C009ACE82B
:101F7000C009ACE8C009ACE8C0098D467047000054
:101F800010B500F005F8001D10BD00BF914900001C
:101F900000487047D8CC00202DE9F0411F46044688
:101FA00003260168072A01F4006004DB08B116A5C6
:101FB00005E016A503E008B115A500E015A521F080
:101FC00010002060A069C01EA0610FB1401EA0617A
:101FD0002046FFF73CF94FB1D4E90121384690473C
:101FE000206A401C2062C01C206206E0206AFAE7DA
:101FF000D4E9012115F8010B9047761EF8D220464E
:10200000FFF73BF9BDE8F0814E414E006E616E0076
:10201000494E4600696E66002DE9F0478146164636
:102020008AB0354878440DC88DE80D0032487844B0
:10203000801C03AC0DC884E80D0041F69B300844B9
:10204000372190FBF1F290FBF1F5A5F1800501FB42
:1020500012041B3C02D56442012000E00020DFF89E
:1020600098A080460027FA44AAF1BE0A0EE0E007D5
:102070000AD03246684607EB470101230AEB81018B
:1020800000F01BFB8DE8070064107F1C002CEED1D4
:10209000194F7F44AE3F19E0E80715D007EB041055
:1020A0000DF1180A90E80E008AE80E00C068F042B0
:1020B00001D1981908903246012306A903A800F01F
:1020C000FCFA03AB83E807006D10641C002DE3D11C
:1020D0004FF0010332466946B8F1000F03A802D061
:1020E00000F0D6FA01E000F0E8FAC9E90001C9F809
:1020F00008200AB0BDE8F0875CD9000010B504469E
:10210000AFF300802046BDE81040FEF7DCB80000C9
:1021100000487047B8CC00204FF0013C50F8042B29
:1021200051F8043B9A4221D1A2EB0C03934313EAEA
:10213000CC1317D150F8042B51F8043B9A4215D117
:10214000A2EB0C03934313EACC130BD150F8042BEE
:1021500051F8043B9A4209D1A2EB0C03934313EAD2
:10216000CC13DBD04FF00000704700BFD01A01BA8B
:10217000B1FA81F101F0180122FA01F0CB40C1F16E
:102180002001DBB2C0B2C01A2CFA01F3D11A91437C
:1021900011EAC311E6D170475FEA400C08BF91F025
:1021A000000F4FEA8C234FEAC12243EA51514FEA14
:1021B0001C5018BF00F5F0404FEA300018BF41F046
:1021C00000415FEA6C5C00F02980BCF1FF3F08BF72
:1021D00040F080407047130C06BF12044FF0100C03
:1021E0004FF0000C130E04BF12020CF1080C130F79
:1021F00004BF12010CF1040C930F04BF92000CF108
:10220000020CD30F04BF52000CF1010C11464FF029
:102210000002A0F11F00A0EB0C00704711F0004F6E
:1022200008BF704731F000413FF4D5AF0B0C06BF3B
:1022300009044FF0100C4FF0000C0B0E04BF090204
:102240000CF1080C0B0F04BF09010CF1040C8B0FEF
:1022500004BF89000CF1020CCB0F04BF49000CF144
:10226000010CCCF12003A0EB0C0022FA03F302FADC
:102270000CF241EA030100F10100704720F07F4CAD
:1022800080EA030023F07F47ACEB070303F57C53A0
:1022900000F0004003F1FF032DE980494FEA154BA0
:1022A00009B44FEA144325EA0B4E24EA03480FF21F
:1022B000042606EB132749083E785FEA320203FB47
:1022C0000667C7F5000707FB06F64FEA54374FEAE3
:1022D000D64606F1020607FB066CCCF1005C4FEA1D
:1022E0001C472CEA074C07FB06F40CFB06F504EB35
:1022F00015464FEA961634BF00204FF000404FEAD3
:10230000D13706FB07FC4FEA1C4C0CFB0BF7D21B2A
:1023100003FB0CF761EB07010CFB0EF7B0EB07407A
:1023200072EB17420CFB08F734BFA2EB0742B2EB8B
:10233000074261EB17414FEA0C444FEA910706FB55
:1023400007FC4FEA1C4C0CFB0BF7B0EBC74072EBE1
:10235000573203FB0CF734BFA2EBC742B2EBC742C4
:1023600061EB57310CFB0EF7B0EBC70072EB577205
:102370000CFB08F734BFA2EBC702B2EBC70261EB5C
:102380005771039F4FEA816141EA921104EBCC043B
:102390004FEAD1374FEA826206FB07FC42EA90120D
:1023A0004FEA80604FEA1C4C0CFB0BF7D21B03FB7F
:1023B0000CF761EB07010CFB0EF7B0EB074072EB7B
:1023C00017420CFB08F734BFA2EB0742B2EB0742FF
:1023D00061EB17414FEA8C554FEA910704EB9C24BF
:1023E00006FB07FC4FEA1C4C0CFB0BF7B0EBC7409D
:1023F00072EB573203FB0CF734BFA2EBC742B2EBD0
:10240000C74261EB57310CFB0EF7B0EBC70072EB24
:1024100057720CFB08F734BFA2EBC702B2EBC7023E
:1024200061EB577115EB4C254FEA816141EA92113E
:102430004FEA82624FEAD13742EA901206FB07FC6C
:1024400044F100044FEA80604FEA1C4C0CFB0BF790
:10245000D21B03FB0CF761EB07010CFB0EF7B0EB93
:10246000074072EB17420CFB08F734BFA2EB0742A0
:10247000B2EB074261EB174115EB1C154FEA8131B6
:1024800041EA92414FEA823242EA90424FEA80307A
:102490004FEA0C7644F1000448EA03434EEA0B4845
:1024A0004FF0000EB2EB080C71EB030724BF62463D
:1024B00039464EEB0E0E4FF0000B001852414941C9
:1024C0004BEB0B0BB2EB080C71EB03077BF1000B32
:1024D00024BF624639464EEB0E0E4FF0000B00183B
:1024E000524149414BEB0B0BB2EB080C71EB03076C
:1024F0007BF1000B24BF624639464EEB0E0E51EACB
:10250000020718BF46F0010616EB0E7655F10002E1
:1025100054F1000103D5BDE88901BDE80088BDE89C
:102520008901BDE80048B619524141EB0101A3F110
:102530000103704780807F7E7D7C7B7A7978777617
:1025400076757473727171706F6E6E6D6C6C6B6A90
:102550006A6968686766666564646363626161602E
:10256000605F5F5E5E5D5D5C5C5B5B5A5A595958AB
:102570005857575656555555545453535252525115
:10258000515050504F4F4F4E4E4D4D4D4C4C4C4B6B
:102590004B4B4A4A4A4949494848484747474746B2
:1025A00046464545454444444443434343424242EE
:1025B00042414141002B9C4630D477002BD01CB5C2
:1025C0004FEA370703B44FF010004FF01001BAF193
:1025D000000F06D0BCF1000FDCBF40F0080040F057
:1025E00008014FF000000FBCBDE810400BF1010BDB
:1025F000BBF1010F08BF5FEA170722BF12F101020A
:1026000011F101014FF0004143F1000300F00040DF
:1026100043EA00007047F9D35708D0E746EA064678
:1026200013F1400F4FEA16461FDD13F1200FDFBFF5
:1026300016430A46002120335B42BED0C3F1200777
:1026400046EA064602FA07F74FEA164646EA070642
:10265000C3F1200722FA03F201FA07F721FA03F186
:102660004FF0000342EA0702A7E746EA020646EAFD
:1026700006464FEA164646EA0106BCBF46EA06464B
:10268000360C4FF000034FF000024FF0000194E7CA
:102690002DE9804C9A46934670B491E8380007C8FB
:1026A00031EA400C48BF34EA430C03D5FFF7E6FD9E
:1026B000FFF780FFF0BCBDE8008C2DE9804C9A4606
:1026C000934670B491E8380007C810F0804F08BFF7
:1026D00013F0804F03D100F005F8FFF76BFFF0BC5B
:1026E000BDE8008C20F07F4780EA030023F07F4C98
:1026F00007EB0C03A3F57C5300F00040A3F1FE03AD
:1027000092F0000F00F0B38095F0000F00F077809A
:102710002DE901494FEA11404FEA144621EA0048E9
:1027200000FB06FC24EA064708FB06F607FB08F850
:1027300000FB07F718EB06484CEB164C4FEA124B20
:1027400018EB07484FEA15464CEB174022EA0B4EB0
:102750000BFB06FC25EA06470EFB06F607FB0EFE02
:102760000BFB07F71EEB064E4CEB164C4FF000062A
:102770001EEB074E4CEB174B18EB0B0840F100001B
:1027800018EB0E0B58EB000840F100008F1A4FF0C9
:1027900000013CBFC943661B14BFB5EB040C00210C
:1027A0003CBFC943F61B4FEA17444EEA8E0E27EA98
:1027B00004454FEA1C4704FB07622CEA074C05FB63
:1027C00007F70CFB05F604FB0CFC16EB074642EB87
:1027D000174216EB0C4642EB1C421BEB060658EB6D
:1027E0000202414146EA9E0601D5BDE80189B619BB
:1027F000524141EB0101A3F10103BDE801894FEA18
:1028000014454FEA114724EA054621EA074C05FB27
:1028100007F406FB07F70CFB06F105FB0CFC11EBBC
:10282000074144EB17444FEA124711EB0C4144EBCC
:102830001C4422EA074C05FB07F206FB07F70CFBDA
:1028400006F605FB0CFC16EB074642EB174216EBAF
:102850000C4642EB1C456A1854F1000148BF704712
:10286000B619524141EB0101A3F10103704795F004
:10287000000F37D04FEA11424FEA144721EA0246CF
:1028800024EA074C02FB07F106FB07F70CFB06F4F2
:1028900002FB0CFC14EB074441EB17414FEA1547D0
:1028A00014EB0C4441EB1C4125EA074C02FB07F5F5
:1028B00006FB07F70CFB06F602FB0CFC16EB0746C3
:1028C00045EB174516EB0C4645EB1C42121951F12E
:1028D000000148BF7047B619524141EB0101A3F115
:1028E000010370474FEA14454FEA114724EA0546B1
:1028F00021EA074C05FB07F106FB07F70CFB06F284
:102900004FF0000605FB0CFC12EB074241EB1741B0
:1029100012EB0C4251EB1C4148BF7047921841EB3F
:102920000101A3F10103704721B1826842F0010265
:10293000826003E0826822F001028260704700003A
:102940000021084A1168084A1140D0E900231A43BF
:1029500083681A43C3681A431143044AC2F8041334
:102960007047000004230140E030FCFF00200140DC
:1029700000B58BB00121880200F0E6FE012188023B
:1029800000F0F2FE00214FF4806000F0EDFE002028
:102990000190049003904FF48030029001A8FFF75B
:1029A000CFFF002005908DF818008DF819004FF02A
:1029B000805007904FF0C0600890002009900120DF
:1029C0008DF8280005A90B4800F040F801231A46AD
:1029D0000021084800F074F80121064800F017F8BB
:1029E0000121044800F008F801210248FFF79CFF8C
:1029F0000BB000BD0022014021B1826842F4807218
:102A0000826003E0826822F480728260704721B1A4
:102A1000826842F40072826003E0826822F40072ED
:102A2000826070471CB50121084600F06DFE012050
:102A3000009003208DF8040000208DF807006946FF
:102A4000014800F069FD1CBD0000024030B502469F
:102A5000002000235068104C20400D790C6844EA97
:102A600005242043506090680C4C2040D1E9035469
:102A70002C438D682C434D7944EA450420439060F3
:102A8000D06A20F470000C7D641EE4B2234340EA57
:102A90000350D06230BD0000FFFEFFFCFDF7FFC019
:102AA00010B5FFF7BFFFFFF763FF044800F006FB18
:102AB00000F0C5FD00F0D1FF10BD00001064024021
:102AC000F0B504460D4600200021092D11DDE06817
:102AD000A5F10A0606EB4607072606FA07F1884322
:102AE000A5F10A0606EB460603FA06F10843E06084
:102AF0000CE0206905EB4507072606FA07F1884335
:102B000005EB450603FA06F108432061072A0FDAB0
:102B1000606B561E06EB86071F2606FA07F18843F0
:102B2000561E06EB860605FA06F10843606322E0AE
:102B30000D2A0FDA206BD61F06EB86071F2606FA32
:102B400007F18843D61F06EB860605FA06F108430F
:102B5000206310E0E06AA2F10D0606EB86071F264F
:102B600006FA07F18843A2F10D0606EB860605FA80
:102B700006F10843E062F0BD0FB400B5B5B037A868
:102B80000190C92102A8019B369AFEF73FF9002067
:102B90000190411E0848006803F0FCF902A907A053
:102BA000FEF74EF900231A4619460348006803F061
:102BB00051F835B05DF814FB1000002025730000BB
:102BC00000BFFEE7E6B041E04FF4C87102A8FEF78F
:102BD00013FB02A802F092FC1D4B7C221DA11FA03A
:102BE000FFF7CAFF1A4B7D221AA12CA0FFF7C4FFE2
:102BF00002A8174B7E2217A1009038A0FFF7BCFF58
:102C0000134B7F2213A115A0FFF7B6FF4FF4C87135
:102C100002A8FEF7F1FA02A802F002FC0C4B842293
:102C20000CA132A0FFF7A8FF02A8094B852209A139
:102C300000902AA0FFF7A0FF054B862205A138A02F
:102C4000FFF79AFF44F6206002F000FBBCE70000AB
:102C5000186F00086D61696E2E6300005B25733A82
:102C6000253035645D5B25735D2D2D2D2D2D2D2D8E
:102C70002D2D2D2D2D2D2D2D2D2D2D2D2D2D2D2D84
:102C80002D2D2D2D2D2D2D2D2D2D2D2D2D2D2D2D74
:102C90002D2D2D2D2D2D0D0A000000005B25733AE2
:102CA000253035645D5B25735DC8CECEF1C3FB2056
:102CB0002020202020C8CECEF1D7B4CCAC20D3C564
:102CC000CFC8BCB6202020CAA3D3E0D5BB20C8CE35
:102CD000CEF1D0F2BAC50D0A000000005B25733AB0
:102CE000253035645D5B25735D2573005B25733A84
:102CF000253035645D5B25735DC8CECEF1C3FB2006
:102D0000202020202020D4CBD0D0BCC6CAFD20203B
:102D100020202020202020C0FBD3C3C2CA0D0A00DF
:102D20005B25733A253035645D5B25735D2D2D2D54
:102D30002D2D2D2D2D2D2D2D2D2D2D2D2D2D2D2DC3
:102D40002D2D2D2D2D2D2D2D2D2D2D2D2D2D2D2DB3
:102D50002D2D2D2D2D2D2D2D2D2D0D0A0A00000090
:102D600030B52DED028B83B04D4800F0B1FAC0F5BF
:102D7000FA604C49088008460088B0F5806F2ADA6E
:102D800008460088C0F5806047490880002508464D
:102D90000088C0F5FA6084B209E0444830F81400B5
:102DA000434921F81500601C84B2681C85B2B4F553
:102DB000FA6FF2DB002409E03C4830F814003C498B
:102DC00021F81500601C84B2681C85B23548008863
:102DD0008442F1DB14E0002532480088A0F58060D1
:102DE00084B209E0314830F81400314921F8150067
:102DF000601C84B2681C85B22A4800888442F1DBDA
:102E000000202C4908804FF48050488000208880A2
:102E100000241EE0264830F814002649098888421C
:102E200003DD234830F8140001E0224800882149DE
:102E300008801F4830F814004988884203DA1C488B
:102E400030F8140001E01B4840881A494880601C93
:102E500084B2B4F5806FDDDB1648008815494988D7
:102E6000401A144988800846808800EE100AB8EE9F
:102E7000400ADFED110A20EE200A10EE101A084673
:102E800003F0D0FF41EC180B8DED008B0B4B74223F
:102E90000BA111A0FFF770FE03B0BDEC028B30BD9B
:102EA00010640240D0000020D2000020B8010020B1
:102EB000A48C0020D80000206740533A8870000896
:102EC0002E2E5C5354656D57696E5F5461736B5C55
:102ED00064736F2E630000005B25733A2530356400
:102EE0005D5B25735D57617665506172616D732E10
:102EF000505056616C7565203D2025660D0A000016
:102F000000B595B00121084600F0FEFB01214807FD
:102F100000F00AFC0121480500F0F6FB1020139098
:102F200003208DF8500000208DF8530013A91F488E
:102F300000F0F2FA04200F900020109012900FA9D8
:102F400000F066F81A4800F00DF94FF0606000904C
:102F50001848019018480290402003908020049067
:102F6000002005904FF4806006904000079080009C
:102F700008904011099040020A9000200B90012017
:102F80000C9000200D900E906946094800F0F4F96D
:102F90000121074800F086F80121002000F00EF81A
:102FA0000121002000F01EF815B000BD0000024015
:102FB0008860024008740040226F000839B1084A56
:102FC0001268012383401A43054B1A6006E0044A45
:102FD0001268012383409A43014B1A607047000036
:102FE0000074004041B1094A12684FF48053834095
:102FF0001A43064B1A6007E0044A12684FF48053E4
:1030000083409A43014B1A607047000000740040EF
:1030100030B5002200230A4C226840F6FE7484403A
:10302000A243D1E900452C438D682C43CD6844EA86
:10303000050303FA00F42243014C226030BD000076
:103040000074004010B500F075FDFFF759FF10BD8A
:1030500010B50549054800F03FF918B10249034889
:1030600000F006F810BD000020800010106402403F
:103070000246094B9A4201D2084801E0064810383E
:1030800001F000531BB1064B0B40C36002E0044B40
:103090000B408360704700001064024000600240F3
:1030A0007D0F7D0F21B1026842F00102026003E052
:1030B000026822F0010202607047000010B590B073
:1030C00004462548844204D90121880500F01CFBF0
:1030D00003E00121480500F017FB204600F042F80C
:1030E00000BF204600F0EAF80028FAD14FF08060D7
:1030F00001901A4802901A480390002004904FF45F
:10310000FA600590002006904FF480600790400020
:1031100008908000099040110A9040020B90002016
:103120000C9003200D9000200E900F9001A92046D6
:1031300000F022F9102108481030FFF799FF012212
:1031400010210548103000F0F9F801212046FFF762
:10315000A9FF10B010BD0000006402404C220140E5
:10316000B8010020016821F0010101600021016027
:1031700041608160C1600161212141614A49884209
:1031800004D13D21484A103A91608CE046491831FB
:10319000884205D14FF47461434A103A916082E04D
:1031A00041493031884205D14FF474113E4A103AFA
:1031B000916078E03C494831884205D14FF0746114
:1031C000394A103A91606EE037496031884204D143
:1031D0003649354A103AD16065E033497831884242
:1031E00004D13349304A103AD1605CE02E49903125
:1031F000884204D12F492C4A103AD16053E02A4921
:10320000A831884205D14FF03D51274A103AD1608C
:1032100049E02949884204D13D21274A083A1160F2
:1032200041E025491831884205D14FF47461224AA2
:10323000083A116037E020493031884205D14FF417
:1032400074111D4A083A11602DE01B49483188422B
:1032500005D14FF07461184A083A116023E016490D
:103260006031884204D11149134A121F11601AE0DB
:1032700011497831884204D10D490F4A121F11605B
:1032800011E00D499031884204D10A490A4A121FBF
:10329000116008E00849A831884204D14FF03D513F
:1032A000054A121F11607047106002403D00002067
:1032B000400F002000003D20106402400146002025
:1032C0000A6802F001020AB1012000E00020704704
:1032D0000146486880B2704770B50246002000245D
:1032E0000025124EB24201D2114B01E00F4B103BB0
:1032F000104E0E4036B11E2606EAD124166806EAA4
:10330000040502E0566906F0800501F000560EB192
:103310005C6800E01C68084E344004EA010616B1FF
:103320000DB1012000E0002070BD000010640240DB
:10333000006002403C0F3C0F7D0F7D0F10B501F087
:1033400080034BB122B1436943F08003436103E042
:10335000436923F08003436180290BD02AB10368BD
:1033600001F01E042343036004E0036801F01E041F
:10337000A343036010BD000010B500220268134B88
:103380001A40CC680B6823434C6923438C69234360
:10339000CC6923430C6A23434C6A23438C6A23433E
:1033A0004C6B23438C6B23431A430260426922F027
:1033B0000702D1E90B3423431A4342610B6943608E
:1033C0004B6883608B68C36010BD00003F801CF0B9
:1033D0007047000070B52DED088B84B006460024C0
:1033E00018E0334830F8140000EE100AB8EE400A36
:1033F000DFED300A60EE208A2F4901EBC400C0EDFA
:10340000008A9FED2E0A6000401C01EB800080EDD9
:10341000000A641CB4F5806FE3DB27492848FDF7F8
:1034200083FB4FF4806227492348FCF7D3FF002435
:1034300011E02449A01C01EB800090ED000AB4EEDD
:10344000C80AF1EE10FA05DDA01C01EB800090ED3A
:10345000008AA51C641CB4F5007FEADD284603F051
:10346000CBFB41EC190B304603F0C6FB41EC1B0BC8
:103470009FED150B53EC102B03F066FA41EC1A0B81
:1034800053EC192B03F0D0FB114AC2E9020110469C
:1034900090ED020B8DED020B0E4B42220EA114A0FB
:1034A0000095FFF769FB04B0BDEC088B70BD000010
:1034B000A48C00206740533AA49C00200000000028
:1034C000A4CC0020A4BC0020000000000000A0400C
:1034D000D80000207C7000082E2E5C5354656D5778
:1034E000696E5F5461736B5C64736F2E63000000E0
:1034F0005B25733A253035645D5B25735D3D3D3D4D
:103500003D3D3D706F733A202564206672653A2018
:1035100025660D0A00000000F0B50A4600210023D0
:10352000002400BF3DE0012505FA01F3156805EA16
:1035300003049C4234D105684F000326BE40B543C6
:10354000056015794E00B54006683543056015796C
:10355000012D02D01579022D16D185684F00032662
:10356000BE40B543856055794E00B5408668354309
:103570008560456801268E40B5434560456896796B
:103580008E40B6B235434560C5684F000326BE4045
:10359000B543C560D5794E00B540C6683543C560B2
:1035A000491C1029BFD3F0BDF0B5002300244D07FE
:1035B000ED0E02FA05F3CE1000F1200555F8265065
:1035C0004E07F70E0F26BE40B543CF1000F1200680
:1035D00046F82750CE1000F1200555F8265045EA50
:1035E0000304CE1000F1200545F82640F0BD01830C
:1035F000704700BFFEE700001CB50121202000F04D
:1036000083F84FF4C060009001208DF80400002082
:103610008DF8060003208DF8050001208DF80700C5
:1036200069460448FFF778FF4FF4C0610148FFF78F
:10363000DEFF1CBD0014024000BFFEE7704708B566
:103640001C208DF8000000208DF801008DF802008C
:1036500001208DF80300684600F010F838208DF83E
:10366000000000208DF801008DF8020001208DF887
:103670000300684600F002F808BD000070B50021A4
:1036800000230F22C4781CB3174C246804F4E064B0
:10369000C4F5E064C4F30721C1F10404E3B20A41B4
:1036A00044789C40E1B28478144021430C07210EF9
:1036B0000E4C05786155047804F01F050124AC40D8
:1036C00005786D11AD0005F1E025C5F8004109E070
:1036D000047804F01F050124AC40054D06787611EE
:1036E00045F8264070BD00000CED00E000E400E06D
:1036F00080E100E002490143024A11607047000086
:103700000000FA050CED00E029B1064A12680243F8
:10371000044B1A6004E0034A12688243014B1A60AA
:10372000704700003038024029B1064A126802434F
:10373000044B1A6004E0034A12688243014B1A608A
:10374000704700004038024029B1064A126802431F
:10375000044B1A6004E0034A12688243014B1A606A
:10376000704700004438024029B1064A12680243FB
:10377000044B1A6004E0034A12688243014B1A604A
:103780007047000024380240F0B5002100220024D8
:10379000022500260223324F3F6807F00C0121B1B9
:1037A000042905D0082937D105E02E4F076036E0FF
:1037B0002D4F076033E02A4F3F1F3F68C7F3805605
:1037C000274F3F1F3F6807F03F036EB1264FB7FBFF
:1037D000F3F7DFF88CC0ACF1040CDCF800C0CCF3DC
:1037E000881C07FB0CF40CE01E4FB7FBF3F7DFF867
:1037F00070C0ACF1040CDCF800C0CCF3881C07FBF3
:103800000CF4174F3F1F3F68C7F301477F1C7D0033
:10381000B4FBF5F7076002E0124F076000BF00BF7E
:103820000F4F3F6807F0F0010909104F7A5C0768F5
:10383000D74047600A4F3F6807F4E051890A0B4FB1
:103840007A5C4768D7408760054F3F6807F460415E
:10385000490B064F7A5C4768D740C760F0BD00004F
:10386000083802400024F40000127A002C000020E6
:1038700070B504460548B0FBF4F0401E85B2012245
:103880002946034800F0ADF970BD0000808D5B0053
:103890000004004070B50446E0010549B1FBF0F0BA
:1038A000451E2946034800F0A8F9204670BD0000D7
:1038B00000BD0105001000400CB5002001900090F3
:1038C0003448006840F480303249086000BF314815
:1038D000006800F4003000900198401C01900098AE
:1038E00018B90198B0F5A04FF1D12A48006800F44A
:1038F000003010B10120009001E0002000900098FD
:10390000012846D123484030006840F080502149CA
:10391000403108602048006840F440401E4908607B
:103920001C48083000681B490831086008460068D8
:1039300040F4004008600846006840F4A050086069
:103940001648091F0860081F006840F08070091FB2
:10395000086000BF0F48006800F000700028F9D030
:1039600040F205700E4908600A480830006820F0EF
:1039700003000849083108600846006840F002006A
:10398000086000BF03480830006800F00C000828F9
:10399000F8D10CBD003802400070004008544007C8
:1039A000003C0240042808D14FF0E021096941F0B1
:1039B00004014FF0E022116107E04FF0E0210969B6
:1039C00021F004014FF0E0221161704710B502F0C0
:1039D00035FC012801D002F071F810BD10B5154872
:1039E000006840F47000134908601348006840F014
:1039F00001001149086000200F49083108600E4895
:103A000000680E4908400C4908600D48091D08600F
:103A1000081F006820F48020091F08600020064964
:103A20000C310860FFF748FF4FF000600149803912
:103A3000086010BD88ED00E000380240FFFFF6FE90
:103A40001030002410B50121880700F0B0F818B13B
:103A50000121880700F09CF810BD0EB50121084631
:103A6000FFF762FE00214FF0804000F094F86846B6
:103A700000F008F90D2001900520ADF800000020AD
:103A8000ADF80800ADF8020069464FF0804000F044
:103A9000B7F80121880700F06FF82021480600F0F0
:103AA000A3F80121880700F076F80EBD10B50121BA
:103AB000074800F07CF8012804D106480068401C43
:103AC000044908600121024800F062F810BD0000BE
:103AD000000C0040140000207FB505460C46012173
:103AE0000820FFF721FE0295ADF804400020ADF854
:103AF0000600ADF80C0001A90D4800F081F8012284
:103B000011460B4800F064F80121094800F043F821
:103B100032208DF8000005208DF8010000208DF87E
:103B2000020001208DF803006846FFF7A7FD7FBD66
:103B3000000C00400EB501211020FFF7F5FD68468E
:103B400000F0A0F840F28F2001900020ADF80000B6
:103B5000ADF80800ADF802006946064800F050F8DC
:103B60002021044800F040F80121024800F013F839
:103B70000EBD00000010004021B1028842F080021A
:103B8000028004E002884FF67F731A40028070477B
:103B9000CA430282704721B1028842F001020280CA
:103BA00004E002884FF6FE731A400280704730B579
:103BB0000246002000230024158A05EA01039589A6
:103BC00005EA010413B10CB1012000E0002030BD72
:103BD0001AB183890B43838102E083898B438381FC
:103BE000704701858282704782884FF68F731A4032
:103BF000828082880A4382807047C16270470000D9
:103C000000220288184B98420ED0184B98420BD0D5
:103C1000B0F1804F08D0164B984205D0154B984212
:103C200002D0154B984204D14FF68F731A404B883F
:103C30001A43124B984207D0114B984204D04FF6CA
:103C4000FF431A400B891A4302804B68C3620B88FA
:103C50000385054B984202D0044B984201D18B7AE0
:103C60000386012383827047000001400004014065
:103C70000004004000080040000C0040001000401C
:103C8000001400404FF0FF314160002101800181AC
:103C9000418081727047000010B540F225511D48E7
:103CA00000F04AF810B31B4800F000F9C4B21A48FB
:103CB000008800F40040C8B91748008800F480402C
:103CC00060B10A2C03D000201349088020E012487C
:103CD000008840F400401049088019E00D2C06D1FE
:103CE0000D48008840F480400B49088010E00A48E5
:103CF0000088C0F30D0009490C5407480088401C97
:103D00000549088008460088C72801DD0020088092
:103D100010BD00000010014040000020F000002015
:103D200021B1828942F40052828104E082894DF6F9
:103D3000FF731A408281704770B502460024002349
:103D40000025002040F66A16B14200D100BFC1F341
:103D5000421501F01F03012606FA03F3012D02D1DB
:103D60009689334006E0022D02D1168A334001E0E5
:103D7000968A33400C12012606FA04F41688344061
:103D800013B10CB1012000E0002070BDF0B5034676
:103D9000002400260025002040F66A17B94200D111
:103DA00000BF1846C1F3421401F01F06012707FAAD
:103DB00006F5012C01D10C3004E0022C01D11030A9
:103DC00000E014301AB107682F43076002E007686B
:103DD000AF430760F0BD00002DE9FF4705460E46E2
:103DE0000024A14600BFA046B08900B100BF2C8AC4
:103DF00024F44054F08804432C82AC8941F20C60D6
:103E00008443B08831890843718908430443AC81F5
:103E1000AC8A24F44074B0890443AC826846FFF74E
:103E2000B3FC2048854202D01F48854202D1DDF80C
:103E30000C9001E0DDF80890A88900F4004040B142
:103E400009EBC90000EB091031684900B0FBF1F73C
:103E500007E009EBC90000EB091031688900B0FBED
:103E6000F1F76420B7FBF0F004012009642101FBA5
:103E70001078A88900F4004040B1322000EBC8005F
:103E8000B0FBF1F000F00700044308E0322000EB43
:103E900008106421B0FBF1F000F00F0004432C8106
:103EA000BDE8FF87001001400014014001468888EA
:103EB000C0F30800704700BFFEE703B4019841005B
:103EC000009850EAC12018BF04204A0D18BF40F0E6
:103ED000010040F2FF72B2EB515F08BF40F00200F8
:103EE000012808BF052002B0704730380A2801D2E7
:103EF000012070470020704700BF704770B504462E
:103F00000420FFF74FFD0C48047025464FF47A70EB
:103F100045430120094908804FF0E020006940F046
:103F200002004FF0E021086108464561006940F059
:103F30000100086170BD0000420000204400002024
:103F40002DE9F04707463E4656B900BF502080F3A2
:103F50001188BFF34F8FBFF36F8F00BF00BFFEE725
:103F60001B480068864201D100242DE001F06AF868
:103F700075691848D0F800801748D0F8009001F013
:103F80008BF8454501D04D4501D102241CE0134872
:103F9000854212D1B06A70B90324002007E006F10F
:103FA0005C01095C012901D1022402E0401C0128C6
:103FB000F5DB00BF08E0022406E00948854200D096
:103FC0000DB9042400E001242046BDE8F08700007C
:103FD000480000204C000020500000206814002001
:103FE0005414002000BF054A128802F04002002A43
:103FF000F9D0C2B2014B9A80704700000010014016
:104000000EE008480068C0430749C1F8A402FEF763
:10401000A7FE06490868FFF7DDF9FA2001F016F956
:10402000EFE70000A4824242008042422470000870
:104030001CB54FF44070FFF75DFBA820FFF75EFF53
:104040004FF4E13000F002FFFFF7D6FAFEF7FAFF77
:104050004DF6C020FFF71EFCFEF722FD124908684E
:10406000FFF706FC532140F2E730FFF735FD01234F
:10407000002299020D48FCF775FD0D48012100232F
:104080008022CDE900100BA10D4802F0A7F80446EC
:1040900001F042FC012C02D101F07EFB02E04FF066
:1040A000FF301CBD00BFFEE724700008A4CC002038
:1040B0000000002073746172745F7461736B0000A0
:1040C000E14D00082DE9F04105460E4626480768F7
:1040D00026480068001D00F00FFF50B92348006813
:1040E00090F82C100120884021490968814320481C
:1040F0000160681CD8B9D6B11E4948681B490968D7
:1041000088601A4982680968CA6018490968091DE7
:104110008268516015490968091D8160154A134973
:1041200009684A6111460968491C11601AE07C1946
:104130000E4800684460BC4207D20C480168091D63
:104140000D48006800F058FF0CE008480168091DA0
:104150000A48006800F050FF09480068844201D214
:1041600007480460BDE8F0815C00002048000020A2
:104170006000002068140020500000204C00002047
:104180007800002010B5044600F05CFF314800685C
:10419000401C304908603048006840B92E4804602F
:1041A0000846006801280DD100F01EFA0AE02B48ED
:1041B000006838B928480068C06AE16A884201D8B6
:1041C0002548046026480068401C254908600846C8
:1041D0000068606494F82C10012088402149096827
:1041E000084320490860E16A01EB81011E4A02EBA5
:1041F00081014868A0608268E260211D8268516088
:104200008160E16A01EB8101174A02EB8102626180
:10421000E16A01EB8101144A52F82110491CE26A5B
:1042200002EB8202104B43F8221000F035FF0B48DE
:10423000006868B108480068C06AE16A884207D22D
:104240004FF0805009490860BFF34F8FBFF36F8F65
:1042500010BD00005800002048000020640000202D
:1042600074000020600000209811002004ED00E0A0
:1042700010B500F0E7FE10480068D0B90F4800F014
:10428000ABFE0F4800F0A8FE0C480E4908600C4831
:104290000D49086000220C21052001F03AFC064976
:1042A00008600846006820B108A10348006800F0D3
:1042B00077FF00F0F1FE10BD980000207C14002074
:1042C000901400209000002094000020546D725142
:1042D0000000000010B516E000F0B4FE0C48C06805
:1042E000C468201D00F008FE0A480068401E094905
:1042F000086009480068401E0749086000F0CCFECD
:10430000204600F05FF8044800680028E4D110BDA2
:1043100054140020580000205400002070B50446BA
:104320000D46206C70B1216CE0680144E160D4E975
:104330000210884201D32168E1602846226CE168BE
:10434000FCF70DFF70BD2DE9F04104460F46154600
:104350004FF00008A66B206C48B9206800282CD1CB
:10436000A06802F05FF880460020A06025E07DB9DB
:104370003946226C6068FCF7F2FE216C60680844E4
:104380006060D4E90101884217D32068606014E0BE
:104390003946226CE068FCF7E2FE216CE068411AC5
:1043A000E1602168E068884203D2216CA068411A6C
:1043B000E160022D01D106B1761E701CA06340465B
:1043C000BDE8F08110B50446206B00F083FE204666
:1043D00000F080FE10BD01464A6A22B10A6B1268E5
:1043E000C2F1200000E00020704700000146084AAA
:1043F000126812680AB9012200E000220A600A6805
:1044000022B9034A1268D268106800E000207047A1
:104410009000002030B54FF4F043174800F0070437
:104420002CB1C01D20F00700134C041B1B1B0246BF
:10443000124C22600024114D6C60D018083820F016
:1044400007000F4C206000240D4D2D686C600C4D52
:104450002D682C601146441A4C60094C24680C608D
:10446000084D4C682C60084D4C682C604FF000449F
:10447000064D2C6030BD0000A4140020B0000020C8
:10448000B8000020C0000020BC000020CC000020AC
:1044900000BFFFF71FFF064800680128F9D94FF059
:1044A000805004490860BFF34F8FBFF36F8FF0E770
:1044B0009811002004ED00E010B5044654B100202E
:1044C000A06020600021E16000231A4619462046C2
:1044D00001F0C0FB10BD2DE9F04106460D46174620
:1044E0009846069C0DB9246000E02760E6632564C9
:1044F0000121204601F040FB84F850800020A06498
:10450000BDE8F0812DE9F05F82460F4690469B465C
:104510000A9E0C9C4FEA8801A522206BFCF764FEE2
:10452000A8F10100216B01EB800929F0070909F0CE
:10453000070008B9012000E0002050B900BF50205A
:1045400080F31188BFF34F8FBFF36F8F00BF00BFA1
:10455000FEE787B1002507E0795D04F1340041559D
:10456000785D00B902E06D1C102DF5D300BF00216D
:104570004320015502E0002084F83400202E01D2AF
:10458000012000E0002050B900BF502080F31188C6
:10459000BFF34F8FBFF36F8F00BF00BFFEE7202E2A
:1045A00000D31F26E662E66400202065201D00F08F
:1045B00020FD04F1180000F01CFD2461C6F120006C
:1045C000A061646200206065A06584F85C005A46C2
:1045D0005146484600F0EEFB20600B9808B10B985E
:1045E0000460BDE8F09F000010B5002407E004EB74
:1045F00084010F4A02EB810000F0EEFC641C202CC9
:10460000F5D30C4800F0E8FC0B4800F0E5FC0B4843
:1046100000F0E2FC0A4800F0DFFC0A4800F0DCFC95
:1046200004480949086004480849086010BD0000B2
:1046300098110020181400202C1400204014002091
:1046400054140020681400204C000020500000206A
:1046500010B50146164800E0006803688B42FBD3A2
:104660000246436813448B4204D143684C68234498
:10467000436001460A464B6813440468A34211D1C3
:104680000C4C03682468A34208D04B680468646833
:1046900023444B6003681B680B6005E0054B1B68F7
:1046A0000B6001E003680B60884200D0016010BD20
:1046B000B0000020B80000202DE9F04104460D466E
:1046C00016461F464FF0000865602461B5420CD8BD
:1046D000F01BA169884202D34FF0010811E0211DAF
:1046E0000948006800F088FC0BE0BE4204D2BD42DD
:1046F00002D34FF0010804E0211D0448006800F0D7
:104700007BFC4046BDE8F081940000209000002032
:1047100070B5054600F096FCA86B08B9012400E0CE
:10472000002400F0B9FC204670BD70B5054600F0CD
:1047300089FCA86BE96B884201D1012400E00024C8
:1047400000F0AAFC204670BD2DE9F04707460C4654
:1047500090460026206848B3204641684968416079
:1047600000F1080142688A4202D14168496841600B
:104770004168D1F80C9000BF20464168496841600B
:1047800000F1080142688A4202D1416849684160EB
:104790004168CD6806EBC60007EB80014346012265
:1047A000284600F0FBFD761C4D45E5D13046BDE8BE
:1047B000F087F1B50098846C002654B900BF5020F2
:1047C00080F31188BFF34F8FBFF36F8F00BF00BF1F
:1047D000FEE7A06BE16B884201D2012000E00020DF
:1047E00050B900BF502080F31188BFF34F8FBFF343
:1047F0006F8F00BF00BFFEE7A06BE16B88422CD239
:1048000094F94550002269462046FFF79CFD064674
:10481000681C60B9606A08B9012000E00020D8B9BE
:1048200004F1240001F0ECFEB0B1012614E07F2D6C
:1048300001D0012000E0002050B900BF502080F3DB
:104840001188BFF34F8FBFF36F8F00BF00BFFEE72C
:10485000681C40B284F8450000BF3046F8BD000037
:1048600070B505460E460E480068C068C468201D35
:1048700000F042FB94F8280000F0040028B1324612
:104880002946204600F0D6F805E094F8280020F0EC
:10489000010084F828002046216A884770BD000086
:1048A000900000207FB57FE0019800287CDB039C0E
:1048B000606908B9012000E0002010B9201D00F057
:1048C0001BFB684600F0E2F8054601980A2869D209
:1048D000DFE800F06805072E365806082F3700BFBE
:1048E00000BF00BF94F8280040F0010084F82800C1
:1048F0000298A269811803462A462046FFF7DCFE8B
:10490000A8B194F8280000F0040038B10298A26918
:1049100081182A46204600F08DF805E094F828001A
:1049200020F0010084F828002046216A88473AE0F8
:1049300000BF94F8280020F0010084F8280032E03D
:1049400000BF94F8280040F0010084F82800029885
:10495000A061A06908B1012000E0002050B900BFAB
:10496000502080F31188BFF34F8FBFF36F8F00BFCC
:1049700000BFFEE7A06941192B462A462046FFF7F3
:104980009BFE10E094F8280000F0020018B92046C1
:1049900000F0A0FB05E094F8280020F0010084F866
:1049A000280000E000BF00BF002201A90348006802
:1049B00001F03CFA00287FF477AF7FBD980000201B
:1049C000F8B505460C4600F039FF684600F05EF881
:1049D0000646009820BB44B9B54206D801F0A0FEB7
:1049E00031462846FFF73CFF1CE03CB10E4800680A
:1049F000006808B9012000E000200446A91B2246F7
:104A00000A48006800F0FCFB01F08AFE50B94FF044
:104A1000805007490860BFF34F8FBFF36F8F01E0ED
:104A200001F07EFEF8BD00009400002098000020F8
:104A300004ED00E070B504460D46164604E0A0699A
:104A400005442046216A8847A06941192B46324611
:104A50002046FFF731FE0028F1D170BD09480068FB
:104A6000006808B9012000E0002020B14FF0FF30BD
:104A70000549086005E003480068C068006802490D
:104A8000086070474C0000207800002070B5044694
:104A900001F0E4FB054607480068854204D200F0B7
:104AA0000BF80120206001E0002020600148056033
:104AB000284670BDA000002070B508E00D480068D1
:104AC000C06804684FF0FF312046FFF7C9FE09486F
:104AD0000068006808B9012000E000200028EDD03F
:104AE00004480568044800680249086002480560F7
:104AF00070BD0000900000209400002002460021BC
:104B000001E0521C491C1078A528FAD0890888B207
:104B1000704700000E480068401C08B9012000E002
:104B2000002050B900BF502080F31188BFF34F8F91
:104B3000BFF36F8F00BF00BFFEE700BF502080F3C0
:104B40001188BFF34F8FBFF36F8F00BF00BFFEE729
:104B5000A400002008B500BF6846FFF747FC0446E4
:104B600020460099FFF72CFFFFF79CFEF4E770B595
:104B7000044600F067FA94F9455019E0A06C30B192
:104B80002046FFF716FE88B100F026FD0EE0606AB1
:104B900008B9012000E0002038B904F1240001F038
:104BA0002FFD18B100F018FD00E003E0681E45B2CB
:104BB000002DE3DC00BFFF2084F8450000F06CFA14
:104BC00000F040FA94F9445010E0206908B901203F
:104BD00000E0002048B904F1100001F011FD08B117
:104BE00000F0FAFC681E45B200E001E0002DECDCAC
:104BF00000BFFF2084F8440000F04EFA70BD70B58D
:104C000005460E4631462846FCF766FA2846FCF76C
:104C100087FA044602E020202855641C0F2CFAD3A2
:104C200000202855281970BD2DE9F04104464FF0A9
:104C3000000800F003FE5148006808B9FFF7EAFBDE
:104C40004F480068204000287ED13CB304F10800A2
:104C5000A04223D9083404F0070000B304F0070091
:104C6000C0F108002044A04216D904F00700C0F1AA
:104C70000800044404F0070008B9012000E0002007
:104C800068B900BF502080F31188BFF34F8FBFF386
:104C90006F8F00BF00BFFEE7002400E00024002C5F
:104CA00054D038480068844250D8374E30460568A2
:104CB00001E02E462D686868A04202D228680028CC
:104CC000F7D12E480068854240D0306800F10808CE
:104CD000286830606868001B102819D92F1907F060
:104CE000070008B9012000E0002050B900BF5020A3
:104CF00080F31188BFF34F8FBFF36F8F00BF00BFEA
:104D0000FEE76868001B78606C603846FFF7A0FC1F
:104D10001C4968680968081A1A490860084600684A
:104D20001A490968884203D2164800681749086082
:104D300013496868096808436860002028601448BF
:104D40000068401C124900E000E0086001F0E8FC47
:104D500008F0070008B9012000E0002050B900BFAA
:104D6000502080F31188BFF34F8FBFF36F8F00BFC8
:104D700000BFFEE74046BDE8F0810000B80000201B
:104D8000CC000020BC000020B0000020C0000020AB
:104D9000C40000200648006830B10549096801F1E7
:104DA0005000096D491C016001480068704700000F
:104DB00048000020001F4FF080730360001F21F0A7
:104DC00001030360001F054B036014380260001FDD
:104DD0006FF002030360203870470000154B000895
:104DE0001CB5044600F02EF90D4802210023CA012B
:104DF000CDE900100BA10E4801F0F0F90D48032198
:104E000000234FF48072CDE900100BA10D4801F092
:104E1000E5F90D48006800F047FA00F03DF91CBDC7
:104E2000040000206C65645F7461736B0000000017
:104E300001400008080000204350555F5461736B27
:104E400000000000C52B00080000002010B588B04D
:104E5000044601210846FEF757FC01211020FEF709
:104E600073FC072209212248FEF79EFB07220A2134
:104E70001F48FEF799FB4FF4C060069002208DF8A2
:104E80001C008DF81D0000208DF81E0001208DF8FB
:104E90001F0006A91648FEF73FFB02940020ADF85C
:104EA0000C00ADF80E00ADF81000ADF814000C20A9
:104EB000ADF8120002A90F48FEF78EFF01210D4840
:104EC000FEF72EFF012240F225510A48FEF75EFF51
:104ED00025208DF8040003208DF805008DF80600CC
:104EE00001208DF8070001A8FEF7C8FB08B010BD2F
:104EF000000002400010014001460A69D1E901307A
:104F00009860D1E9010358605068884201D18868EF
:104F10005060002008611068401E106010687047E3
:104F20002DE9F0410546884616460024202700F06A
:104F300085FC2248006880453AD300BF7F1E07EBFE
:104F400087021F4B03EB820104EBC40205EB8200D6
:104F50000122FFF7F9FB0444002FEFD104EBC40159
:104F600005EB8100022217490968FFF7EDFB0444B5
:104F700004EBC40105EB8100022213490968FFF725
:104F8000E3FB044404EBC40105EB810004220F4958
:104F9000FFF7DAFB044404EBC40105EB81000322B4
:104FA0000B49FFF7D1FB044416B10A480068306092
:104FB00001F0B6FB2046BDE8F0810000580000205B
:104FC000981100204C0000205000002054140020B4
:104FD000681400201400002000F1080141604FF027
:104FE000FF31816000F10801C160016100210160B1
:104FF000704700210161704710B502460B685C1CC8
:105000000CB9106907E002F1080000E0406844684C
:1050100024689C42FAD944684C604C68A16088605E
:1050200041600A611468641C146010BD42684A60E3
:1050300093688B60936859609160086103685B1C9A
:105040000360704700BF502080F31188BFF34F8F7B
:10505000BFF36F8F00BF0E480068401C0C4908600A
:1050600008460068012812D10A480068C0B208B991
:10507000012000E0002050B900BF502080F31188CB
:10508000BFF34F8FBFF36F8F00BF00BFFEE77047C6
:10509000A400002004ED00E00D48006850B900BFF6
:1050A000502080F31188BFF34F8FBFF36F8F00BF85
:1050B00000BFFEE706480068401E05490860084634
:1050C000006820B9002080F3118800BF00BF70473E
:1050D000A400002070B506463546002E44D0083D99
:1050E0002C46224960680968084008B1012000E0A8
:1050F000002050B900BF502080F31188BFF34F8FBC
:10510000BFF36F8F00BF00BFFEE7206808B9012022
:1051100000E0002050B900BF502080F31188BFF399
:105120004F8FBFF36F8F00BF00BFFEE70F4960686E
:1051300009680840C0B12068B0B90C4960680968C6
:105140008843606000F07AFB094960680968084498
:10515000074908602046FFF77BFA06480068401CB4
:105160000449086001F0DCFA70BD0000CC000020AA
:10517000BC000020C800002000204FF0E0210861A2
:105180008861064800684FF47A71B0FBF1F0401E68
:105190004FF0E021486107200861704718000020A7
:1051A00030B502460B4652B900BF502484F3118833
:1051B000BFF34F8FBFF36F8F00BF00BFFEE700212B
:1051C000BBB1002012E00D4C04EBC00464689442B3
:1051D00003D10A4C04EBC0010AE031B9074C54F882
:1051E000304014B9054C04EBC001401C0828EAD338
:1051F00000BF09B10B604A6030BD000058110020AB
:105200002DE9F04105460E4617462C46FFF71AFFDA
:1052100094F94400401C10B9002084F8440094F92B
:105220004500401C10B9002084F84500FFF734FF0A
:10523000A06B28B93A46314604F1240000F0EEF99B
:105240002046FFF794FCBDE8F081000070B50446ED
:105250000025D4B11248006808B9012000E0002000
:1052600050B900BF502080F31188BFF34F8FBFF3B8
:105270006F8F00BF00BFFEE700F0E0FA002120467C
:10528000FEF720FF01F04CFA05463DB94FF0805083
:1052900004490860BFF34F8FBFF36F8F70BD0000EC
:1052A0008400002004ED00E070B50546FFF7CAFE5B
:1052B00015B93048006800E028460446201DFFF775
:1052C0001BFE78B9E06A00EB80002B4951F8200002
:1052D00040B994F82C10012088402849096881437E
:1052E00026480160A06A18B104F11800FFF704FE17
:1052F00023480068401C224908601E480068844218
:1053000009D1211D1F48FFF791FE1F480068401C6E
:105310001D49086009E01D480068401E1B490860DF
:105320002046FFF74FF8FFF799FBFFF7B5FE184847
:105330000068E8B10F480068844219D11548006838
:1053400008B9012000E0002050B900BF502080F3D0
:105350001188BFF34F8FBFF36F8F00BF00BFFEE711
:105360004FF080500C490860BFF34F8FBFF36F8F31
:1053700070BD00004800002098110020600000204F
:105380007400002054140020540000205800002015
:10539000640000208400002004ED00E02DE9F041CD
:1053A00007460C4690461E4617B91C48006800E0A8
:1053B00038460546256005F134006060E86A2061E2
:1053C000286BE061686CA060E86C6061686DA0614A
:1053D000052E12D011480068854202D100202073AA
:1053E0000FE02673032E0CD100F028FAA86A08B14A
:1053F0000220207301F094F903E02846FEF7A0FD97
:105400002073B8F1000F04D0286BFFF777FB2084DE
:1054100001E000202084BDE8F08100004800002069
:105420002DE9F8430646002030702748D0F8008068
:105430000146096801EBC1018800FFF7F5FB05464D
:10544000002D3FD06A4641462846FFF769FD804659
:1054500064210098B0FBF1F00090009800282ED055
:1054600000242AE004EBC40005EB80008069009969
:10547000B0FBF1F704EBC40005EB80004168304657
:10548000FFF7BDFB064657B104EBC40005EB8000F7
:105490003B460EA182693046FBF7DEFC08E004EBD8
:1054A000C40005EB80000CA182693046FBF7D4FCF8
:1054B0003046FBF735FE0644641C4445D2D32846EB
:1054C000FFF708FEBDE8F88358000020092575099C
:1054D00009257525250D0A0009257509093C312581
:1054E000250D0A0003490968016003490968416004
:1054F00070470000700000205C0000202DE9FC4196
:105500000646002030702F4807680146096801EB05
:10551000C1018800FFF788FB0546002D50D000220E
:1055200039462846FFF7FCFC0746002443E004EB1D
:10553000C40005EB8000007B062813D2DFE800F0F2
:105540000306090C0F134FF058080FE04FF05208F4
:105550000CE04FF0420809E04FF0530806E04FF02E
:10556000440803E000BF4FF0000800BF00BF04EB99
:10557000C40005EB800041683046FFF740FB06465B
:1055800004EBC40005EB8000806804EBC40105EB6C
:105590008101098CCDE9001004EBC40005EB80000B
:1055A000424609A103693046FBF756FC3046FBF73B
:1055B000B7FD0644641CBC42B9D32846FFF78AFDF8
:1055C000BDE8FC81580000200925630925750925DF
:1055D000750925750D0A0000012001490860704712
:1055E0006C00002070B504460D4654B900BF502031
:1055F00080F31188BFF34F8FBFF36F8F00BF00BFE1
:10560000FEE70548016818312046FFF7F5FC012147
:105610002846FEF757FD70BD4800002070B50446CF
:105620000E46154654B900BF502080F31188BFF3D1
:105630004F8FBFF36F8F00BF00BFFEE760680F4959
:105640000968C8610D49826809680A620B490968DE
:105650001831826851600949096818318160074929
:1056600009688C622168491C21600DB14FF0FF363A
:1056700029463046FEF726FD70BD00004800002098
:105680002DE9F04706460F4634464FF00109002E3B
:105690007AD0206D50B900BF502080F31188BFF33D
:1056A0004F8FBFF36F8F00BF00BFFEE7E06CB842C3
:1056B00001D23D4600E0E56CE06AA84264D0206D6E
:1056C000012861D131480068844201D0012000E006
:1056D000002050B900BF502080F31188BFF34F8FD6
:1056E000BFF36F8F00BF00BFFEE7D4F82C80E562E8
:1056F000A06900F0004010B9C5F12000A06108EBDE
:105700008801234A02EB81016069884201D10120AE
:1057100000E00020C0B3201DFFF7EEFB40B994F875
:105720002C10012088401B490968814319480160F9
:1057300094F82C100120884016490968084315493F
:105740000860E16A01EB8101114A02EB81014868BE
:10575000A0608268E260211D826851608160E16A18
:1057600001EB81010A4A02EB81026261E16A01EB0D
:105770008101074A52F82110491CE26A02EB8202B9
:10578000034B43F8221000BFBDE8F087480000201B
:1057900098110020600000201CB51F4800210B4616
:1057A0008222CDE900101DA11E4800F017FD04461D
:1057B000012C02D101F070F80446012C17D100BF72
:1057C000502080F31188BFF34F8FBFF36F8F00BF5E
:1057D0004FF0FF3014490860012014490860002090
:1057E000134908601349086000F0A0F810E0601C3D
:1057F00008B1012000E0002050B900BF502080F324
:105800001188BFF34F8FBFF36F8F00BF00BFFEE75C
:10581000094800681CBD00007C00002049444C453C
:10582000000000009144000878000020640000207F
:105830005C00002014000020800000200248006866
:10584000401C014908607047840000202A48006815
:1058500018B10120294908604CE000202749086060
:1058600027480068274908600846006826490968F3
:1058700088420BD92549096801F15400496D214A34
:105880001268214B1B68D21A114401601D48006840
:105890001D4908601E480068B0FA80F0C0F11F0181
:1058A00001EB81001B4A52F8200008B1012000E002
:1058B000002050B900BF502080F31188BFF34F8FF4
:1058C000BFF36F8F00BF00BFFEE701EB8102114BFA
:1058D00003EB820042685268426000F108024368AC
:1058E000934202D14268526842604268D268074BD4
:1058F0001A6000BF70470000840000206C00002088
:10590000140000208C0000208800002048000020A7
:10591000600000209811002010B5012000F0E8F888
:105920000149086010BD0000100000201CB55C4853
:1059300000685C49884201D0012000E0002050B995
:1059400000BF502080F31188BFF34F8FBFF36F8FDC
:1059500000BF00BFFEE7524800685249491E884216
:1059600001D0012000E0002050B900BF502080F39A
:105970001188BFF34F8FBFF36F8F00BF00BFFEE7EB
:105980004949084600780190FF200A4610700846F1
:10599000007800909DF8000000F0F0009DF80020D5
:1059A000904201D1012000E0002050B900BF5020FA
:1059B00080F31188BFF34F8FBFF36F8F00BF00BF1D
:1059C000FEE79DF8000000F05000384A10700720F4
:1059D000374A106009E036480068401E344A1060BB
:1059E0009DF800004006000E00909DF8000000F0B9
:1059F00080008028EFD02E480068C0F107000428FE
:105A000001D1012000E0002050B900BF502080F3F8
:105A10001188BFF34F8FBFF36F8F00BF00BFFEE74A
:105A200023480068C0F10700042801D1012000E0EC
:105A3000002050B900BF502080F31188BFF34F8F72
:105A4000BFF36F8F00BF00BFFEE719480068000278
:105A5000174A10601046008800F4E0601060124A97
:105A6000019810700E482030006840F470000C4916
:105A7000203108600846006840F070400860FFF779
:105A80007BFB00200B490860FAF748FC0A480068D5
:105A900040F0404008490860FAF72CFC00201CBD8B
:105AA00000ED00E071C20F4100E400E0A80000201A
:105AB000AC000020A400002034EF00E010B500BFCF
:105AC000502080F31188BFF34F8FBFF36F8F00BF5B
:105AD00000F0CAFB18B14FF080500449086000BFC5
