:020000040800F2
:10000000E0EE0020D50300087D36000833360008F6
:1000100079360008012C0008334200080000000077
:1000200000000000000000000000000015030008B0
:10003000113400080000000071030008F93C0008BA
:10004000EF030008EF030008EF030008EF030008C8
:10005000EF030008EF030008EF030008EF030008B8
:10006000EF030008EF030008EF030008EF030008A8
:10007000EF030008EF030008EF030008EF03000898
:10008000EF030008EF030008EF030008EF03000888
:10009000EF030008EF030008EF030008EF03000878
:1000A000EF030008EF030008EF030008EF03000868
:1000B000713D0008EF030008EF030008EF0300089C
:1000C000EF030008EF030008EF030008EF03000848
:1000D000EF03000815400008EF030008EF030008D5
:1000E000EF030008EF030008EF030008EF03000828
:1000F000EF030008EF030008EF030008EF03000818
:10010000EF030008EF030008D93D0008EF030008E3
:10011000EF030008EF030008EF030008EF030008F7
:1001200091300008EF030008EF030008EF03000818
:10013000EF030008EF030008EF030008EF030008D7
:10014000EF030008EF030008EF030008EF030008C7
:10015000EF030008EF030008EF030008EF030008B7
:10016000EF030008EF030008EF030008EF030008A7
:10017000EF030008EF030008EF030008EF03000897
:10018000EF030008EF03000800F002F800F0B2F8F7
:100190000AA090E8000C82448344AAF10107DA45E2
:1001A00001D100F0A7F8AFF2090EBAE80F0013F082
:1001B000010F18BFFB1A43F001031847E0180100B4
:1001C000001901000A444FF0000C10F8013B13F035
:1001D000070408BF10F8014B1D1108BF10F8015BA0
:1001E000641E05D010F8016B641E01F8016BF9D193
:1001F00013F0080F1EBF10F8014BAD1C0C1B09D1EA
:100200006D1E58BF01F801CBFAD505E014F8016B5B
:1002100001F8016B6D1EF9D59142D6D370470000ED
:100220000023002400250026103A28BF78C1FBD8FF
:10023000520728BF30C148BF0B6070476E2901F0DC
:10024000B880702901F02B82662908F0E1866529C3
:1002500008F0DE86672908F0DB86612908F0DA8677
:1002600003681B0A28BF41F08001692900F0548609
:10027000642900F05186752900F04E866F2901F03F
:10028000B881782901F0F781E92901F05381E42947
:1002900001F05081F52901F04D81EF2901F0B58180
:1002A000F82901F0F6810368DB0928BF41F08001DD
:1002B000632901F0C280732901F0C780E32901F0AE
:1002C0002986F32901F02E86002070471FB508F01B
:1002D0009AFE01F07DFE04000020002108F09EFB44
:1002E000401C60600020002108F082FBE0601FBD20
:1002F00010B510BD01F03EFE1146FFF7E7FF04F018
:10030000FFF801F01BFF03B4FFF7F2FF03BC04F09A
:100310005BF800002C4B19680868B0E8F04F80F3D8
:100320000988BFF36F8F4FF0000080F3118870478A
:100330000000000008480068006880F308884FF05B
:10034000000080F3148862B661B6BFF34F8FBFF32D
:100350006F8F00DF00BF00BF08ED00E0DFF80C008A
:10036000016841F470010160704700BF88ED00E052
:10037000EFF30980BFF36F8F134B1A681EF0100F55
:1003800008BF20ED108A20E9F04F106009B44FF04B
:10039000500080F31188BFF34F8FBFF36F8F06F0CB
:1003A00057FE4FF0000080F3118809BC19680868F7
:1003B000B0E8F04F1EF0100F08BFB0EC108A80F3C9
:1003C0000988BFF36F8F704748000020EFF3058066
:1003D000704700000948804709480047FEE7FEE7EC
:1003E000FEE7FEE7FEE7FEE7FEE7FEE7FEE7FEE7E5
:1003F00004480549054A064B70470000093D0008BE
:1004000089010008E0E80020E0EE0020E0EA00209A
:10041000E0EA00209FED3A0A5FEA920C53D000BF59
:10042000F0EC010A0B1DB0EC011A60EEA00A41EEDF
:10043000010AF5EEC00AF1EE10FAC6BFB1EEE01AFD
:1004400081ED001A81ED000AF0EC010A191DB0ECF3
:10045000011A60EEA00A41EE010AF5EEC00AF1EEC3
:1004600010FAC6BFB1EEE01A83ED001A83ED000A60
:10047000F0EC010A0B1DB0EC011A60EEA00A41EE8F
:10048000010AF5EEC00AF1EE10FAC6BFB1EEE01AAD
:1004900081ED001A81ED000AF0EC010A191DB0ECA3
:1004A000011A60EEA00A41EE010AF5EEC00AF1EE73
:1004B00010FAC6BFB1EEE01A83ED001A83ED000A10
:1004C000BCF1010CACD112F0030208BF704700BFB1
:1004D000F0EC010A0B46B0EC011A091D60EEA00A0F
:1004E00041EE010AF5EEC00AF1EE10FAC6BFB1EE18
:1004F000E01A83ED001A83ED000A521EE8D170471E
:10050000000000002DE9F04F8D082DED048B82B026
:100510000026AC463446019506EB0C0909EB0C0AA3
:100520000AEB0C0800EBC60700EBC90900EBCA0A8E
:1005300000EBC80897ED003AD9ED003ADAED006A11
:1005400098ED006A97ED010ADAED014A33EE265A7A
:1005500073EE860A99ED014AD8ED015A30EE241A5D
:100560004FEA440B02EBCB0E70EE644A74EE251A90
:1005700035EE200A9EED002ADEED012A87ED000A05
:1005800031EE210A73EEC63A34EE656A87ED010A50
:1005900035EE600A33EE663A71EE610A02EBC4078B
:1005A00074EEE35A33EE064A97ED005A73EEA41A3E
:1005B000D7ED014A33EE461A24EE056A0BEB040729
:1005C00025EE855A02EBC70760EE026A65EEA45A73
:1005D00024EE244A97ED003AD7ED013A60EEA24AA4
:1005E00020EE822A21EE037A20EE220A61EEA30A8F
:1005F00021EE833A61EE231A76EEA42A32EE400A07
:1006000036EE251A75EE443AC9ED002A77EE200A37
:1006100089ED010A73EE611A8AED001ACAED013AFA
:10062000C8ED000A761CC8ED011A1C446D1E7FF44B
:1006300073AF4FF6FF7404EA830B019B0093042B06
:100640007DD966464FEA9C0C4FF00008C146ACF1DC
:10065000010E00BF4FEA480303EB080402EBC3039B
:1006600002EBC80593ED003AD3ED014A02EBC40357
:1006700095ED005AD5ED015A93ED006A93ED014ACC
:10068000D8444B4603EB0C0404EB0C0707EB0C0AB5
:1006900000EBC30500EBC70700EBC40400EBCA0A7C
:1006A000D5ED003A97ED007AD4ED008A9AED008AF4
:1006B00095ED010AD4ED010AD7ED017ADAED011AC0
:1006C00033EEC72A70EE676A70EEE12A33EE877A5E
:1006D00078EE883A30EE270A38EEC81A70EEA11A82
:1006E00072EE227A32EE622A77EE232A70EE618A67
:1006F00036EEC18A30EE210A77EE630A31EE261A11
:10070000C5ED002A85ED010A28EE050A67EE856A27
:1007100028EE258A20EE837A20EEA49A68EE831ACA
:1007200062EE062A61EE063A62EE040A67EEA57AE8
:1007300068EEA48A21EE041A36EE882A00E027E04B
:1007400077EE286A71EEC91A30EE670AC4ED006AC6
:1007500032EE811AC4ED011A73EEE00A87ED002A29
:1007600087ED010A8AED001A3344CAED010A8B4273
:1007700088D309F10109F1457FF66CAF4FF6FF739D
:1007800003EA8B0B009B9B080093042B3FF659AFA9
:10079000DDF8041090ED000AD0ED042A90ED025A25
:1007A00090ED031AD0ED064A90ED073A30EE222A7A
:1007B000D0ED011AD0ED050A75EE243A31EE034A68
:1007C00030EE620A71EEA02A31EE431A32EE233A7D
:1007D00071EEE00A75EE641A72EE844A32EE632A14
:1007E00072EEC43A80ED003A70EE012AC0ED014A83
:1007F00030EEE14A80ED022A30EE410AC0ED033AC4
:1008000071EEA00AC0ED042A80ED054A80ED060ACB
:10081000C0ED070A2030491EBCD102B0BDEC048BEC
:10082000BDE8F08F2DE9F04F4FEA910A2DED048BD2
:1008300082B00024D446A046CDF804A004EB0C05F9
:1008400005EB0C0606EB0C0900EBC40700EBC60633
:1008500000EBC50500EBC909D7ED011AD6ED012A59
:1008600095ED006AD9ED006AD7ED005A96ED007A51
:10087000D5ED010A99ED011A36EE262A71EEA23A5B
:1008800035EE873A71EEE21A30EE815A70EEC12AE7
:100890004FEA480B02EBCB0E73EE020A9EED004AC4
:1008A000DEED014AC7ED000A73EE850A36EE666A90
:1008B00075EEC75AC7ED010A33EE422A02EBC807AC
:1008C00031EE861A33EEC53A71EEC61A97ED006A1C
:1008D00097ED015A75EEE20A0BEB080702EBC7072A
:1008E00075EEA22AD7ED005AD7ED013A60EE866A7E
:1008F00022EE047A62EEA57A23EE044A21EE066A1D
:1009000061EEA55A60EE850A23EE243A22EE242AEF
:1009100021EE051A61EEA31A62EEA32A76EE203AC2
:1009200037EE433A74EE020A36EEC11A85ED003A0C
:1009300077EEE11AC5ED010A35EEA22A86ED001A1E
:10094000C6ED013AC9ED001A641C89ED012A9844EC
:10095000BAF1010A7FF472AF4FF6FF7404EA830B19
:10096000019B0093042B7CD966464FEA9C0C4FF008
:100970000008C146ACF1010E4FEA480303EB08043E
:1009800002EBC30302EBC805D3ED003A93ED017A05
:1009900002EBC403D5ED006AD5ED015AD3ED004A50
:1009A00093ED013AD8444B4603EB0C0404EB0C07DF
:1009B00007EB0C0A00EBC30500EBC70700EBC40410
:1009C00000EBCA0A95ED012A97ED018A95ED001A10
:1009D000D4ED008AD4ED017A97ED009ADAED001A91
:1009E000DAED010A32EE485A71EE492A38EEE14A50
:1009F00032EE082A37EEA08A37EEE06A78EEA11AC6
:100A000031EE091A75EE048A72EEC67A72EE862A03
:100A100071EE610A31EE211A35EE444A32EE489AFF
:100A200085ED001A32EE081A28EEA66A27EEA65ABD
:100A300068EEA58A85ED011A20EEA31A69EE231A45
:100A400022EEA42A24EE248A67EEA57A29EE079ADC
:100A500060EE870A24EE034A62EE832A35EE685A76
:100A600000E027E036EE276A71EE497A31EEA01AEF
:100A700072EE440AC4ED007A84ED011A78EE221A6F
:100A800087ED005A87ED016ACAED000A3344CAEDCA
:100A9000011A8B4288D309F10109F1457FF66CAF49
:100AA0004FF6FF7303EA8B0B009B9B080093042B0C
:100AB0003FF65AAFDDF8041090ED003AD0ED044A4D
:100AC000D0ED032A90ED071A90ED024AD0ED061AF8
:100AD000D0ED013AD0ED050A33EE242A72EE815AA8
:100AE00033EE643A34EE215A73EEA04A73EEE03AE4
:100AF00032EEC11A74EE610A32EE454A72EE052AF0
:100B000074EEA51A34EEE55A73EE414A33EEA02A8C
:100B100033EE011A33EEE03A62EE805A61EE800A5B
:100B200064EE003A65EE002AC0ED005A64EE801AC9
:100B3000C0ED010A22EE002AC0ED023A21EE004A81
:100B4000C0ED032A23EE001AC0ED041A80ED052A39
:100B500080ED064A80ED071A2030491EACD102B064
:100B6000BDEC048BBDE8F08F70B504460D4680786F
:100B70002188A389626801280ED02846FFF7C2FCAD
:100B8000E078012818BF70BDE28921882846A36853
:100B9000BDE8704000F066B894ED040A2846FFF7FF
:100BA00041FEEDE710B40180234C446082704FF0A9
:100BB000000CC370B1F5807F20D004DC10292FD049
:100BC000402906D122E0B1F5806F0FD0B1F5805FEA
:100BD00004D04FF0FF3C10BC60467047012181817A
:100BE000C18116499FED160A816016E004218181BA
:100BF000C18114499FED140A81600EE010218181AA
:100C0000C18112499FED120A816006E04021818175
:100C1000C18110499FED100A816080ED040ADAE776
:100C20004FF480718181C1810C499FED0D0A816073
:100C300080ED040ACFE700009C9900089C91000811
:100C400000008039A29100080000803ABA910008A3
:100C50000000803B1A9200080000803C9A93000834
:100C60000000803D2DE9F0014E0801244FF0000CFA
:100C700004EB51076146A6F102082CE061452AD237
:100C800000EBCC0500EBC104D5ED000A94ED000AA1
:100C9000C4ED000A85ED000AD5ED010A94ED010AC4
:100CA000C4ED010A85ED010ACC1900EBC4050CEB7B
:100CB000070400EBC40495ED000AD4ED000AC5ED6D
:100CC000000A84ED000AD4ED010A95ED010AC5ED94
:100CD000010A84ED010A00EBC104B44400EBCC0C22
:100CE00094ED020ADCED000A891CC4ED020A8CEDC9
:100CF000000ADCED010A94ED030AC4ED030A8CED51
:100D0000010AB3F800C089B203EB42034145B5D9EB
:100D1000BDE8F00170472DE9F00701254C0805EB0F
:100D200051064FF0000C651E6146002D88BFA84695
:100D30002ED8BDE8F0077047614529D250F83150F0
:100D400050F83C7040F8317040F83C5000EBC1075F
:100D500000EBCC097D68D9F804A0C7F804A0C9F855
:100D600004508D190CEB060750F8359050F837A059
:100D700040F835A040F8379000EBC50500EBC707F9
:100D8000D5F80490D7F804A0C5F804A0C7F80490DB
:100D900000EBC105A444AF6850F83C90C5F808903A
:100DA00040F83C7000EBCC0CEF68DCF80490C5F820
:100DB0000C90CCF80470B3F800C0891C03EB42031C
:100DC0004145B9D3BDE8F00770472DE9F00F012484
:100DD0004D084FF0000C04EB5107012D9CBFBDE8FE
:100DE000F00F7047014600EB870400264FEA5508D4
:100DF00015E000BFBCEB460F11D950F82CA0D1F87C
:100E00000090C1F800A040F82C900CEB0709D4F832
:100E100000A050F829B0C4F800B040F829A0AC44B4
:100E2000D1F8049050F82CA0C1F804A040F82C9000
:100E3000B3F800C008310834761C03EB4203B8F164
:100E40000108D7D1BDE8F00F704770477CB51D464B
:100E500016460C00009001D02044401E074B7B44F6
:100E60002A4669460190304600F0BDFA05461CB19D
:100E70000020694600F0CAFA28467CBDB50500008E
:100E80000FB4044910B503AA029800F0E3FA10BCAD
:100E90005DF814FB3C0000200FB41CB5084B06AAFB
:100EA0007B4469460090059800F09DFA04460020B6
:100EB000694600F0ABFA20461CBC5DF814FB00004C
:100EC0006905000070B50C460546012A05D0287852
:100ED000800600D5EA69002302E0012305E05B1CDF
:100EE000934202D2E05C0028F9D1A869E618C01A42
:100EF000A861286A18442862284600F0C8F904E06E
:100F0000D5E9012114F8010B9047B442F8D32846E3
:100F100000F0D3F970BD00002DE9F0410646002431
:100F200010687529314616A510D000F0D7F90028B1
:100F300002DA404213A507E031688A0701D512A5FD
:100F400002E0490704D511A5012401E000F0CFF922
:100F500000210A2206F1240709E0B0FBF2FCB0FBF5
:100F6000F2F302FB1C00303078541846491C00286C
:100F7000F3D123462A463046BDE8F04100F0C0B91F
:100F8000000000002D0000002B00000020000000E9
:100F90002DE9F05F894604464FF0000ADFF874B18E
:100FA000FB44C0F820A02046E1688847002874D0A0
:100FB000252806D0D4E901219047206A401C2062F0
:100FC000F1E700265F462046E1688847202805466D
:100FD00007DB312D05D2781910F8200C08B1064333
:100FE000F1E7B00701D526F00406C4F81CA00027DD
:100FF000C4F818A02A2D09D0284603F0DEF938B32A
:1010000004EB8708303DC8F8185019E059F8041B64
:10101000204604EB87029161E1688847012F05466D
:1010200018D1E069002820DA26F020061DE0D8F863
:10103000180000EB800005EB40003038C8F81800BD
:101040002046E1688847054603F0B7F90028EED14D
:10105000012F0AD02E2D08D12046E16888477F1C39
:101060000546022F46F02006C4DBA069002803DAFB
:10107000404246F00106A061F00701D026F01006BC
:101080006C2D0BD0682D09D04C2D39D06A2D35D060
:10109000742D35D07A2D33D016E038E0E1682F4634
:1010A00020468847B842054609D16C2F26D04FF418
:1010B0008060E168064320468847054604E06C2FBF
:1010C0001AD04FF4807006430DB3A5F141001928E2
:1010D00002D8203546F400664A4629462046266056
:1010E0004E46FFF7ABF880B101280BD0F61D26F075
:1010F000070000F1080956E74020E4E78020D8E720
:101100000020D6E706F104094DE7284652E7206A99
:10111000BDE8F09FF809010040EA0103024630B53E
:101120009B0710D14FF0013400E008C208C91D1B15
:101130009D4315EAC41FF8D013F0FF0102F8011B0C
:101140000DD01B0AF8E711F8013B002B02F8013B18
:1011500005D011F8013B002B02F8013BF3D130BD63
:1011600010B5431C02E010F8011B71B18107FAD1E0
:101170004FF0013202C88C1A8C4314EAC211F9D024
:10118000C01A0A0603D0C01E10BDC01A10BD0A0442
:1011900001D0801E10BD0902FCD0401E10BD032AE4
:1011A00040F2308010F0030C00F0158011F8013B84
:1011B000BCF1020F624498BF11F801CB00F8013B6B
:1011C00038BF11F8013BA2F1040298BF00F801CB2F
:1011D00038BF00F8013B11F0030300F06B82083ABE
:1011E000C0F0088051F8043B083A51F804CBA0E85D
:1011F0000810F5E7121D5CBF51F8043B40F8043BB2
:10120000AFF30080D20724BF11F8013B11F801CBE6
:1012100048BF11F8012B24BF00F8013B00F801CBB7
:1012200048BF00F8012B704702F0FF0343EA032296
:1012300042EA024200F072BA4FF0000200B51346D3
:1012400094469646203922BFA0E80C50A0E80C50E6
:10125000B1F12001BFF4F7AF090728BFA0E80C5097
:1012600048BF0CC05DF804EB890028BF40F8042B90
:1012700008BF704748BF20F8022B11F0804F18BFFD
:1012800000F8012B7047704770477047704770B582
:10129000044685690068C10601D5302600E0202695
:1012A000C00707D070BDD4E9012130469047206ABD
:1012B000401C20626D1EF6D570BD70B50446856970
:1012C0000078C00707D170BDD4E9012120209047E4
:1012D000206A401C20626D1EF6D570BD09684A0563
:1012E00001D540B27047C905FCD500B27047096806
:1012F0004A0501D5C0B27047C905FCD580B2704718
:101300002DE9F0470D4699469246044600F124081F
:101310000168880604D5E06921F01001216000E031
:101320000120A84201DD471B00E00027A1697A19CE
:1013300002EB0900081AA0612078C00602D42046FA
:10134000FFF7A5FF002608E0D4E901211AF80600FE
:101350009047206A401C761C20624E45F4DB2078C2
:10136000C0060AD52046FFF792FF06E0D4E9012126
:1013700030209047206A401C2062381EA7F10107E8
:10138000F4DC07E0D4E9012118F805009047206A51
:10139000401C2062281EA5F10105F3DC2046FFF762
:1013A0008CFF2078000602D50220BDE8F0870120DE
:1013B000FBE711680268006A530501D508700AE06E
:1013C000D30501D5088006E0130603D5C217C1E98D
:1013D000000200E0086001207047000001694A1C1B
:1013E00002610878704700B58FB0CDE90131002166
:1013F000059105497944CDE9031011466846FFF788
:10140000C7FD0FB000BD0000E5FFFFFF0A6802F84E
:10141000010B0A607047D1E900239A4202D2531CA3
:101420000B601070704710B5436913B1AFF30080C3
:1014300001E0FFF747FD012010BD127800F1240103
:101440000A7000224A700122EDE711684FF0FF3266
:10145000E9E70000074B70B50D467B44FFF7C3FF7B
:101460000446284600F062FD10B14FF0FF3070BD19
:10147000204670BD573000002DE9FF5F15468A46B3
:101480000446DFF8AC80F8440027D8E900103E4657
:10149000CDE9001010E03AF816106A4602A800F0F4
:1014A00049FD411C07D02178890603D5E269391826
:1014B00091420DD80744761C2078800602D5E06959
:1014C000B84205DDAE42E6DB3AF816000028E2D16C
:1014D000A069C01BA0612046FFF7D9FED8E9001023
:1014E000CDE90010002017E03AF818106A4602A86B
:1014F00000F020FDB0F1FF3F81460BD000250DF13B
:10150000080B05E0D4E901211BF8050090476D1C8C
:101510004D45F7D308F10100B0428046E4DB206A74
:10152000384420622046FFF7C8FEBDE8FF9F000058
:10153000260501002DE9F0418046D21D22F0070268
:101540000025D2E90002F52915A614D0011E72F17A
:10155000000106DA0023D0EB030063EB020211A6C0
:1015600008E0D8F800108B0701D50FA602E0490764
:1015700001D50EA601251146002408F1240704E038
:1015800000F0ECF830323A55641C50EA0102F7D111
:101590002B46324621464046BDE8F041FFF7B0BE3B
:1015A000000000002D0000002B00000020000000C3
:1015B00030B4002100F1240408E002F00705D2084D
:1015C000303542EA4372DB086554491C52EA030590
:1015D000F3D10468002310A2250707D5A40600D480
:1015E00021B1C46901230DA2641EC46130BCFFF7A0
:1015F00087BE10B5044621461068FFF778FE024604
:101600002046BDE810400023D2E7D21D22F007019A
:10161000D1E90023CCE7000000000000300000000A
:10162000F0B40D460188090502D5214C7C4402E046
:101630001F4C7C440E34002100F1240608E002F027
:101640000F071209E75D42EA03721B097754491C30
:1016500052EA0307F3D102780023120704D5702D54
:1016600006D009B1022311342246F0BCFFF748BE70
:1016700001231034F8E770B504460D462146106882
:10168000FFF735FE024629462046BDE8704000239C
:10169000C6E7D21D22F00703D3E90023C0E70368A1
:1016A000126843F0200303600823C3610023B7E7F7
:1016B0008803010010B5203AC0F00B80B1E8185043
:1016C000203AA0E81850B1E81850A0E81850BFF42C
:1016D000F5AF5FEA027C24BFB1E81850A0E81850CB
:1016E00044BF18C918C0BDE810405FEA827C24BF1F
:1016F00051F8043B40F8043B08BF7047D20728BFAD
:1017000031F8023B48BF11F8012B28BF20F8023BFB
:1017100048BF00F8012B70474FF000020429C0F0C9
:10172000128010F0030C3FF489ADCCF1040CBCF135
:10173000020F18BF00F8012BA8BF20F8022BA1EB65
:101740000C01FFF77BBD5FEAC17C24BF00F8012BD1
:1017500000F8012B48BF00F8012B704730B5B0F1FD
:101760000A024FEA900E71F100034EEA817EB0EB5F
:101770000E0061EB91014FEA101E4EEA017E10EB64
:101780000E0041EB11114FEA102E4EEA016E10EBE4
:101790000E0041EB11214FEA104E4EEA014E10EBC4
:1017A0000E0041EB1141401841F100014FEAD00019
:1017B00040EA41704FEAD10110EB80054FEA810405
:1017C00044EA907444EB01046D1944EB0404521B89
:1017D000A3414FF0000348BF0A3200D530BD401C82
:1017E00041F1000130BD70472DE9FF4F0C461E4608
:1017F0004FF0FF378BB0D2E90001DDF860800A902E
:101800008A46C1F30A5505B93D46002108464FF006
:101810000000BAF1000F00F4400005DA00EB800090
:101820004FF4400101EA50004FEA9059B9F1010F1D
:1018300000DDB9460A9850EA4A000ED044F610502E
:10184000A5F2FF3545432F14B8F1000F1ED07542A5
:10185000291E1EDDC9F100021CE0B8F1010F4FF096
:10186000000001D0302103E0F24305E02154401C88
:10187000B042FBDB30460022002121540B99C1F815
:101880000880C1E900200FB0BDE8F08FBD1B6D1CC2
:10189000DEE74A4600DA694206A800F0DDFB06AB47
:1018A00093E8070003AB83E8070050460A9900F06D
:1018B00093FC8DE80700A0F500501F3800900398B6
:1018C000002D0ADD42F21F014A460844002303A905
:1018D0000390684600F0FCFE09E0A0F500504A467F
:1018E0001F38002303A90390684600F006FF8DE827
:1018F00007000004000C03D04FF0FF30410800E067
:101900001046B8F1000F03D00022009215461EE0E9
:10191000751E05D4FFF722FF303262556D1EF9D5D2
:10192000B3460122084302D000227F1C04E0207845
:10193000302801D100227F1E002A099784D01DE0A3
:10194000112D07DAFFF70AFF303262556D1C50EA9D
:101950000102F5D1084302D00098C8B10EE0002181
:10196000681E05E0235C625C63542254401E491CDF
:101970008142F7DBAB46A81B401E0990002004F80B
:101980000B000B98099AC0F80880C0E9002B7AE791
:1019900011264FF0000857E72DE9F04F884604461E
:1019A000D21D22F0070191B0D1E90001CDE90A0171
:1019B00002F0E5FC02460B98C00F01D02D2007E095
:1019C0002068810701D52B2002E0202101EAC00018
:1019D000032A099001D0072A05DB03464146204629
:1019E00000F0FAFA0BE12078800601D5E06900E00A
:1019F0000620B8F1650F814606D0B8F1660F18D001
:101A0000B8F1670F70D131E00020B9F1110F0090EB
:101A100001DB112301E009F101030AAA01A90CA8C5
:101A2000FFF7E2FEDDE90C70002609F101058346AF
:101A300047E001204B4600904FF000470AAA01A959
:101A40000CA8FFF7D1FEDDE90DB00C995D4600262C
:101A500010B909F101000D18B9EB050003D4C0F16C
:101A6000FF3609F10105A5EB09002BE0B9F1010FE3
:101A700001DA4FF001090020B9F1110F009048463A
:101A800001DD112300E003460AAA01A90CA8FFF713
:101A9000ABFEDDE90C704D4600268346207800073A
:101AA0000AD4AB4500DA5D4601A8012D04DD4119D9
:101AB00011F8011C302907D04F4502DA17F1040F45
:101AC00004DA012082460FE06D1EEEE7002F02DCF3
:101AD000ED1B3E4403E0781CA84200DD7D1CB81BD2
:101AE00000F1010A4FF000472078000703D4AA450F
:101AF00001DB4FF0FF3A0021B7F1004F0DF1430831
:101B00008DF8431024D002202B23002F01DA7F42CE
:101B10002D230A21021EA0F1010000DC5FB197FB1A
:101B2000F1FC97FBF1F201FB1C7C17460CF1300C29
:101B300008F801CDEEE7A8F101000370218809053E
:101B400001D5452100E06521A0F1010800F8011C44
:101B500009980FA9A1EB0807FF1D00B10120411949
:101B600001EBEA70A1693844081A401EA061207890
:101B7000C00602D42046FFF78AFB099828B1D4E9B1
:101B800001219047206A401C20622078C00622D59F
:101B90002046FFF77CFB1EE0002E04DBB34502DD90
:101BA00001A8805D00E03020D4E901219047206A3F
:101BB000401C2062761CAAF101005FEA000A0AD1EB
:101BC00000F006FAC0680168405CD4E90121904742
:101BD000206A401C2062281EA5F10105DCDC07E01C
:101BE000D4E9012118F8010B9047206A401C2062BB
:101BF000381EA7F10107F3DC2046FFF75EFB032048
:101C000011B041E62DE9F04F04460D46D21D22F0F9
:101C1000070089B0D0E900974846394602F0AFFB8B
:101C20000246F80F01D02D2307E02068810701D577
:101C30002B2302E0202101EAC0038DF820300BB1F4
:101C4000012000E00020032A824601D0072A04DB9D
:101C50002946204600F0C0F93FE12078800601D4F3
:101C60000D2500E0E569C7F30A560D2D49DA00217C
:101C70004FEA175B08464FF00000002F00F44000C9
:101C800007DA00EB80004FF4400100EBD07001EA6E
:101C900060008115012901DD4FF0FF3100224FEA7C
:101CA000850CBCF1180F06D31346ACF118004FF0A9
:101CB0008052C24003E04FF4801323FA0CF30CF17E
:101CC0000C0CBCF1200F04D3ACF1200C09FA0CF081
:101CD00001E007FA0CF000294FF0004801DD18B9C7
:101CE0000FE00ED140450CD319EB02095F4121B939
:101CF000404502D19F4329EA0209BBEB175F00D0A0
:101D0000761C2088000502D57B48784402E07A489A
:101D10007844193808AA302302F80A30037C0AF103
:101D20000101002E0AF1020A53546A4602DC4FF008
:101D3000300101E04FF031014FF001088DF8001043
:101D400002D0A6F2FF3603E059EA470100D06B4EFD
:101D5000002D02DC2178090704D54FF002082E215E
:101D60008DF80110C44600210BE0C7F303433F0187
:101D7000C35C491C6D1E02F80830052908F10108F2
:101D800001DA002DF1DC00210CE000EB1973491C95
:101D90001B786D1E082902F808304FEA091908F16E
:101DA000010801DA002DF0DC21688B0602D516E06F
:101DB000A8F10108E04505DD02EB080313F8013C3A
:101DC000302BF5D0B8F1000F09DD02EB080313F852
:101DD000013C2E2B03D1090701D4A8F10108002DE5
:101DE00005DD3E2102F808106D1E08F10108407C57
:101DF000002E02F8080008F1010804DA2D207642CE
:101E000002F8080002E02B2002F808000A214FF433
:101E10007A70864208F101080BDB96FBF0F3303351
:101E200002F8083096FBF0F308F1010800FB136696
:101E300001E0642E0CDB642096FBF0F3303302F8F3
:101E4000083096FBF0F308F1010800FB136601E08F
:101E50000A2E06DB96FBF1F0303002F8080008F19C
:101E6000010896FBF1F001FB1060303002F8080029
:101E7000A16908F1010808EB050202EB0A00081A43
:101E8000A0612078C00602D42046FFF700FA216A3C
:101E900008AE01EB0A00206204E0D4E9012116F843
:101EA000010B9047BAF1010AF7D22078C00602D59B
:101EB0002046FFF7ECF96E4609E016F8010B3E28C4
:101EC0000FD0D4E901219047206A401C2062B8F16C
:101ED0000108F2D22046FFF7F0F909B00320BDE86F
:101EE000F08F206A2844206203E0D4E901213020E9
:101EF00090476D1EEBD3F8E7E5FC000002FCFFFF06
:101F000010B5436913B1AFF3008001E0FFF7B4FAF5
:101F1000012010BD128800F1240182840022C284B5
:101F20000122EDE711684FF0FF32E9E7007B00F096
:101F30008000704770B516460C46054600F040F824
:101F4000036893F80101012806D0FF2C0FD8185D13
:101F500068B101202C7070BDD3F8070132462146CC
:101F600003F2071303442846BDE8704018474FF0BA
:101F7000FF3070BD754600F0EBF8AE4605006946CF
:101F8000534620F00700854618B020B5FEF730FA1A
:101F9000BDE820404FF000064FF000074FF000086A
:101FA0004FF0000B21F00701AC46ACE8C009ACE8EB
:101FB000C009ACE8C009ACE8C0098D467047000014
:101FC00010B500F005F8001D10BD00BF516A0000FB
:101FD00000487047A0E800202DE9F0411F46044664
:101FE00003260168072A01F4006004DB08B116A586
:101FF00005E016A503E008B115A500E015A521F040
:1020000010002060A069C01EA0610FB1401EA06139
:102010002046FFF73CF94FB1D4E9012138469047FB
:10202000206A401C2062C01C206206E0206AFAE799
:10203000D4E9012115F8010B9047761EF8D220460D
:10204000FFF73BF9BDE8F0814E414E006E616E0036
:10205000494E4600696E66002DE9F04781461646F6
:102060008AB0354878440DC88DE80D003248784470
:10207000801C03AC0DC884E80D0041F69B30084479
:10208000372190FBF1F290FBF1F5A5F1800501FB02
:1020900012041B3C02D56442012000E00020DFF85E
:1020A00098A080460027FA44AAF1BE0A0EE0E00795
:1020B0000AD03246684607EB470101230AEB81014B
:1020C00000F01BFB8DE8070064107F1C002CEED194
:1020D000194F7F44AE3F19E0E80715D007EB041015
:1020E0000DF1180A90E80E008AE80E00C068F04270
:1020F00001D1981908903246012306A903A800F0DF
:10210000FCFA03AB83E807006D10641C002DE3D1DB
:102110004FF0010332466946B8F1000F03A802D020
:1021200000F0D6FA01E000F0E8FAC9E90001C9F8C8
:1021300008200AB0BDE8F0871CFA000010B504467C
:10214000AFF300802046BDE81040FEF7DCB8000089
:102150000048704780E800204FF0013C50F8042B05
:1021600051F8043B9A4221D1A2EB0C03934313EAAA
:10217000CC1317D150F8042B51F8043B9A4215D1D7
:10218000A2EB0C03934313EACC130BD150F8042BAE
:1021900051F8043B9A4209D1A2EB0C03934313EA92
:1021A000CC13DBD04FF00000704700BFD01A01BA4B
:1021B000B1FA81F101F0180122FA01F0CB40C1F12E
:1021C0002001DBB2C0B2C01A2CFA01F3D11A91433C
:1021D00011EAC311E6D170475FEA400C08BF91F0E5
:1021E000000F4FEA8C234FEAC12243EA51514FEAD4
:1021F0001C5018BF00F5F0404FEA300018BF41F006
:1022000000415FEA6C5C00F02980BCF1FF3F08BF31
:1022100040F080407047130C06BF12044FF0100CC2
:102220004FF0000C130E04BF12020CF1080C130F38
:1022300004BF12010CF1040C930F04BF92000CF1C7
:10224000020CD30F04BF52000CF1010C11464FF0E9
:102250000002A0F11F00A0EB0C00704711F0004F2E
:1022600008BF704731F000413FF4D5AF0B0C06BFFB
:1022700009044FF0100C4FF0000C0B0E04BF0902C4
:102280000CF1080C0B0F04BF09010CF1040C8B0FAF
:1022900004BF89000CF1020CCB0F04BF49000CF104
:1022A000010CCCF12003A0EB0C0022FA03F302FA9C
:1022B0000CF241EA030100F10100704720F07F4C6D
:1022C00080EA030023F07F47ACEB070303F57C5360
:1022D00000F0004003F1FF032DE980494FEA154B60
:1022E00009B44FEA144325EA0B4E24EA03480FF2DF
:1022F000042606EB132749083E785FEA320203FB07
:102300000667C7F5000707FB06F64FEA54374FEAA2
:10231000D64606F1020607FB066CCCF1005C4FEADC
:102320001C472CEA074C07FB06F40CFB06F504EBF4
:1023300015464FEA961634BF00204FF000404FEA92
:10234000D13706FB07FC4FEA1C4C0CFB0BF7D21BEA
:1023500003FB0CF761EB07010CFB0EF7B0EB07403A
:1023600072EB17420CFB08F734BFA2EB0742B2EB4B
:10237000074261EB17414FEA0C444FEA910706FB15
:1023800007FC4FEA1C4C0CFB0BF7B0EBC74072EBA1
:10239000573203FB0CF734BFA2EBC742B2EBC74284
:1023A00061EB57310CFB0EF7B0EBC70072EB5772C5
:1023B0000CFB08F734BFA2EBC702B2EBC70261EB1C
:1023C0005771039F4FEA816141EA921104EBCC04FB
:1023D0004FEAD1374FEA826206FB07FC42EA9012CD
:1023E0004FEA80604FEA1C4C0CFB0BF7D21B03FB3F
:1023F0000CF761EB07010CFB0EF7B0EB074072EB3B
:1024000017420CFB08F734BFA2EB0742B2EB0742BE
:1024100061EB17414FEA8C554FEA910704EB9C247E
:1024200006FB07FC4FEA1C4C0CFB0BF7B0EBC7405C
:1024300072EB573203FB0CF734BFA2EBC742B2EB8F
:10244000C74261EB57310CFB0EF7B0EBC70072EBE4
:1024500057720CFB08F734BFA2EBC702B2EBC702FE
:1024600061EB577115EB4C254FEA816141EA9211FE
:102470004FEA82624FEAD13742EA901206FB07FC2C
:1024800044F100044FEA80604FEA1C4C0CFB0BF750
:10249000D21B03FB0CF761EB07010CFB0EF7B0EB53
:1024A000074072EB17420CFB08F734BFA2EB074260
:1024B000B2EB074261EB174115EB1C154FEA813176
:1024C00041EA92414FEA823242EA90424FEA80303A
:1024D0004FEA0C7644F1000448EA03434EEA0B4805
:1024E0004FF0000EB2EB080C71EB030724BF6246FD
:1024F00039464EEB0E0E4FF0000B00185241494189
:102500004BEB0B0BB2EB080C71EB03077BF1000BF1
:1025100024BF624639464EEB0E0E4FF0000B0018FA
:10252000524149414BEB0B0BB2EB080C71EB03072B
:102530007BF1000B24BF624639464EEB0E0E51EA8A
:10254000020718BF46F0010616EB0E7655F10002A1
:1025500054F1000103D5BDE88901BDE80088BDE85C
:102560008901BDE80048B619524141EB0101A3F1D0
:102570000103704780807F7E7D7C7B7A79787776D7
:1025800076757473727171706F6E6E6D6C6C6B6A50
:102590006A696868676666656464636362616160EE
:1025A000605F5F5E5E5D5D5C5C5B5B5A5A5959586B
:1025B00058575756565555555454535352525251D5
:1025C000515050504F4F4F4E4E4D4D4D4C4C4C4B2B
:1025D0004B4B4A4A4A494949484848474747474672
:1025E00046464545454444444443434343424242AE
:1025F00042414141002B9C4630D477002BD01CB582
:102600004FEA370703B44FF010004FF01001BAF152
:10261000000F06D0BCF1000FDCBF40F0080040F016
:1026200008014FF000000FBCBDE810400BF1010B9A
:10263000BBF1010F08BF5FEA170722BF12F10102C9
:1026400011F101014FF0004143F1000300F000409F
:1026500043EA00007047F9D35708D0E746EA064638
:1026600013F1400F4FEA16461FDD13F1200FDFBFB5
:1026700016430A46002120335B42BED0C3F1200737
:1026800046EA064602FA07F74FEA164646EA070602
:10269000C3F1200722FA03F201FA07F721FA03F146
:1026A0004FF0000342EA0702A7E746EA020646EABD
:1026B00006464FEA164646EA0106BCBF46EA06460B
:1026C000360C4FF000034FF000024FF0000194E78A
:1026D0002DE9804C9A46934670B491E8380007C8BB
:1026E00031EA400C48BF34EA430C03D5FFF7E6FD5E
:1026F000FFF780FFF0BCBDE8008C2DE9804C9A46C6
:10270000934670B491E8380007C810F0804F08BFB6
:1027100013F0804F03D100F005F8FFF76BFFF0BC1A
:10272000BDE8008C20F07F4780EA030023F07F4C57
:1027300007EB0C03A3F57C5300F00040A3F1FE036C
:1027400092F0000F00F0B38095F0000F00F077805A
:102750002DE901494FEA11404FEA144621EA0048A9
:1027600000FB06FC24EA064708FB06F607FB08F810
:1027700000FB07F718EB06484CEB164C4FEA124BE0
:1027800018EB07484FEA15464CEB174022EA0B4E70
:102790000BFB06FC25EA06470EFB06F607FB0EFEC2
:1027A0000BFB07F71EEB064E4CEB164C4FF00006EA
:1027B0001EEB074E4CEB174B18EB0B0840F10000DB
:1027C00018EB0E0B58EB000840F100008F1A4FF089
:1027D00000013CBFC943661B14BFB5EB040C0021CC
:1027E0003CBFC943F61B4FEA17444EEA8E0E27EA58
:1027F00004454FEA1C4704FB07622CEA074C05FB23
:1028000007F70CFB05F604FB0CFC16EB074642EB46
:10281000174216EB0C4642EB1C421BEB060658EB2C
:102820000202414146EA9E0601D5BDE80189B6197A
:10283000524141EB0101A3F10103BDE801894FEAD7
:1028400014454FEA114724EA054621EA074C05FBE7
:1028500007F406FB07F70CFB06F105FB0CFC11EB7C
:10286000074144EB17444FEA124711EB0C4144EB8C
:102870001C4422EA074C05FB07F206FB07F70CFB9A
:1028800006F605FB0CFC16EB074642EB174216EB6F
:102890000C4642EB1C456A1854F1000148BF7047D2
:1028A000B619524141EB0101A3F10103704795F0C4
:1028B000000F37D04FEA11424FEA144721EA02468F
:1028C00024EA074C02FB07F106FB07F70CFB06F4B2
:1028D00002FB0CFC14EB074441EB17414FEA154790
:1028E00014EB0C4441EB1C4125EA074C02FB07F5B5
:1028F00006FB07F70CFB06F602FB0CFC16EB074683
:1029000045EB174516EB0C4645EB1C42121951F1ED
:10291000000148BF7047B619524141EB0101A3F1D4
:10292000010370474FEA14454FEA114724EA054670
:1029300021EA074C05FB07F106FB07F70CFB06F243
:102940004FF0000605FB0CFC12EB074241EB174170
:1029500012EB0C4251EB1C4148BF7047921841EBFF
:102960000101A3F10103704721B1826842F0010225
:10297000826003E0826822F00102826070470000FA
:102980000021084A1168084A1140D0E900231A437F
:1029900083681A43C3681A431143044AC2F80413F4
:1029A0007047000004230140E030FCFF002001409C
:1029B00000B58BB00121880200F0E6FE01218802FB
:1029C00000F0F2FE00214FF4806000F0EDFE0020E8
:1029D0000190049003904FF48030029001A8FFF71B
:1029E000CFFF002005908DF818008DF819004FF0EA
:1029F000805007904FF0C06008900020099001209F
:102A00008DF8280005A90B4800F040F801231A466C
:102A10000021084800F074F80121064800F017F87A
:102A20000121044800F008F801210248FFF79CFF4B
:102A30000BB000BD0022014021B1826842F48072D7
:102A4000826003E0826822F480728260704721B164
:102A5000826842F40072826003E0826822F40072AD
:102A6000826070471CB50121084600F06DFE012010
:102A7000009003208DF8040000208DF807006946BF
:102A8000014800F069FD1CBD0000024030B502465F
:102A9000002000235068104C20400D790C6844EA57
:102AA00005242043506090680C4C2040D1E9035429
:102AB0002C438D682C434D7944EA450420439060B3
:102AC000D06A20F470000C7D641EE4B2234340EA17
:102AD0000350D06230BD0000FFFEFFFCFDF7FFC0D9
:102AE00010B5FFF7BFFFFFF763FF044800F006FBD8
:102AF00000F0C5FD01F047F910BD00001064024070
:102B0000F0B504460D4600200021092D11DDE068D6
:102B1000A5F10A0606EB4607072606FA07F18843E1
:102B2000A5F10A0606EB460603FA06F10843E06043
:102B30000CE0206905EB4507072606FA07F18843F4
:102B400005EB450603FA06F108432061072A0FDA70
:102B5000606B561E06EB86071F2606FA07F18843B0
:102B6000561E06EB860605FA06F10843606322E06E
:102B70000D2A0FDA206BD61F06EB86071F2606FAF2
:102B800007F18843D61F06EB860605FA06F10843CF
:102B9000206310E0E06AA2F10D0606EB86071F260F
:102BA00006FA07F18843A2F10D0606EB860605FA40
:102BB00006F10843E062F0BD0FB400B5B5B037A828
:102BC0000190C92102A8019B369AFEF73FF9002027
:102BD0000190411E0848006805F0E0F802A907A02E
:102BE000FEF74EF900231A4619460348006804F020
:102BF0009FFD35B05DF814FB100000202573000028
:102C000000BFFEE7E6B041E04FF4C87102A8FEF74E
:102C100013FB02A804F012F81D4B7D221DA11FA07A
:102C2000FFF7CAFF1A4B7E221AA12CA0FFF7C4FFA0
:102C300002A8174B7F2217A1009038A0FFF7BCFF16
:102C4000134B802213A115A0FFF7B6FF4FF4C871F4
:102C500002A8FEF7F1FA02A803F082FF0C4B8522CE
:102C60000CA132A0FFF7A8FF02A8094B862209A1F8
:102C700000902AA0FFF7A0FF054B872205A138A0EE
:102C8000FFF79AFF44F6206003F032FEBCE7000035
:102C9000189000086D61696E2E6300005B25733A21
:102CA000253035645D5B25735D2D2D2D2D2D2D2D4E
:102CB0002D2D2D2D2D2D2D2D2D2D2D2D2D2D2D2D44
:102CC0002D2D2D2D2D2D2D2D2D2D2D2D2D2D2D2D34
:102CD0002D2D2D2D2D2D0D0A000000005B25733AA2
:102CE000253035645D5B25735DC8CECEF1C3FB2016
:102CF0002020202020C8CECEF1D7B4CCAC20D3C524
:102D0000CFC8BCB6202020CAA3D3E0D5BB20C8CEF4
:102D1000CEF1D0F2BAC50D0A000000005B25733A6F
:102D2000253035645D5B25735D2573005B25733A43
:102D3000253035645D5B25735DC8CECEF1C3FB20C5
:102D4000202020202020D4CBD0D0BCC6CAFD2020FB
:102D500020202020202020C0FBD3C3C2CA0D0A009F
:102D60005B25733A253035645D5B25735D2D2D2D14
:102D70002D2D2D2D2D2D2D2D2D2D2D2D2D2D2D2D83
:102D80002D2D2D2D2D2D2D2D2D2D2D2D2D2D2D2D73
:102D90002D2D2D2D2D2D2D2D2D2D0D0A0A00000050
:102DA00030B52DED028B83B04D4800F0B1FAC0F57F
:102DB000FA604C49088008460088B0F5806F2ADA2E
:102DC00008460088C0F5806047490880002508460D
:102DD0000088C0F5FA6084B209E0444830F8140075
:102DE000434921F81500601C84B2681C85B2B4F513
:102DF000FA6FF2DB002409E03C4830F814003C494B
:102E000021F81500601C84B2681C85B23548008822
:102E10008442F1DB14E0002532480088A0F5806090
:102E200084B209E0314830F81400314921F8150026
:102E3000601C84B2681C85B22A4800888442F1DB99
:102E400000202C4908804FF4805048800020888062
:102E500000241EE0264830F81400264909888842DC
:102E600003DD234830F8140001E02248008821499E
:102E700008801F4830F814004988884203DA1C484B
:102E800030F8140001E01B4840881A494880601C53
:102E900084B2B4F5806FDDDB164800881549498897
:102EA000401A144988800846808800EE100AB8EE5F
:102EB000400ADFED110A20EE200A10EE101A084633
:102EC00006F030F841EC180B8DED008B0B4B7422A3
:102ED0000BA111A0FFF770FE03B0BDEC028B30BD5B
:102EE00010640240D0000020D20000203C020020EC
:102EF000288D0020D80000206740533A88910008B0
:102F00002E2E5C5354656D57696E5F5461736B5C14
:102F100064736F2E630000005B25733A25303564BF
:102F20005D5B25735D57617665506172616D732ECF
:102F3000505056616C7565203D2025660D0A0000D5
:102F400000B595B00121084600F0FEFB01214807BD
:102F500000F00AFC0121480500F0F6FB1020139058
:102F600003208DF8500000208DF8530013A91F484E
:102F700000F0F2FA04200F900020109012900FA998
:102F800000F066F81A4800F00DF94FF0606000900C
:102F90001848019018480290402003908020049027
:102FA000002005904FF4806006904000079080005C
:102FB00008904011099040020A9000200B900120D7
:102FC0000C9000200D900E906946094800F0F4F92D
:102FD0000121074800F086F80121002000F00EF8DA
:102FE0000121002000F01EF815B000BD00000240D5
:102FF00088600240087400402290000839B1084AF5
:103000001268012383401A43054B1A6006E0044A04
:103010001268012383409A43014B1A6070470000F5
:103020000074004041B1094A12684FF48053834054
:103030001A43064B1A6007E0044A12684FF48053A3
:1030400083409A43014B1A607047000000740040AF
:1030500030B5002200230A4C226840F6FE748440FA
:10306000A243D1E900452C438D682C43CD6844EA46
:10307000050303FA00F42243014C226030BD000036
:103080000074004010B500F0EBFEFFF759FF10BDD3
:1030900010B50549054800F03FF918B10249034849
:1030A00000F006F810BD00002080001010640240FF
:1030B0000246094B9A4201D2084801E006481038FE
:1030C00001F000531BB1064B0B40C36002E0044B00
:1030D0000B408360704700001064024000600240B3
:1030E0007D0F7D0F21B1026842F00102026003E012
:1030F000026822F0010202607047000010B590B033
:1031000004462548844204D90121880500F01CFBAF
:1031100003E00121480500F017FB204600F042F8CB
:1031200000BF204600F0EAF80028FAD14FF0806096
:1031300001901A4802901A480390002004904FF41E
:10314000FA600590002006904FF4806007904000E0
:1031500008908000099040110A9040020B900020D6
:103160000C9003200D9000200E900F9001A9204696
:1031700000F022F9102108481030FFF799FF0122D2
:1031800010210548103000F0F9F801212046FFF722
:10319000A9FF10B010BD0000006402404C220140A5
:1031A0003C020020016821F0010101600021016062
:1031B00041608160C1600161212141614A498842C9
:1031C00004D13D21484A103A91608CE046491831BB
:1031D000884205D14FF47461434A103A916082E00D
:1031E00041493031884205D14FF474113E4A103ABA
:1031F000916078E03C494831884205D14FF07461D4
:10320000394A103A91606EE037496031884204D102
:103210003649354A103AD16065E033497831884201
:1032200004D13349304A103AD1605CE02E499031E4
:10323000884204D12F492C4A103AD16053E02A49E0
:10324000A831884205D14FF03D51274A103AD1604C
:1032500049E02949884204D13D21274A083A1160B2
:1032600041E025491831884205D14FF47461224A62
:10327000083A116037E020493031884205D14FF4D7
:1032800074111D4A083A11602DE01B4948318842EB
:1032900005D14FF07461184A083A116023E01649CD
:1032A0006031884204D11149134A121F11601AE09B
:1032B00011497831884204D10D490F4A121F11601B
:1032C00011E00D499031884204D10A490A4A121F7F
:1032D000116008E00849A831884204D14FF03D51FF
:1032E000054A121F11607047106002403D00002027
:1032F000400F002000003D201064024001460020E5
:103300000A6802F001020AB1012000E000207047C3
:103310000146486880B2704770B50246002000241C
:103320000025124EB24201D2114B01E00F4B103B6F
:10333000104E0E4036B11E2606EAD124166806EA63
:10334000040502E0566906F0800501F000560EB152
:103350005C6800E01C68084E344004EA010616B1BF
:103360000DB1012000E0002070BD0000106402409B
:10337000006002403C0F3C0F7D0F7D0F10B501F047
:1033800080034BB122B1436943F08003436103E002
:10339000436923F08003436180290BD02AB103687D
:1033A00001F01E042343036004E0036801F01E04DF
:1033B000A343036010BD000010B500220268134B48
:1033C0001A40CC680B6823434C6923438C69234320
:1033D000CC6923430C6A23434C6A23438C6A2343FE
:1033E0004C6B23438C6B23431A430260426922F0E7
:1033F0000702D1E90B3423431A4342610B6943604E
:103400004B6883608B68C36010BD00003F801CF078
:103410007047000070B52DED088B84B0064600247F
:1034200018E0334830F8140000EE100AB8EE400AF5
:10343000DFED300A60EE208A2F4901EBC400C0EDB9
:10344000008A9FED2E0A6000401C01EB800080ED99
:10345000000A641CB4F5806FE3DB27492848FDF7B8
:1034600083FB4FF4806227492348FCF7D3FF0024F5
:1034700011E02449A01C01EB800090ED000AB4EE9D
:10348000C80AF1EE10FA05DDA01C01EB800090EDFA
:10349000008AA51C641CB4F5007FEADD284605F00F
:1034A0002BFC41EC190B304605F026FC41EC1B0BC4
:1034B0009FED150B53EC102B05F0C6FA41EC1A0BDF
:1034C00053EC192B05F030FC114AC2E902011046F9
:1034D00090ED020B8DED020B0E4B42220EA114A0BB
:1034E0000095FFF769FB04B0BDEC088B70BD0000D0
:1034F000288D00206740533A289D002000000000DE
:1035000028CD002028BD0020000000000000A040C1
:10351000D80000207C9100082E2E5C5354656D5716
:10352000696E5F5461736B5C64736F2E630000009F
:103530005B25733A253035645D5B25735D3D3D3D0C
:103540003D3D3D706F733A202564206672653A20D8
:1035500025660D0A00000000F0B50A460021002390
:10356000002400BF3DE0012505FA01F3156805EAD6
:1035700003049C4234D105684F000326BE40B54386
:10358000056015794E00B54006683543056015792C
:10359000012D02D01579022D16D185684F00032622
:1035A000BE40B543856055794E00B54086683543C9
:1035B0008560456801268E40B5434560456896792B
:1035C0008E40B6B235434560C5684F000326BE4005
:1035D000B543C560D5794E00B540C6683543C56072
:1035E000491C1029BFD3F0BDF0B5002300244D07BE
:1035F000ED0E02FA05F3CE1000F1200555F8265025
:103600004E07F70E0F26BE40B543CF1000F120063F
:1036100046F82750CE1000F1200555F8265045EA0F
:103620000304CE1000F1200545F82640F0BD0183CB
:10363000704700BFFEE700001CB50121202000F00C
:1036400083F84FF4C060009001208DF80400002042
:103650008DF8060003208DF8050001208DF8070085
:1036600069460448FFF778FF4FF4C0610148FFF74F
:10367000DEFF1CBD0014024000BFFEE7704708B526
:103680001C208DF8000000208DF801008DF802004C
:1036900001208DF80300684600F010F838208DF8FE
:1036A000000000208DF801008DF8020001208DF847
:1036B0000300684600F002F808BD000070B5002164
:1036C00000230F22C4781CB3174C246804F4E06470
:1036D000C4F5E064C4F30721C1F10404E3B20A4174
:1036E00044789C40E1B28478144021430C07210EB9
:1036F0000E4C05786155047804F01F050124AC4098
:1037000005786D11AD0005F1E025C5F8004109E02F
:10371000047804F01F050124AC40054D06787611AD
:1037200045F8264070BD00000CED00E000E400E02C
:1037300080E100E002490143024A11607047000045
:103740000000FA050CED00E029B1064A12680243B8
:10375000044B1A6004E0034A12688243014B1A606A
:10376000704700003038024029B1064A126802430F
:10377000044B1A6004E0034A12688243014B1A604A
:10378000704700004038024029B1064A12680243DF
:10379000044B1A6004E0034A12688243014B1A602A
:1037A000704700004438024029B1064A12680243BB
:1037B000044B1A6004E0034A12688243014B1A600A
:1037C0007047000024380240F0B500210022002498
:1037D000022500260223324F3F6807F00C0121B179
:1037E000042905D0082937D105E02E4F076036E0BF
:1037F0002D4F076033E02A4F3F1F3F68C7F38056C5
:10380000274F3F1F3F6807F03F036EB1264FB7FBBE
:10381000F3F7DFF88CC0ACF1040CDCF800C0CCF39B
:10382000881C07FB0CF40CE01E4FB7FBF3F7DFF826
:1038300070C0ACF1040CDCF800C0CCF3881C07FBB2
:103840000CF4174F3F1F3F68C7F301477F1C7D00F3
:10385000B4FBF5F7076002E0124F076000BF00BF3E
:103860000F4F3F6807F0F0010909104F7A5C0768B5
:10387000D74047600A4F3F6807F4E051890A0B4F71
:103880007A5C4768D7408760054F3F6807F460411E
:10389000490B064F7A5C4768D740C760F0BD00000F
:1038A000083802400024F40000127A002C000020A6
:1038B0002DE9F04704460E4617469846DDF820905D
:1038C00000BF2448007808B900F0B6FC00BF2148CA
:1038D0004069A04239D9EFF311810846202181F3D4
:1038E000118800BF00BF0CB304EB440219496031DA
:1038F00041F8326004EB440201EBC2014F6004EB7B
:1039000044021449603101EBC201C1F80880002271
:1039100004EB44030F49603101EBC3010A6104EB7E
:1039200044030C49603101EBC301CA6004EB44025B
:103930000849603101EBC201C1F81490C1B281F3B2
:10394000118800BF00BF002501E04FF0FF35284679
:10395000BDE8F08788E700202DE9F04704460E46D1
:1039600017469846DDF8209000BF2448007808B933
:1039700000F062FC00BF21480069A04239D9EFF392
:1039800011810846202181F3118800BF00BF0CB3CC
:1039900004EB44021949183141F8326004EB440247
:1039A00001EBC2014F6004EB44021449183101EBF2
:1039B000C201C1F80880002204EB44030F4918310A
:1039C00001EBC3010A6104EB44030C49183101EB1C
:1039D000C301CA6004EB44020849183101EBC2017B
:1039E000C1F81490C1B281F3118800BF00BF002557
:1039F00001E04FF0FF352846BDE8F08788E700205A
:103A00002DE9F04104460D461646EFF3118080463D
:103A1000202080F3118800BF00BF3246294620468F
:103A200000F00AF8074608F0FF0080F3118800BF95
:103A300000BF3846BDE8F0812DE9F74F83461746B1
:103A400000BF2248007808B900F0F6FB00BF0BEB7E
:103A50004B011E48603000EBC106DDF8049035696B
:103A6000D6F80CA04FF00008554515D9B068441B96
:103A7000BC4201D2204600E0384604467068411935
:103A800022464846FDF78BFBA044A1443F1B25443A
:103A9000B068A84200D10025AAEB0504BC4201D2BF
:103AA000204600E0384604464CB170684119224671
:103AB0004846FDF774FBA044A1443F1B2544B8F1E0
:103AC000000F00D035614046BDE8FE8F88E700203A
:103AD0002DE9F04104460D46164600BF0D4800781A
:103AE00008B900F0A9FB00BFEFF3118007462020C2
:103AF00080F3118800BF00BF32462946204600F0FF
:103B00000BF88046F8B280F3118800BF00BF404632
:103B1000BDE8F08188E700202DE9F0470746884698
:103B20001646C24607EB47011B4800EBC109D9F80E
:103B3000140020B1012811D0022826D11EE04846E9
:103B400000F0B0FB0546B54201D2002405E0344642
:103B500032465146484600F0ECFB18E0484600F07B
:103B6000A1FB0546B54201D2284600E03046044696
:103B700022465146484600F0DCFB08E032465146FA
:103B8000484600F09DFB044601E0002400BF00BF52
:103B90002046BDE8F0870000A0E7002070B504468D
:103BA0000548B0FBF4F0401E85B2012229460348C7
:103BB00000F0ADF970BD0000808D5B000004004096
:103BC00070B50446E0010549B1FBF0F0451E2946F9
:103BD000034800F0A8F9204670BD000000BD0105B3
:103BE000001000400CB5002001900090344800689F
:103BF00040F480303249086000BF3148006800F46A
:103C0000003000900198401C0190009818B901986C
:103C1000B0F5A04FF1D12A48006800F4003010B18F
:103C20000120009001E0002000900098012846D17A
:103C300023484030006840F08050214940310860FE
:103C40002048006840F440401E4908601C48083085
:103C500000681B49083108600846006840F40040CD
:103C600008600846006840F4A05008601648091F24
:103C70000860081F006840F08070091F086000BFDE
:103C80000F48006800F000700028F9D040F205707D
:103C90000E4908600A480830006820F0030008490F
:103CA000083108600846006840F00200086000BF64
:103CB00003480830006800F00C000828F8D10CBD5B
:103CC000003802400070004008544007003C0240A9
:103CD000042808D14FF0E021096941F004014FF0B8
:103CE000E022116107E04FF0E021096921F00401B1
:103CF0004FF0E0221161704710B504F073FA01280B
:103D000001D003F01DFC10BD10B51548006840F44B
:103D10007000134908601348006840F00100114921
:103D2000086000200F49083108600E4800680E49FD
:103D300008400C4908600D48091D0860081F00680C
:103D400020F48020091F0860002006490C3108601B
:103D5000FFF748FF4FF0006001498039086010BD4F
:103D600088ED00E000380240FFFFF6FE103000242E
:103D700010B50121880700F0B0F818B101218807BB
:103D800000F09CF810BD0EB501210846FFF7ECFCD1
:103D900000214FF0804000F094F8684600F008F9E8
:103DA0000D2001900520ADF800000020ADF80800BE
:103DB000ADF8020069464FF0804000F0B7F80121ED
:103DC000880700F06FF82021480600F0A3F80121D1
:103DD000880700F076F80EBD10B50121074800F005
:103DE0007CF8012804D106480068401C044908609A
:103DF0000121024800F062F810BD0000000C0040F4
:103E0000140000207FB505460C4601210820FFF76D
:103E1000ABFC0295ADF804400020ADF80600ADF80B
:103E20000C0001A90D4800F081F8012211460B4851
:103E300000F064F80121094800F043F832208DF8C1
:103E4000000005208DF8010000208DF802000120FF
:103E50008DF803006846FFF731FC7FBD000C004081
:103E60000EB501211020FFF77FFC684600F0A0F896
:103E700040F28F2001900020ADF80000ADF808005E
:103E8000ADF802006946064800F050F820210448C9
:103E900000F040F80121024800F013F80EBD0000C8
:103EA0000010004021B1028842F08002028004E04C
:103EB00002884FF67F731A4002807047CA4302821D
:103EC000704721B1028842F00102028004E00288BA
:103ED0004FF6FE731A400280704730B5024600204C
:103EE00000230024158A05EA0103958905EA0104E7
:103EF00013B10CB1012000E0002030BD1AB183895C
:103F00000B43838102E083898B4383817047018562
:103F10008282704782884FF68F731A40828082882F
:103F20000A4382807047C162704700000022028805
:103F3000184B98420ED0184B98420BD0B0F1804FDE
:103F400008D0164B984205D0154B984202D0154B1D
:103F5000984204D14FF68F731A404B881A43124B84
:103F6000984207D0114B984204D04FF6FF431A40B5
:103F70000B891A4302804B68C3620B880385054B8B
:103F8000984202D0044B984201D18B7A03860123D8
:103F9000838270470000014000040140000400409B
:103FA00000080040000C00400010004000140040D9
:103FB0004FF0FF3141600021018001814180817219
:103FC00070470EB500200090002421E000BF0020C3
:103FD00000906A46082101A802F006FA04460CB1D6
:103FE00003F0C6F94CB90098082806D101A800F0E2
:103FF000C1FE10B101A800F083FF00980028E6D1AF
:1040000004F0D8FC08B100F00BFC0A2002F070FCB0
:10401000DCE7000010B540F225511D4800F04AF8D9
:1040200010B31B4800F000F9C4B21A48008800F42D
:104030000040C8B91748008800F4804060B10A2CDD
:1040400003D000201349088020E01248008840F483
:1040500000401049088019E00D2C06D10D48008859
:1040600040F480400B49088010E00A480088C0F303
:104070000D0009490C5407480088401C0549088078
:1040800008460088C72801DD0020088010BD000018
:1040900000100140400000207401002021B18289FD
:1040A00042F40052828104E082894DF6FF731A4087
:1040B0008281704770B5024600240023002500204D
:1040C00040F66A16B14200D100BFC1F3421501F0BB
:1040D0001F03012606FA03F3012D02D1968933400E
:1040E00006E0022D02D1168A334001E0968A334061
:1040F0000C12012606FA04F41688344013B10CB1F0
:10410000012000E0002070BDF0B503460024002629
:104110000025002040F66A17B94200D100BF1846BA
:10412000C1F3421401F01F06012707FA06F5012C1E
:1041300001D10C3004E0022C01D1103000E0143029
:104140001AB107682F43076002E00768AF430760B2
:10415000F0BD00002DE9FF4705460E460024A146AC
:1041600000BFA046B08900B100BF2C8A24F440549F
:10417000F08804432C82AC8941F20C608443B088FF
:1041800031890843718908430443AC81AC8A24F423
:104190004074B0890443AC826846FFF715FB2048A1
:1041A000854202D01F48854202D1DDF80C9001E023
:1041B000DDF80890A88900F4004040B109EBC9007F
:1041C00000EB091031684900B0FBF1F707E009EB9B
:1041D000C90000EB091031688900B0FBF1F76420D9
:1041E000B7FBF0F004012009642101FB1078A889D5
:1041F00000F4004040B1322000EBC800B0FBF1F009
:1042000000F00700044308E0322000EB08106421AE
:10421000B0FBF1F000F00F0004432C81BDE8FF87F4
:10422000001001400014014001468888C0F30800D6
:10423000704700BFFEE7000010B5114C032020615D
:10424000606110A0A0611249E1614021216200215A
:10425000A1626162E1620BA020660E4961661021D5
:10426000A16600212167E16661670BA1E01DFCF7F3
:1042700053FF0AA12046FCF74FFF2020A07110BD7C
:1042800088E700205465726D696E616C0000000063
:1042900030E8002070E8002052545400534547474E
:1042A0004552000010B501460A69CB689A4204D80D
:1042B0008C68641EE41AA01801E0D41A601E10BDB8
:1042C0002DE9F0470446894617464FF0000AE56895
:1042D00000BFD4F81080A84503D9A8EB0500461EFE
:1042E00004E0A5EB0800401CA1680E1AA068401B62
:1042F000B04201D9304601E0A068401B0646BE42EC
:1043000001D2304600E03846064661684819324618
:104310004946FCF744FFB244B144BF1B3544A06892
:10432000A84200D10025E560002FD2D15046BDE85B
:10433000F0872DE9F047044689461546E668A068EF
:10434000871BAF4208D9616888192A464946FCF79D
:1043500026FF7019E06010E0B8466168881942468F
:104360004946FCF71CFFA5EB070809EB070142468D
:104370006068FCF714FFC4F80C80BDE8F08703B454
:1043800001984100009850EAC12018BF04204A0D4E
:1043900018BF40F0010040F2FF72B2EB515F08BF5E
:1043A00040F00200012808BF052002B07047EFF37B
:1043B0001080704780F31088704730380A2801D287
:1043C000012070470020704700BF704770B5044659
:1043D0000420FFF77DFC0C48047025464FF47A70EA
:1043E00045430120094908804FF0E020006940F072
:1043F00002004FF0E021086108464561006940F085
:104400000100086170BD000042000020440000204F
:104410002DE9F04707463E4656B900BF502080F3CD
:104420001188BFF34F8FBFF36F8F00BF00BFFEE750
:104430001B480068864201D100242DE002F02CF9CF
:1044400075691848D0F800801748D0F8009002F03D
:104450004DF9454501D04D4501D102241CE01348DA
:10446000854212D1B06A70B90324002007E006F13A
:104470005C01095C012901D1022402E0401C0128F1
:10448000F5DB00BF08E0022406E00948854200D0C1
:104490000DB9042400E001242046BDE8F0870000A7
:1044A000480000204C00002050000020EC140020A8
:1044B000D814002000BF054A128802F04002002AEA
:1044C000F9D0C2B2014B9A80704700000010014041
:1044D0000EE008480068C0430749C1F8A402FEF78F
:1044E0005FFC06490868FEF795FFFA2002F000FA23
:1044F000EFE70000A482424200804242249100087B
:104500001CB54FF44070FFF715F9A820FFF75EFFC8
:104510004FF4E13001F0B8FFFFF78EF8FEF7B2FD7F
:104520004DF6C020FFF74CFBFEF7DAFA1449086895
:10453000FFF734FB532140F2E730FFF763FC012320
:10454000002299020F48FCF72DFB0F4801210023A0
:104550008022CDE900100DA10F4803F00DFE0446A6
:1045600002F01CFF002002F0FDFD012C02D102F040
:10457000EFFC02E04FF0FF301CBD00BFFEE7000083
:104580002491000828CD002000000020737461727F
:10459000745F7461736B00001D6400082DE9F041C5
:1045A00005460E462648076826480068001D01F0AB
:1045B000C1FF50B92348006890F82C1001208840B2
:1045C00021490968814320480160681CD8B9D6B1E7
:1045D0001E4948681B49096888601A498268096849
:1045E000CA6018490968091D82685160154909683F
:1045F000091D8160154A134909684A611146096815
:10460000491C11601AE07C190E4800684460BC42E5
:1046100007D20C480168091D0D48006802F015F822
:104620000CE008480168091D0A48006802F00DF80E
:1046300009480068844201D207480460BDE8F0815F
:104640005C0000204800002060000020EC140020E6
:10465000500000204C0000207800002070B5044677
:1046600002F01AF84C480068401C4B4908604B485F
:10467000006840B9494804600846006801280DD127
:1046800000F0C8FA0AE04648006838B943480068B4
:10469000C06AE16A884201D8404804604148006825
:1046A000401C404908600846006860644CB304F14F
:1046B0003401204601F0A6F82046E16A01F05EF8D8
:1046C000234604F134020321012001F0BFFB3648E8
:1046D0000188204601F016F900F0A0FE054601F021
:1046E00015F832490988084058B1204601F00EF803
:1046F0002E490988084020B121461020E26A01F0C5
:104700004BF9204601F002F828490988084018B101
:104710002146302001F004F994F82C100120884043
:1047200023490968084322490860E16A01EB8101D5
:10473000204A02EB81014868A0608268E260211D86
:10474000826851608160E16A01EB8101194A02EBE4
:1047500081026261E16A01EB8101164A52F821107F
:10476000491CE26A02EB8202124B43F8221001F06C
:10477000BDFF0B48006868B108480068C06AE16A7C
:10478000884207D24FF080500B490860BFF34F8F2B
:10479000BFF36F8F70BD000058000020480000205C
:1047A00064000020740000206201002060010020ED
:1047B000600000201C12002004ED00E010B501F0A4
:1047C0006BFF10480068D0B90F4801F02EFF0F486A
:1047D00001F02BFF0C480E4908600C480D49086099
:1047E00000220C21052002F0D7FE06490860084689
:1047F000006820B108A10348006802F015F801F034
:1048000075FF10BD98000020001500201415002031
:104810009000002094000020546D725100000000B0
:1048200010B51348006828B1072001F055FC00209E
:104830000F4908600F48006828B1092001F04CFCBE
:1048400000200C4908600C480068192805D9082088
:1048500001F042FC0020084908600848006828B1BF
:104860000A2001F039FC00200449086010BD000056
:104870005001002054010020580100205C0100205C
:1048800010B516E001F008FF0C48C068C468201D90
:1048900001F050FE0A480068401E094908600948B6
:1048A0000068401E0749086001F020FF204600F024
:1048B0005FF8044800680028E4D110BDD814002037
:1048C000580000205400002070B504460D46206CAE
:1048D00070B1216CE0680144E160D4E902108842C3
:1048E00001D32168E1602846226CE168FCF757FC9F
:1048F00070BD2DE9F04104460F4615464FF0000803
:10490000A66B206C48B9206800282CD1A06803F061
:1049100081FD80460020A06025E07DB93946226CEB
:104920006068FCF73CFC216C606808446060D4E976
:104930000101884217D32068606014E03946226C78
:10494000E068FCF72CFC216CE068411AE16021680A
:10495000E068884203D2216CA068411AE160022D10
:1049600001D106B1761E701CA0634046BDE8F081FF
:1049700010B50446206B01F0D7FE204601F0D4FEAE
:1049800010BD01464A6A22B10A6B1268C2F12000CA
:1049900000E00020704700000146084A12681268D3
:1049A0000AB9012200E000220A600A6822B9034A1B
:1049B0001268D268106800E0002070479000002064
:1049C0000148406870470000001000E030B54FF427
:1049D000F043174800F007042CB1C01D20F0070079
:1049E000134C041B1B1B0246124C22600024114D69
:1049F0006C60D018083820F007000F4C20600024AD
:104A00000D4D2D686C600C4D2D682C601146441ABC
:104A10004C60094C24680C60084D4C682C60084DB3
:104A20004C682C604FF00044064D2C6030BD0000F7
:104A300028150020B0000020B8000020C000002091
:104A4000BC000020CC00002000BFFFF719FF064883
:104A500000680128F9D94FF0805004490860BFF37D
:104A60004F8FBFF36F8FF0E71C12002004ED00E0C2
:104A700010B5044654B10020A06020600021E16020
:104A800000231A461946204602F052FE10BD0000CF
:104A90002DE9F04705460E4617469846089C0EB984
:104AA000246000E02760E56326640121204602F0CF
:104AB000D1FD84F850800020A0641B480188204666
:104AC00000F012FF00F0AAFC814600F01FFE17491B
:104AD0000988084030B3204600F00EFE13490988CB
:104AE0000840F8B194F8500030B101280FD00328E5
:104AF00008D0042815D10FE02A462146112000F0E5
:104B00004BFF0EE02146122000F00AFF09E021468B
:104B1000132000F005FF04E02146172000F000FFFD
:104B200000BF00BFBDE8F0876201002060010020E7
:104B30002DE9F05F82460F4690469B460A9E0C9CEC
:104B40004FEA8801A522206BFCF76EFBA8F101005B
:104B5000216B01EB800929F0070909F0070008B96A
:104B6000012000E0002050B900BF502080F31188E0
:104B7000BFF34F8FBFF36F8F00BF00BFFEE787B15A
:104B8000002507E0795D04F134004155785D00B9F6
:104B900002E06D1C102DF5D300BF0021432001550C
:104BA00002E0002084F83400202E01D2012000E031
:104BB000002050B900BF502080F31188BFF34F8F01
:104BC000BFF36F8F00BF00BFFEE7202E00D31F266C
:104BD000E662E66400202065201D01F033FD04F14B
:104BE000180001F02FFD2461C6F12000A06164626D
:104BF00000206065A06584F85C005A46514648462E
:104C000001F0DCFB20600B9808B10B980460BDE854
:104C1000F09F000010B5002407E004EB84010F4A68
:104C200002EB810001F001FD641C202CF5D30C483F
:104C300001F0FBFC0B4801F0F8FC0B4801F0F5FC1F
:104C40000A4801F0F2FC0A4801F0EFFC0448094967
:104C5000086004480849086010BD00001C120020CC
:104C60009C140020B0140020C4140020D81400208C
:104C7000EC1400204C0000205000002010B501462C
:104C8000164800E0006803688B42FBD30246436885
:104C900013448B4204D143684C682344436001466B
:104CA0000A464B6813440468A34211D10C4C0368B4
:104CB0002468A34208D04B680468646823444B60AE
:104CC00003681B680B6005E0054B1B680B6001E087
:104CD00003680B60884200D0016010BDB000002066
:104CE000B80000202DE9F04104460D4616461F4647
:104CF0004FF0000865602461B5420CD8F01BA16933
:104D0000884202D34FF0010811E0211D09480068D4
:104D100001F09BFC0BE0BE4204D2BD4202D34FF037
:104D2000010804E0211D0448006801F08EFC4046A3
:104D3000BDE8F081940000209000002070B5054689
:104D400001F0AAFCA86B08B9012400E0002401F0DE
:104D5000CDFC204670BD70B5054601F09DFCA86BEA
:104D6000E96B884201D1012400E0002401F0BEFC7F
:104D7000204670BD014608784B7818448B7818445B
:104D8000CB7818440B7918444B7918444FF6FF73CD
:104D90001A1AC879B0EB222F01D000207047887909
:104DA000D3B2984201D00020F8E70878012801DD4D
:104DB0000020F3E70120F1E72DE9F04707460C4614
:104DC00090460026206848B3204641684968416003
:104DD00000F1080142688A4202D141684968416095
:104DE0004168D1F80C9000BF204641684968416095
:104DF00000F1080142688A4202D141684968416075
:104E00004168CD6806EBC60007EB800143460122EE
:104E1000284601F063FE761C4D45E5D13046BDE8DD
:104E2000F0870000F1B50098846C002654B900BFEB
:104E3000502080F31188BFF34F8FBFF36F8F00BFF7
:104E400000BFFEE7A06BE16B884201D2012000E0C9
:104E5000002050B900BF502080F31188BFF34F8F5E
:104E6000BFF36F8F00BF00BFFEE7A06BE16B88420E
:104E700042D294F9455000F0D1FA074600F046FCC2
:104E80001E490988084060B1204600F035FC1B49E6
:104E90000988084028B1A06B421C2146502000F030
:104EA0007BFD002269462046FFF723FD0646681C6D
:104EB00060B9606A08B9012000E00020D8B904F1A7
:104EC000240003F0E5FBB0B1012614E07F2D01D0F2
:104ED000012000E0002050B900BF502080F311886D
:104EE000BFF34F8FBFF36F8F00BF00BFFEE7681C9B
:104EF00040B284F8450000BF3046F8BD6001002094
:104F000010B504462078012803D1607800F030F90C
:104F100000E000BF00BF10BD70B505460E460E484C
:104F20000068C068C468201D01F004FB94F82800E4
:104F300000F0040028B132462946204600F0D6F899
:104F400005E094F8280020F0010084F828002046AD
:104F5000216A884770BD0000900000207FB57FE087
:104F6000019800287CDB039C606908B9012000E0FF
:104F7000002010B9201D01F0DDFA684600F0E2F8CB
:104F8000054601980A2869D2DFE800F06805072E77
:104F9000365806082F3700BF00BF00BF94F828001E
:104FA00040F0010084F828000298A26981180346A5
:104FB0002A462046FFF796FEA8B194F8280000F094
:104FC000040038B10298A26981182A46204600F0F0
:104FD0008DF805E094F8280020F0010084F82800FE
:104FE0002046216A88473AE000BF94F8280020F064
:104FF000010084F8280032E000BF94F8280040F057
:10500000010084F828000298A061A06908B101207D
:1050100000E0002050B900BF502080F31188BFF39A
:105020004F8FBFF36F8F00BF00BFFEE7A06941192C
:105030002B462A462046FFF755FE10E094F828003C
:1050400000F0020018B9204601F06EFB05E094F86C
:10505000280020F0010084F8280000E000BF00BF15
:10506000002201A90348006802F01AFD00287FF41D
:1050700077AF7FBD98000020F8B505460C4601F0DB
:10508000DFFF684600F05EF80646009820BB44B992
:10509000B54206D803F09AFB31462846FFF73CFF9D
:1050A0001CE03CB10E480068006808B9012000E02F
:1050B00000200446A91B22460A48006801F0F2FBC2
:1050C00003F084FB50B94FF0805007490860BFF3EC
:1050D0004F8FBFF36F8F01E003F078FBF8BD000046
:1050E000940000209800002004ED00E070B5044614
:1050F0000D46164604E0A06905442046216A88470B
:10510000A06941192B4632462046FFF7EBFD0028E7
:10511000F1D170BD09480068006808B9012000E0BD
:10512000002020B14FF0FF300549086005E003483A
:105130000068C06800680249086070474C000020A1
:105140007800002070B5044603F05CF80546074877
:105150000068854204D200F039F80120206001E0A7
:105160000020206001480560284670BDA000002096
:1051700070B5044612480068A04200D170BDFFF728
:1051800016F905460120FFF715F98CB100200D49ED
:105190000860FF200C49087000F0B6FC00F004FF26
:1051A00000F022FD00F07AFC00F0F2FD00F044FF78
:1051B000034804602846FFF7FDF800BFDEE7000063
:1051C00068010020080100201C01002070B508E0E3
:1051D0000D480068C06804684FF0FF312046FFF7B3
:1051E0009BFE09480068006808B9012000E0002023
:1051F0000028EDD0044805680448006802490860AA
:105200000248056070BD000090000020940000205E
:105210000246002101E0521C491C1078A528FAD052
:10522000890888B2704700000E480068401C08B921
:10523000012000E0002050B900BF502080F3118809
:10524000BFF34F8FBFF36F8F00BF00BFFEE700BFFC
:10525000502080F31188BFF34F8FBFF36F8F00BFD3
:1052600000BFFEE7A400002008B500BF6846FFF7B6
:1052700093FB044620460099FFF7FEFEFFF76EFE03
:10528000F4E700002DE9F0478046FFF790F88146EB
:105290000120FFF78FF800252AE0A808194901EB43
:1052A00080063068404522D117480068082816D982
:1052B000154800680838A84211D01348006808381B
:1052C000800801EB8007002404E057F8240046F82A
:1052D0002400641C022CF8D30020386001E0002078
:1052E00030600948006808380749086004E008355C
:1052F000054800688542D0D300BF4846FFF75AF8FA
:10530000BDE8F087E4E50020180100202DE9F04712
:105310008046FFF74CF881460120FFF74BF8002547
:105320002AE0A808194901EB80063068404522D1DF
:1053300017480068202816D9154800682038A84268
:1053400011D0134800682038800801EB8007002442
:1053500004E057F8240046F82400641C082CF8D315
:105360000020386001E000203060094800682038E3
:105370000749086004E02035054800688542D0D31D
:1053800000BF4846FFF716F8BDE8F087E4E00020CC
:105390001401002070B5044611480068F8B910489F
:1053A00004600078401E012101FA00F00D490968EF
:1053B00008430C4908600A48006800F033F80546C5
:1053C0002A4609480168902000F054FC07A20648CC
:1053D0000168902000F04EFC0020FFF7C9FE70BD70
:1053E0002001002010010020F80000205265636FAA
:1053F000726465722073746F7070656420696E20CA
:1054000070727654726163654572726F72282900FA
:1054100001480068704700003C01002010B502F010
:10542000DBFE10BD01460F2925D2DFE801F024186C
:105430001A1C1E2022080A0C0E10121614000FA0AF
:1054400070471BA0FCE727A0FAE733A0F8E73CA0D1
:10545000F6E748A0F4E754A0F2E75EA0F0E76AA000
:10546000EEE774A0ECE77EA0EAE788A0E8E793A067
:10547000E6E740A0E4E70020E2E700004578636546
:10548000656465642053594D424F4C5F5441424C12
:10549000455F534C4F5453202873656520707276D6
:1054A00054726163654765744572726F72290000BA
:1054B00045786365656465642053594D424F4C5F80
:1054C0004D41585F4C454E47544820287365652030
:1054D00070727654726163654765744572726F725B
:1054E000290000004578636565646564204F424A81
:1054F0004543545F444154415F534C4F545320281B
:105500007365652070727654726163654765744592
:1055100072726F7229000000537472696E67207492
:105520006F6F206C6F6E67202873656520707276D0
:1055300054726163654765744572726F7229000029
:105540005452435F53545245414D5F504F52545F44
:10555000524541445F444154412072657475726EF6
:105560006564206572726F722028213D2030292EDB
:10557000000000005452435F53545245414D5F5068
:105580004F52545F57524954455F44415441207231
:10559000657475726E6564206572726F7220282161
:1055A0003D2030292E0000005452435F4346475FA0
:1055B000535441434B5F4D4F4E49544F525F4D4101
:1055C000585F5441534B5320746F6F20736D616C5F
:1055D0006C210000426C6F636B696E6720696E20FE
:1055E000765472616365456E61626C6520287365EF
:1055F00065207854726163654765744C61737445C6
:1056000072726F7229000000496E76616C696420C5
:105610006576656E7420636F646520287365652008
:1056200070727654726163654765744572726F7209
:10563000290000004578636565646564204953521C
:10564000206E657374696E672028736565207072BB
:105650007654726163654765744572726F72290092
:10566000445754206E6F7420737570706F72746538
:105670006420287365652070727654726163654793
:1056800065744572726F7229000000004457545FC0
:10569000435943434E54206E6F7420737570706F7E
:1056A0007274656420287365652070727654726127
:1056B00063654765744572726F722900436F756C3C
:1056C00064206E6F742063726561746520547A4340
:1056D00074726C20287365652070727654726163F1
:1056E000654765744572726F7229000010B50446F3
:1056F000204600F033FF10BD10B504462046FFF7EA
:10570000F5FF4FF6FF7101EA104010BD10B50446D9
:10571000204600F083FF4FF6FF7101EA104010BDF4
:1057200010B51248124908601248006840F08070B5
:105730001049086000BF0846006818B90320FFF749
:1057400029FE11E00C48006800F0007018B1042038
:10575000FFF720FE08E0002007494860084600687F
:1057600040F00100086000BF00BF10BD55CEACC5C1
:10577000B01F00E0FCED00E0001000E02DE9F04774
:1057800006460F46FEF713FE81460120FEF712FE85
:105790001948056800240AE0A008184901EB8008B0
:1057A000D8F80000B04201D1254604E00834124880
:1057B00000688442F0D300BFB5F5A07F12D2A808DC
:1057C0000E4941F82060012000EB950041F820705F
:1057D0000948006885420AD1074800680830064930
:1057E000086004E006480068401C05490860484617
:1057F000FEF7E0FDBDE8F08718010020E4E5002099
:10580000540100202DE9F04106460D46FEF7CFFD7C
:1058100080460120FEF7CEFD05B91BA51B48006898
:10582000B0F5A06F26D2194800688008184941F8E1
:10583000206016480068001D0F18002405E0285D50
:105840003855285D00B902E0641C192CF7D300BF5D
:1058500000E0641C285D08B1802CFAD30D48006874
:10586000844201D90B480460084800682030074989
:10587000086004E008480068401C0749086040468A
:10588000FEF798FDBDE8F081000000001401002043
:10589000E4E00020580100205001002070B50446CB
:1058A0000025FEF784FD06460120FEF783FD09482A
:1058B0000068B0F5A06F07D2074806490968451887
:1058C00021462846FFF79EFF3046FEF773FD284627
:1058D00070BD000014010020E4E0002001490860D0
:1058E000704700003C01002070B505460C46284674
:1058F000FFF7FCFE64F31F4006463146284600F0E1
:10590000CFFF70BD70B505460C46284600F086FEF8
:1059100064F31F4006463146284601F015FB70BD72
:10592000F8B505460E46B5F5805F03DB0120FFF7AD
:1059300031FDF8BDFEF73BFD07460120FEF73AFDBD
:1059400012480068E0B112480068401C1049086025
:10595000104CA4B145F48050208008460088608037
:10596000FFF72EF86060A660002000906A460C21C8
:10597000204601F002FD08B101F0FAFC00BF00BFB3
:105980003846FEF717FD00BFD3E70000680100208E
:105990000801002044E700202DE9F84305460E46A3
:1059A0001746B5F5805F04DB0120FFF7F3FCBDE887
:1059B000F883FEF7FCFC80460120FEF7FBFC134851
:1059C0000068E8B112480068401C11490860114C99
:1059D000ACB145F400502080084600886080FEF796
:1059E000EFFF6060A660E760002000906A4610212B
:1059F000204601F0C2FC08B101F0BAFC00BF00BFB4
:105A00004046FEF7D7FC00BFD1E700006801002048
:105A10000801002044E700202DE9F84305460E4622
:105A200017469846B5F5805F04DB0120FFF7B2FC0E
:105A3000BDE8F883FEF7BBFC81460120FEF7BAFC07
:105A400013480068F8B113480068401C1149086009
:105A5000114CBCB145F4405020800846008860805D
:105A6000FEF7AEFF6060A660E760C4F8108000201B
:105A700000906A461421204601F07FFC08B101F035
:105A800077FC00BF00BF4846FEF794FC00BFCFE79D
:105A9000680100200801002044E700202DE9F843B8
:105AA000FEF785FC81460120FEF784FC144E154864
:105AB00000683060374604244FF0000800BF002023
:105AC00000906A462146384601F057FC05461DB154
:105AD0000620FFF75FFC07E0009807440098241AAF
