:020000040800F2
:10000000E0F60020D5030008BD750008213F000878
:10001000B9750008BD300008938300080000000097
:1000200000000000000000000000000015030008B0
:100030005D3800080000000071030008597E0008C8
:10004000EF030008EF030008EF030008EF030008C8
:10005000EF030008EF030008EF030008EF030008B8
:10006000EF030008EF030008EF030008EF030008A8
:10007000EF030008EF030008EF030008EF03000898
:10008000EF030008EF030008EF030008EF03000888
:10009000EF030008EF030008EF030008EF03000878
:1000A000EF030008EF030008EF030008EF03000868
:1000B000D17E0008EF030008EF030008EF030008FB
:1000C000EF030008EF030008EF030008EF03000848
:1000D000EF03000875810008EF030008EF03000834
:1000E000EF030008EF030008EF030008EF03000828
:1000F000EF030008EF030008EF030008EF03000818
:10010000EF030008EF030008397F0008EF03000841
:10011000EF030008EF030008EF030008EF030008F7
:10012000DD340008EF030008EF030008EF030008C8
:10013000EF030008EF030008EF030008EF030008D7
:10014000EF030008EF030008EF030008EF030008C7
:10015000EF030008EF030008EF030008EF030008B7
:10016000EF030008EF030008EF030008EF030008A7
:10017000EF030008EF030008EF030008EF03000897
:10018000EF030008EF03000800F002F800F0B2F8F7
:100190000AA090E8000C82448344AAF10107DA45E2
:1001A00001D100F0A7F8AFF2090EBAE80F0013F082
:1001B000010F18BFFB1A43F001031847187D010017
:1001C000387D01000A444FF0000C10F8013B13F099
:1001D000070408BF10F8014B1D1108BF10F8015BA0
:1001E000641E05D010F8016B641E01F8016BF9D193
:1001F00013F0080F1EBF10F8014BAD1C0C1B09D1EA
:100200006D1E58BF01F801CBFAD505E014F8016B5B
:1002100001F8016B6D1EF9D59142D6D370470000ED
:100220000023002400250026103A28BF78C1FBD8FF
:10023000520728BF30C148BF0B6070476E2901F0DC
:100240000281702900F0E38666290DF02D8565296D
:100250000DF02A8567290DF0278561290DF0268587
:1002600003681B0A28BF41F08001692900F0548609
:10027000642900F05186752900F04E866F2901F03F
:100280000F84782900F0AF86E92901F0A983E429D9
:1002900001F0A683F52901F0A383EF2901F00C8476
:1002A000F82900F0AE860368DB0928BF41F0800121
:1002B000632901F01883732901F01D83E32901F0FC
:1002C0006B86F32901F07086002070471FB50DF092
:1002D000E6FC01F04FFC0400002000210CF010FFB0
:1002E000401C6060002000210CF0F4FEE0601FBDA7
:1002F00010B510BD01F0F2FE1146FFF7E7FF08F060
:1003000051FB01F019FF03B4FFF7F2FF03BC08F043
:100310007DF900002C4B19680868B0E8F04F80F3B5
:100320000988BFF36F8F4FF0000080F3118870478A
:100330000000000008480068006880F308884FF05B
:10034000000080F3148862B661B6BFF34F8FBFF32D
:100350006F8F00DF00BF00BF08ED00E0DFF80C008A
:10036000016841F470010160704700BF88ED00E052
:10037000EFF30980BFF36F8F134B1A681EF0100F55
:1003800008BF20ED108A20E9F04F106009B44FF04B
:10039000500080F31188BFF34F8FBFF36F8F0BF0C6
:1003A000C9F94FF0000080F3118809BC196808688A
:1003B000B0E8F04F1EF0100F08BFB0EC108A80F3C9
:1003C0000988BFF36F8F704714010020EFF3058099
:1003D000704700000948804709480047FEE7FEE7EC
:1003E000FEE7FEE7FEE7FEE7FEE7FEE7FEE7FEE7E5
:1003F00004480549054A064B70470000697E00081D
:1004000089010008E0EA0020E0F60020E0EE00208C
:10041000E0EE00209FED3A0A5FEA920C53D000BF55
:10042000F0EC010A0B1DB0EC011A60EEA00A41EEDF
:10043000010AF5EEC00AF1EE10FAC6BFB1EEE01AFD
:1004400081ED001A81ED000AF0EC010A191DB0ECF3
:10045000011A60EEA00A41EE010AF5EEC00AF1EEC3
:1004600010FAC6BFB1EEE01A83ED001A83ED000A60
:10047000F0EC010A0B1DB0EC011A60EEA00A41EE8F
:10048000010AF5EEC00AF1EE10FAC6BFB1EEE01AAD
:1004900081ED001A81ED000AF0EC010A191DB0ECA3
:1004A000011A60EEA00A41EE010AF5EEC00AF1EE73
:1004B00010FAC6BFB1EEE01A83ED001A83ED000A10
:1004C000BCF1010CACD112F0030208BF704700BFB1
:1004D000F0EC010A0B46B0EC011A091D60EEA00A0F
:1004E00041EE010AF5EEC00AF1EE10FAC6BFB1EE18
:1004F000E01A83ED001A83ED000A521EE8D170471E
:10050000000000002DE9F04F8D082DED048B82B026
:100510000026AC463446019506EB0C0909EB0C0AA3
:100520000AEB0C0800EBC60700EBC90900EBCA0A8E
:1005300000EBC80897ED003AD9ED003ADAED006A11
:1005400098ED006A97ED010ADAED014A33EE265A7A
:1005500073EE860A99ED014AD8ED015A30EE241A5D
:100560004FEA440B02EBCB0E70EE644A74EE251A90
:1005700035EE200A9EED002ADEED012A87ED000A05
:1005800031EE210A73EEC63A34EE656A87ED010A50
:1005900035EE600A33EE663A71EE610A02EBC4078B
:1005A00074EEE35A33EE064A97ED005A73EEA41A3E
:1005B000D7ED014A33EE461A24EE056A0BEB040729
:1005C00025EE855A02EBC70760EE026A65EEA45A73
:1005D00024EE244A97ED003AD7ED013A60EEA24AA4
:1005E00020EE822A21EE037A20EE220A61EEA30A8F
:1005F00021EE833A61EE231A76EEA42A32EE400A07
:1006000036EE251A75EE443AC9ED002A77EE200A37
:1006100089ED010A73EE611A8AED001ACAED013AFA
:10062000C8ED000A761CC8ED011A1C446D1E7FF44B
:1006300073AF4FF6FF7404EA830B019B0093042B06
:100640007DD966464FEA9C0C4FF00008C146ACF1DC
:10065000010E00BF4FEA480303EB080402EBC3039B
:1006600002EBC80593ED003AD3ED014A02EBC40357
:1006700095ED005AD5ED015A93ED006A93ED014ACC
:10068000D8444B4603EB0C0404EB0C0707EB0C0AB5
:1006900000EBC30500EBC70700EBC40400EBCA0A7C
:1006A000D5ED003A97ED007AD4ED008A9AED008AF4
:1006B00095ED010AD4ED010AD7ED017ADAED011AC0
:1006C00033EEC72A70EE676A70EEE12A33EE877A5E
:1006D00078EE883A30EE270A38EEC81A70EEA11A82
:1006E00072EE227A32EE622A77EE232A70EE618A67
:1006F00036EEC18A30EE210A77EE630A31EE261A11
:10070000C5ED002A85ED010A28EE050A67EE856A27
:1007100028EE258A20EE837A20EEA49A68EE831ACA
:1007200062EE062A61EE063A62EE040A67EEA57AE8
:1007300068EEA48A21EE041A36EE882A00E027E04B
:1007400077EE286A71EEC91A30EE670AC4ED006AC6
:1007500032EE811AC4ED011A73EEE00A87ED002A29
:1007600087ED010A8AED001A3344CAED010A8B4273
:1007700088D309F10109F1457FF66CAF4FF6FF739D
:1007800003EA8B0B009B9B080093042B3FF659AFA9
:10079000DDF8041090ED000AD0ED042A90ED025A25
:1007A00090ED031AD0ED064A90ED073A30EE222A7A
:1007B000D0ED011AD0ED050A75EE243A31EE034A68
:1007C00030EE620A71EEA02A31EE431A32EE233A7D
:1007D00071EEE00A75EE641A72EE844A32EE632A14
:1007E00072EEC43A80ED003A70EE012AC0ED014A83
:1007F00030EEE14A80ED022A30EE410AC0ED033AC4
:1008000071EEA00AC0ED042A80ED054A80ED060ACB
:10081000C0ED070A2030491EBCD102B0BDEC048BEC
:10082000BDE8F08F2DE9F04F4FEA910A2DED048BD2
:1008300082B00024D446A046CDF804A004EB0C05F9
:1008400005EB0C0606EB0C0900EBC40700EBC60633
:1008500000EBC50500EBC909D7ED011AD6ED012A59
:1008600095ED006AD9ED006AD7ED005A96ED007A51
:10087000D5ED010A99ED011A36EE262A71EEA23A5B
:1008800035EE873A71EEE21A30EE815A70EEC12AE7
:100890004FEA480B02EBCB0E73EE020A9EED004AC4
:1008A000DEED014AC7ED000A73EE850A36EE666A90
:1008B00075EEC75AC7ED010A33EE422A02EBC807AC
:1008C00031EE861A33EEC53A71EEC61A97ED006A1C
:1008D00097ED015A75EEE20A0BEB080702EBC7072A
:1008E00075EEA22AD7ED005AD7ED013A60EE866A7E
:1008F00022EE047A62EEA57A23EE044A21EE066A1D
:1009000061EEA55A60EE850A23EE243A22EE242AEF
:1009100021EE051A61EEA31A62EEA32A76EE203AC2
:1009200037EE433A74EE020A36EEC11A85ED003A0C
:1009300077EEE11AC5ED010A35EEA22A86ED001A1E
:10094000C6ED013AC9ED001A641C89ED012A9844EC
:10095000BAF1010A7FF472AF4FF6FF7404EA830B19
:10096000019B0093042B7CD966464FEA9C0C4FF008
:100970000008C146ACF1010E4FEA480303EB08043E
:1009800002EBC30302EBC805D3ED003A93ED017A05
:1009900002EBC403D5ED006AD5ED015AD3ED004A50
:1009A00093ED013AD8444B4603EB0C0404EB0C07DF
:1009B00007EB0C0A00EBC30500EBC70700EBC40410
:1009C00000EBCA0A95ED012A97ED018A95ED001A10
:1009D000D4ED008AD4ED017A97ED009ADAED001A91
:1009E000DAED010A32EE485A71EE492A38EEE14A50
:1009F00032EE082A37EEA08A37EEE06A78EEA11AC6
:100A000031EE091A75EE048A72EEC67A72EE862A03
:100A100071EE610A31EE211A35EE444A32EE489AFF
:100A200085ED001A32EE081A28EEA66A27EEA65ABD
:100A300068EEA58A85ED011A20EEA31A69EE231A45
:100A400022EEA42A24EE248A67EEA57A29EE079ADC
:100A500060EE870A24EE034A62EE832A35EE685A76
:100A600000E027E036EE276A71EE497A31EEA01AEF
:100A700072EE440AC4ED007A84ED011A78EE221A6F
:100A800087ED005A87ED016ACAED000A3344CAEDCA
:100A9000011A8B4288D309F10109F1457FF66CAF49
:100AA0004FF6FF7303EA8B0B009B9B080093042B0C
:100AB0003FF65AAFDDF8041090ED003AD0ED044A4D
:100AC000D0ED032A90ED071A90ED024AD0ED061AF8
:100AD000D0ED013AD0ED050A33EE242A72EE815AA8
:100AE00033EE643A34EE215A73EEA04A73EEE03AE4
:100AF00032EEC11A74EE610A32EE454A72EE052AF0
:100B000074EEA51A34EEE55A73EE414A33EEA02A8C
:100B100033EE011A33EEE03A62EE805A61EE800A5B
:100B200064EE003A65EE002AC0ED005A64EE801AC9
:100B3000C0ED010A22EE002AC0ED023A21EE004A81
:100B4000C0ED032A23EE001AC0ED041A80ED052A39
:100B500080ED064A80ED071A2030491EACD102B064
:100B6000BDEC048BBDE8F08F70B504460D4680786F
:100B70002188A389626801280ED02846FFF7C2FCAD
:100B8000E078012818BF70BDE28921882846A36853
:100B9000BDE8704000F066B894ED040A2846FFF7FF
:100BA00041FEEDE710B40180234C446082704FF0A9
:100BB000000CC370B1F5807F20D004DC10292FD049
:100BC000402906D122E0B1F5806F0FD0B1F5805FEA
:100BD00004D04FF0FF3C10BC60467047012181817A
:100BE000C18116499FED160A816016E004218181BA
:100BF000C18114499FED140A81600EE010218181AA
:100C0000C18112499FED120A816006E04021818175
:100C1000C18110499FED100A816080ED040ADAE776
:100C20004FF480718181C1810C499FED0D0A816073
:100C300080ED040ACFE70000D4FD0008D4F50008D9
:100C400000008039DAF500080000803AF2F500086B
:100C50000000803B52F600080000803CD2F70008FC
:100C60000000803D2DE9F0014E0801244FF0000CFA
:100C700004EB51076146A6F102082CE061452AD237
:100C800000EBCC0500EBC104D5ED000A94ED000AA1
:100C9000C4ED000A85ED000AD5ED010A94ED010AC4
:100CA000C4ED010A85ED010ACC1900EBC4050CEB7B
:100CB000070400EBC40495ED000AD4ED000AC5ED6D
:100CC000000A84ED000AD4ED010A95ED010AC5ED94
:100CD000010A84ED010A00EBC104B44400EBCC0C22
:100CE00094ED020ADCED000A891CC4ED020A8CEDC9
:100CF000000ADCED010A94ED030AC4ED030A8CED51
:100D0000010AB3F800C089B203EB42034145B5D9EB
:100D1000BDE8F00170472DE9F00701254C0805EB0F
:100D200051064FF0000C651E6146002D88BFA84695
:100D30002ED8BDE8F0077047614529D250F83150F0
:100D400050F83C7040F8317040F83C5000EBC1075F
:100D500000EBCC097D68D9F804A0C7F804A0C9F855
:100D600004508D190CEB060750F8359050F837A059
:100D700040F835A040F8379000EBC50500EBC707F9
:100D8000D5F80490D7F804A0C5F804A0C7F80490DB
:100D900000EBC105A444AF6850F83C90C5F808903A
:100DA00040F83C7000EBCC0CEF68DCF80490C5F820
:100DB0000C90CCF80470B3F800C0891C03EB42031C
:100DC0004145B9D3BDE8F00770472DE9F00F012484
:100DD0004D084FF0000C04EB5107012D9CBFBDE8FE
:100DE000F00F7047014600EB870400264FEA5508D4
:100DF00015E000BFBCEB460F11D950F82CA0D1F87C
:100E00000090C1F800A040F82C900CEB0709D4F832
:100E100000A050F829B0C4F800B040F829A0AC44B4
:100E2000D1F8049050F82CA0C1F804A040F82C9000
:100E3000B3F800C008310834761C03EB4203B8F164
:100E40000108D7D1BDE8F00F704770477CB51D464B
:100E500016460C00009001D02044401E074B7B44F6
:100E60002A4669460190304600F013FD05461CB144
:100E70000020694600F020FD28467CBD610A000084
:100E80000FB4044910B503AA029800F039FD10BC54
:100E90005DF814FB700000200FB41CB5084B06AAC7
:100EA0007B4469460090059800F0F3FC044600205E
:100EB000694600F001FD20461CBC5DF814FB0000F3
:100EC000150A000070B50C460546012A05D02878A1
:100ED000800600D5EA69002302E0012305E05B1CDF
:100EE000934202D2E05C0028F9D1A869E618C01A42
:100EF000A861286A18442862284600F012FA04E023
:100F0000D5E9012114F8010B9047B442F8D32846E3
:100F100000F01DFA70BD00002DE9F04106460024E6
:100F200010687529314616A510D000F021FA002866
:100F300002DA404213A507E031688A0701D512A5FD
:100F400002E0490704D511A5012401E000F019FAD7
:100F500000210A2206F1240709E0B0FBF2FCB0FBF5
:100F6000F2F302FB1C00303078541846491C00286C
:100F7000F3D123462A463046BDE8F04100F00ABAD4
:100F8000000000002D0000002B00000020000000E9
:100F9000F0B40D460188090502D5214C7C4402E0DD
:100FA0001F4C7C440E34002100F1240608E002F0BE
:100FB0000F071209E75D42EA03721B097754491CC7
:100FC00052EA0307F3D102780023120704D5702DEB
:100FD00006D009B1022311342246F0BC00F0DAB980
:100FE00001231034F8E770B504460D462146106819
:100FF00000F0C7F9024629462046BDE870400023AC
:10100000C6E7D21D22F00703D3E90023C0E7036837
:10101000126843F0200303600823C3610023B7E78D
:10102000346E01002DE9F05F894604464FF0000A56
:10103000DFF874B1FB44C0F820A02046E16888477F
:10104000002874D0252806D0D4E901219047206AD1
:10105000401C2062F1E700265F462046E168884791
:101060002028054607DB312D05D2781910F8200C11
:1010700008B10643F1E7B00701D526F00406C4F82D
:101080001CA00027C4F818A02A2D09D0284607F074
:10109000B6FA38B304EB8708303DC8F8185019E0A9
:1010A00059F8041B204604EB87029161E1688847E8
:1010B000012F054618D1E069002820DA26F0200625
:1010C0001DE0D8F8180000EB800005EB4000303838
:1010D000C8F818002046E1688847054607F08FFAEF
:1010E0000028EED1012F0AD02E2D08D12046E1682C
:1010F00088477F1C0546022F46F02006C4DBA06906
:10110000002803DA404246F00106A061F00701D052
:1011100026F010066C2D0BD0682D09D04C2D39D03F
:101120006A2D35D0742D35D07A2D33D016E038E0C5
:10113000E1682F4620468847B842054609D16C2F02
:1011400026D04FF48060E168064320468847054674
:1011500004E06C2F1AD04FF4807006430DB3A5F154
:101160004100192802D8203546F400664A4629462F
:10117000204626604E46FFF761F880B101280BD06B
:10118000F61D26F0070000F1080956E74020E4E7C5
:101190008020D8E70020D6E706F104094DE728466D
:1011A00052E7206ABDE8F09FC46D010040EA0103E8
:1011B000024630B59B0710D14FF0013400E008C261
:1011C00008C91D1B9D4315EAC41FF8D013F0FF0189
:1011D00002F8011B0DD01B0AF8E711F8013B002BA8
:1011E00002F8013B05D011F8013B002B02F8013B4E
:1011F000F3D130BD10B5431C02E010F8011B71B1F2
:101200008107FAD14FF0013202C88C1A8C4314EADC
:10121000C211F9D0C01A0A0603D0C01E10BDC01AF0
:1012200010BD0A0401D0801E10BD0902FCD0401E72
:1012300010BD032A40F2308010F0030C00F015803E
:1012400011F8013BBCF1020F624498BF11F801CBC9
:1012500000F8013B38BF11F8013BA2F1040298BF2E
:1012600000F801CB38BF00F8013B11F0030300F098
:101270002D84083AC0F0088051F8043B083A51F830
:1012800004CBA0E80810F5E7121D5CBF51F8043B41
:1012900040F8043BAFF30080D20724BF11F8013BB4
:1012A00011F801CB48BF11F8012B24BF00F8013B16
:1012B00000F801CB48BF00F8012B704702F0FF0394
:1012C00043EA032242EA024200F034BC4FF000023B
:1012D00000B5134694469646203922BFA0E80C502C
:1012E000A0E80C50B1F12001BFF4F7AF090728BF07
:1012F000A0E80C5048BF0CC05DF804EB890028BF83
:1013000040F8042B08BF704748BF20F8022B11F0AB
:10131000804F18BF00F8012B704770477047704727
:10132000704770B5044685690068C10601D530264E
:1013300000E02026C00707D070BDD4E90121304667
:101340009047206A401C20626D1EF6D570BD70B5B6
:10135000044685690078C00707D170BDD4E9012132
:1013600020209047206A401C20626D1EF6D570BD7B
:1013700009684A0501D540B27047C905FCD500B2DD
:10138000704709684A0501D5C0B27047C905FCD548
:1013900080B270472DE9F0470D46994692460446C3
:1013A00000F124080168880604D5E06921F01001E5
:1013B000216000E00120A84201DD471B00E000277A
:1013C000A1697A1902EB0900081AA0612078C00609
:1013D00002D42046FFF7A5FF002608E0D4E901214A
:1013E0001AF806009047206A401C761C20624E4581
:1013F000F4DB2078C0060AD52046FFF792FF06E00E
:10140000D4E9012130209047206A401C2062381E18
:10141000A7F10107F4DC07E0D4E9012118F8050081
:101420009047206A401C2062281EA5F10105F3DCCC
:101430002046FFF78CFF2078000602D50220BDE889
:10144000F0870120FBE711680268006A530501D5A7
:1014500008700AE0D30501D5088006E0130603D51D
:10146000C217C1E9000200E0086001207047704720
:101470002DE9FF4F0C461E464FF0FF378BB0D2E9E7
:101480000001DDF860800A908A46C1F30A5505B96B
:101490003D46002108464FF00000BAF1000F00F46D
:1014A000400005DA00EB80004FF4400101EA5000F3
:1014B0004FEA9059B9F1010F00DDB9460A9850EA98
:1014C0004A000ED044F61050A5F2FF3545432F14C4
:1014D000B8F1000F1ED07542291E1EDDC9F10002B1
:1014E0001CE0B8F1010F4FF0000001D0302103E003
:1014F000F24305E02154401CB042FBDB30460022A1
:10150000002121540B99C1F80880C1E900200FB0D7
:10151000BDE8F08FBD1B6D1CDEE74A4600DA69426C
:1015200006A800F045FD06AB93E8070003AB83E88F
:10153000070050460A9900F045FE8DE80700A0F527
:1015400000501F3800900398002D09DD42F21F0162
:101550004A46084403A90390684601F0A4F808E04D
:10156000A0F500504A461F3803A90390684601F0D1
:10157000AEF88DE807000004000C03D04FF0FF30F8
:10158000410800E01046B8F1000F03D0002200929D
:1015900015461EE0751E05D400F0F0FA3032625593
:1015A0006D1EF9D5B3460122084302D000227F1CEC
:1015B00004E02078302801D100227F1E002A0997FC
:1015C00086D01DE0112D07DA00F0D8FA30326255CE
:1015D0006D1C50EA0102F5D1084302D00098C8B151
:1015E0000EE00021681E05E0235C625C6354225417
:1015F000401E491C8142F7DBAB46A81B401E0990E8
:10160000002004F80B000B98099AC0F80880C0E984
:10161000002B7CE711264FF0000859E72DE9F04F29
:1016200088460446D21D22F0070191B0D1E900019D
:10163000CDE90A0106F053FF02460B98C00F01D016
:101640002D2007E02068810701D52B2002E0202112
:1016500001EAC000032A099001D0072A05DB0346EE
:101660004146204600F04EFC0BE12078800601D573
:10167000E06900E00620B8F1650F814606D0B8F1B8
:10168000660F18D0B8F1670F70D131E00020B9F1C2
:10169000110F009001DB112301E009F101030AAAF7
:1016A00001A90CA8FFF7E4FEDDE90C70002609F1A2
:1016B0000105834647E001204B4600904FF000476C
:1016C0000AAA01A90CA8FFF7D3FEDDE90DB00C9919
:1016D0005D46002610B909F101000D18B9EB0500AF
:1016E00003D4C0F1FF3609F10105A5EB09002BE099
:1016F000B9F1010F01DA4FF001090020B9F1110F22
:101700000090484601DD112300E003460AAA01A922
:101710000CA8FFF7ADFEDDE90C704D4600268346B0
:10172000207800070AD4AB4500DA5D4601A8012DF8
:1017300004DD411911F8011C302907D04F4502DAA8
:1017400017F1040F04DA012082460FE06D1EEEE768
:10175000002F02DCED1B3E4403E0781CA84200DDB4
:101760007D1CB81B00F1010A4FF0004720780007EC
:1017700003D4AA4501DB4FF0FF3A0021B7F1004F37
:101780000DF143088DF8431024D002202B23002FA5
:1017900001DA7F422D230A21021EA0F1010000DCA4
:1017A0005FB197FBF1FC97FBF1F201FB1C7C174644
:1017B0000CF1300C08F801CDEEE7A8F10100037040
:1017C0002188090501D5452100E06521A0F1010826
:1017D00000F8011C09980FA9A1EB0807FF1D00B133
:1017E0000120411901EBEA70A1693844081A401E32
:1017F000A0612078C00602D42046FFF792FD099828
:1018000028B1D4E901219047206A401C2062207849
:10181000C00622D52046FFF784FD1EE0002E04DB23
:10182000B34502DD01A8805D00E03020D4E901214C
:101830009047206A401C2062761CAAF101005FEAF2
:10184000000A0AD100F096F9C0680168405CD4E94A
:1018500001219047206A401C2062281EA5F1010545
:10186000DCDC07E0D4E9012118F8010B9047206A7D
:10187000401C2062381EA7F10107F3DC2046FFF769
:1018800066FD032011B043E601694A1C0261087835
:10189000704700B58FB0CDE90131002105910549B0
:1018A0007944CDE9031011466846FFF7BBFB0FB042
:1018B00000BD0000E5FFFFFF0A6802F8010B0A60A7
:1018C0007047D1E900239A4202D2531C0B6010707A
:1018D000704710B5436913B1AFF3008001E0FFF723
:1018E000F1FA012010BD127800F124010A700022E3
:1018F0004A700122EDE711684FF0FF32E9E700007E
:10190000074B70B50D467B44FFF7C3FF04462846DE
:1019100000F0BCFB10B14FF0FF3070BD204670BD31
:101920007F7000002DE9FF5F15468A460446DFF808
:10193000AC80F8440027D8E900103E46CDE90010FD
:1019400010E03AF816106A4602A800F0A3FB411C0A
:1019500007D02178890603D5E269391891420DD85C
:101960000744761C2078800602D5E069B84205DD80
:10197000AE42E6DB3AF816000028E2D1A069C01BAF
:10198000A0612046FFF7CDFCD8E90010CDE900109A
:10199000002017E03AF818106A4602A800F07AFB17
:1019A000B0F1FF3F81460BD000250DF1080B05E09B
:1019B000D4E901211BF8050090476D1C4D45F7D374
:1019C00008F10100B0428046E4DB206A384420621E
:1019D0002046FFF7BCFCBDE8FF9F0000DA64010071
:1019E0002DE9F0418046D21D22F007020025D2E900
:1019F0000002F52915A614D0011E72F1000106DAC5
:101A00000023D0EB030063EB020211A608E0D8F834
:101A100000108B0701D50FA602E0490701D50EA6DD
:101A200001251146002408F1240704E000F0A6F87F
:101A300030323A55641C50EA0102F7D12B46324647
:101A400021464046BDE8F041FFF7A4BC000000007D
:101A50002D0000002B0000002000000030B4002109
:101A600000F1240408E002F00705D208303542EA0C
:101A70004372DB086554491C52EA0305F3D104683C
:101A8000002310A2250708D504F020040C4304D03D
:101A9000C46901230CA2641EC46130BCFFF77ABC88
:101AA00010B5044621461068FFF76BFC024620463D
:101AB000BDE810400023D1E7D21D22F00701D1E993
:101AC0000023CBE7000000003000000010B5203AF2
:101AD000C0F00B80B1E81850203AA0E81850B1E8E7
:101AE0001850A0E81850BFF4F5AF5FEA027C24BF9D
:101AF000B1E81850A0E8185044BF18C918C0BDE894
:101B000010405FEA827C24BF51F8043B40F8043B5C
:101B100008BF7047D20728BF31F8023B48BF11F811
:101B2000012B28BF20F8023B48BF00F8012B70476B
:101B30004FF000020429C0F0128010F0030C3FF4B3
:101B4000C7ABCCF1040CBCF1020F18BF00F8012B9D
:101B5000A8BF20F8022BA1EB0C01FFF7B9BB5FEA8D
:101B6000C17C24BF00F8012B00F8012B48BF00F80E
:101B7000012B7047004870479CEA002030B5B0F157
:101B80000A024FEA900E71F100034EEA817EB0EB3B
:101B90000E0061EB91014FEA101E4EEA017E10EB40
:101BA0000E0041EB11114FEA102E4EEA016E10EBC0
:101BB0000E0041EB11214FEA104E4EEA014E10EBA0
:101BC0000E0041EB1141401841F100014FEAD000F5
:101BD00040EA41704FEAD10110EB80054FEA8104E1
:101BE00044EA907444EB01046D1944EB0404521B65
:101BF000A3414FF0000348BF0A3200D530BD401C5E
:101C000041F1000130BD00002DE9F04F04460D46C2
:101C1000D21D22F0070089B0D0E90092484617464D
:101C2000394606F05CFC0246F80F01D02D2307E090
:101C30002068810701D52B2302E0202101EAC0039F
:101C40008DF820300BB1012000E00020032A8246ED
:101C500001D0072A04DB2946204600F053F93DE174
:101C60002078800601D40D2500E0E569C7F30A5607
:101C70000D2D49DA00214FEA175B08464FF00000AE
:101C8000002F00F4400007DA00EB80004FF4400121
:101C900000EBD07001EA60008115012901DD4FF0F1
:101CA000FF3100224FEA850CBCF1180F06D3134612
:101CB000ACF118004FF08052C24003E04FF48013A3
:101CC00023FA0CF30CF10C0CBCF1200F04D3ACF193
:101CD000200C09FA0CF001E007FA0CF000294FF093
:101CE000004801DD18B90FE00ED140450CD319EBC7
:101CF00002095F4121B9404502D19F4329EA020907
:101D0000BBEB175F00D0761C2088000502D57B480E
:101D1000784402E079487844193808AA302302F858
:101D20000A30037C0AF10101002E0AF1020A535421
:101D30006A4602DC4FF0300101E04FF031014FF014
:101D400001088DF8001002D0A6F2FF3603E059EA30
:101D5000470100D06A4E002D02DC2178090704D526
:101D60004FF002082E218DF80110C44600210BE02F
:101D7000C7F303433F01C35C491C6D1E02F80830E2
:101D8000052908F1010801DA002DF1DC00210CE041
:101D900000EB1973491C1B786D1E082902F80830E6
:101DA0004FEA091908F1010801DA002DF0DC217869
:101DB000890602D514E0A8F10108E04505DD02EB33
:101DC000080111F8011C3029F5D0B8F1000F07DD2A
:101DD00002EB080111F8011C2E2901D1A8F101081C
:101DE000002D05DD3E2102F808106D1E08F10108E6
:101DF000407C002E02F8080008F1010804DA2D20CA
:101E0000764202F8080002E02B2002F808000A21BE
:101E10004FF47A70864208F101080BDB96FBF0F371
:101E2000303302F8083096FBF0F308F1010800FBAC
:101E3000136601E0642E0CDB642096FBF0F3303374
:101E400002F8083096FBF0F308F1010800FB136676
:101E500001E00A2E06DB96FBF1F0303002F80800B4
:101E600008F1010896FBF1F001FB1060303002F838
:101E70000800A16908F1010808EB050202EB0A005D
:101E8000081AA0612078C00602D42046FFF749FA5C
:101E9000216A08AE01EB0A00206204E0D4E90121C6
:101EA00016F8010B9047BAF1010AF7D22078C00664
:101EB00002D52046FFF735FA6E4609E016F8010B09
:101EC0003E280FD0D4E901219047206A401C2062AF
:101ED000B8F10108F2D22046FFF739FA09B0032021
:101EE000BDE8F08F206A2844206203E0D4E9012194
:101EF000302090476D1EEBD3F8E70000176101001A
:101F000002FCFFFF2DE9F0411F460446032601684D
:101F1000072A01F4006004DB08B116A505E016A548
:101F200003E008B115A500E015A521F01000206020
:101F3000A069C01EA0610FB1401EA0612046FFF73E
:101F4000F0F94FB1D4E9012138469047206A401C8E
:101F50002062C01C206206E0206AFAE7D4E9012171
:101F600015F8010B9047761EF8D22046FFF7EFF9DF
:101F7000BDE8F0814E414E006E616E00494E460054
:101F8000696E660010B5436913B1AFF3008001E0DC
:101F9000FFF7C8FC012010BD128800F124018284E3
:101FA0000022C2840122EDE711684FF0FF32E9E719
:101FB0002DE9F047814616468AB0334878440DC86B
:101FC0008DE80D0030487844801C03AC0DC884E8CF
:101FD0000D0041F69B300844372190FBF1F290FB55
:101FE000F1F5A5F1800501FB12041B3C02D564420A
:101FF000012000E00020DFF890A080460027FA448E
:10200000AAF1BE0A0DE0E00709D03246684607EBA8
:1020100047010AEB810100F05AFB8DE807006410CC
:102020007F1C002CEFD1184F7F44AC3F18E0E8072D
:1020300014D007EB04100DF1180A90E80E008AE89E
:102040000E00C068F04201D198190890324606A9E6
:1020500003A800F03CFB03AB83E807006D10641C91
:10206000002DE4D132466946B8F1000F03A802D032
:1020700000F019FB01E000F02AFBC9E90001C9F8F2
:1020800008200AB0BDE8F087FC5E0100007B00F08C
:102090008000704770B516460C46054600F044F8BF
:1020A000036893F80101012806D0FF2C0FD8185DB2
:1020B00068B101202C7070BDD3F80701324621466B
:1020C00003F2071303442846BDE8704018474FF059
:1020D000FF3070BD004870477CEA00207546FFF76E
:1020E000F9FFAE4605006946534620F007008546D5
:1020F00018B020B5FEF77CF9BDE820404FF000068F
:102100004FF000074FF000084FF0000B21F00701DF
:10211000AC46ACE8C009ACE8C009ACE8C009ACE822
:10212000C0098D467047000010B5FFF723FD001D64
:1021300010BD00BFCDAF00000446AFF300802046C5
:10214000FEF7E1F84FF0013C50F8042B51F8043B46
:102150009A4221D1A2EB0C03934313EACC1317D17B
:1021600050F8042B51F8043B9A4215D1A2EB0C0312
:10217000934313EACC130BD150F8042B51F8043BD2
:102180009A4209D1A2EB0C03934313EACC13DBD0A0
:102190004FF00000704700BFD01A01BAB1FA81F1C8
:1021A00001F0180122FA01F0CB40C1F12001DBB2AD
:1021B000C0B2C01A2CFA01F3D11A914311EAC3112B
:1021C000E6D170475FEA400C08BF91F0000F4FEA7C
:1021D0008C234FEAC12243EA51514FEA1C5018BFE9
:1021E00000F5F0404FEA300018BF41F000415FEACF
:1021F0006C5C00F02980BCF1FF3F08BF40F08040DC
:102200007047130C06BF12044FF0100C4FF0000C77
:10221000130E04BF12020CF1080C130F04BF1201BD
:102220000CF1040C930F04BF92000CF1020CD30FBD
:1022300004BF52000CF1010C11464FF00002A0F156
:102240001F00A0EB0C00704711F0004F08BF704753
:1022500031F000413FF4D5AF0B0C06BF09044FF03D
:10226000100C4FF0000C0B0E04BF09020CF1080C0F
:102270000B0F04BF09010CF1040C8B0F04BF890084
:102280000CF1020CCB0F04BF49000CF1010CCCF196
:102290002003A0EB0C0022FA03F302FA0CF241EA4D
:1022A000030100F10100704720F07F4C80EA030039
:1022B00023F07F47ACEB070303F57C5300F00040AD
:1022C00003F1FF032DE980494FEA154B09B44FEAAA
:1022D000144325EA0B4E24EA03480FF2042606EBCA
:1022E000132749083E785FEA320203FB0667C7F509
:1022F000000707FB06F64FEA54374FEAD64606F1C9
:10230000020607FB066CCCF1005C4FEA1C472CEA86
:10231000074C07FB06F40CFB06F504EB15464FEAE9
:10232000961634BF00204FF000404FEAD13706FB2D
:1023300007FC4FEA1C4C0CFB0BF7D21B03FB0CF702
:1023400061EB07010CFB0EF7B0EB074072EB174295
:102350000CFB08F734BFA2EB0742B2EB074261EB7C
:1023600017414FEA0C444FEA910706FB07FC4FEA7E
:102370001C4C0CFB0BF7B0EBC74072EB573203FB66
:102380000CF734BFA2EBC742B2EBC74261EB573147
:102390000CFB0EF7B0EBC70072EB57720CFB08F7A3
:1023A00034BFA2EBC702B2EBC70261EB5771039FC8
:1023B0004FEA816141EA921104EBCC044FEAD13734
:1023C0004FEA826206FB07FC42EA90124FEA806005
:1023D0004FEA1C4C0CFB0BF7D21B03FB0CF761EB19
:1023E00007010CFB0EF7B0EB074072EB17420CFB3A
:1023F00008F734BFA2EB0742B2EB074261EB17418B
:102400004FEA8C554FEA910704EB9C2406FB07FC2E
:102410004FEA1C4C0CFB0BF7B0EBC74072EB57328A
:1024200003FB0CF734BFA2EBC742B2EBC74261EB30
:1024300057310CFB0EF7B0EBC70072EB57720CFB79
:1024400008F734BFA2EBC702B2EBC70261EB5771CA
:1024500015EB4C254FEA816141EA92114FEA826205
:102460004FEAD13742EA901206FB07FC44F1000420
:102470004FEA80604FEA1C4C0CFB0BF7D21B03FBAE
:102480000CF761EB07010CFB0EF7B0EB074072EBAA
:1024900017420CFB08F734BFA2EB0742B2EB07422E
:1024A00061EB174115EB1C154FEA813141EA92416E
:1024B0004FEA823242EA90424FEA80304FEA0C768D
:1024C00044F1000448EA03434EEA0B484FF0000E83
:1024D000B2EB080C71EB030724BF624639464EEBA2
:1024E0000E0E4FF0000B0018524149414BEB0B0B05
:1024F000B2EB080C71EB03077BF1000B24BF6246C3
:1025000039464EEB0E0E4FF0000B00185241494178
:102510004BEB0B0BB2EB080C71EB03077BF1000BE1
:1025200024BF624639464EEB0E0E51EA020718BF31
:1025300046F0010616EB0E7655F1000254F100014B
:1025400003D5BDE88901BDE80088BDE88901BDE883
:102550000048B619524141EB0101A3F10103704754
:1025600080807F7E7D7C7B7A7978777676757473D0
:10257000727171706F6E6E6D6C6C6B6A6A6968688F
:10258000676666656464636362616160605F5F5E25
:102590005E5D5D5C5C5B5B5A5A595958585757569B
:1025A0005655555554545353525252515150505000
:1025B0004F4F4F4E4E4D4D4D4C4C4C4B4B4B4A4A52
:1025C0004A49494948484847474747464646454596
:1025D00045444444444343434342424242414141CF
:1025E000002B26D4770021D01CB54FEA370703B45F
:1025F0004FF010004FF010014FF000000FBCBDE88D
:1026000010400BF1010BBBF1010F08BF5FEA170788
:1026100022BF12F1010211F101014FF0004143F11B
:10262000000300F0004043EA00007047F9D3570868
:10263000DAE746EA064613F1400F4FEA16461FDD79
:1026400013F1200FDFBF16430A46002120335B42FF
:10265000C8D0C3F1200746EA064602FA07F74FEA58
:10266000164646EA0706C3F1200722FA03F201FAEA
:1026700007F721FA03F14FF0000342EA0702B1E73E
:1026800046EA020646EA06464FEA164646EA0106CA
:10269000BCBF46EA0646360C4FF000034FF000027E
:1026A0004FF000019EE72DE9C048934630B491E811
:1026B000380007C831EA400C48BF34EA430C03D560
:1026C000FFF7F2FDFFF78CFFF0BCBDE800882DE9B5
:1026D000C048934630B491E8380007C810F0804FE6
:1026E00008BF13F0804F03D100F005F8FFF778FF23
:1026F000F0BCBDE8008820F07F4780EA030023F0AB
:102700007F4C07EB0C03A3F57C5300F00040A3F1D2
:10271000FE0392F0000F00F0B38095F0000F00F080
:1027200077802DE901494FEA11404FEA144621EA2A
:10273000004800FB06FC24EA064708FB06F607FBF8
:1027400008F800FB07F718EB06484CEB164C4FEA6D
:10275000124B18EB07484FEA15464CEB174022EA9C
:102760000B4E0BFB06FC25EA06470EFB06F607FBA5
:102770000EFE0BFB07F71EEB064E4CEB164C4FF014
:1027800000061EEB074E4CEB174B18EB0B0840F105
:10279000000018EB0E0B58EB000840F100008F1AF8
:1027A0004FF000013CBFC943661B14BFB5EB040CDE
:1027B00000213CBFC943F61B4FEA17444EEA8E0E78
:1027C00027EA04454FEA1C4704FB07622CEA074C42
:1027D00005FB07F70CFB05F604FB0CFC16EB0746A4
:1027E00042EB174216EB0C4642EB1C421BEB060673
:1027F00058EB0202414146EA9E0601D5BDE8018937
:10280000B619524141EB0101A3F10103BDE8018971
:102810004FEA14454FEA114724EA054621EA074CDE
:1028200005FB07F406FB07F70CFB06F105FB0CFCA8
:1028300011EB074144EB17444FEA124711EB0C41EF
:1028400044EB1C4422EA074C05FB07F206FB07F7A2
:102850000CFB06F605FB0CFC16EB074642EB174299
:1028600016EB0C4642EB1C456A1854F1000148BFB8
:102870007047B619524141EB0101A3F101037047C2
:1028800095F0000F37D04FEA11424FEA144721EA82
:10289000024624EA074C02FB07F106FB07F70CFB94
:1028A00006F402FB0CFC14EB074441EB17414FEA22
:1028B000154714EB0C4441EB1C4125EA074C02FB85
:1028C00007F506FB07F70CFB06F602FB0CFC16EB04
:1028D000074645EB174516EB0C4645EB1C42121913
:1028E00051F1000148BF7047B619524141EB010157
:1028F000A3F1010370474FEA14454FEA114724EA58
:10290000054621EA074C05FB07F106FB07F70CFB20
:1029100006F24FF0000605FB0CFC12EB074241EB00
:10292000174112EB0C4251EB1C4148BF7047921803
:1029300041EB0101A3F10103704700002DE9F047CD
:1029400004460D46164642F2280742F202084FF4AA
:1029500000594FF0C00A0421194801F037FA01214B
:10296000174801F033FA012E06D0022E0CD0032EA8
:1029700012D0042E20D117E047EA043141EAC521E4
:1029800088B200F0BBF817E048EA043141EAC521FB
:1029900088B200F0B3F80FE049EA043141EAC521FA
:1029A00088B200F0ABF807E04AEA043141EAC521F9
:1029B00088B200F0A3F800BF00BFBDE8F0870000B8
:1029C000001402402DE9F0412DED048B07463846F6
:1029D0000AF02CFE41EC190B9FED1C0B53EC102B55
:1029E0000AF074FE41EC180B0AF0DCFD0646B4B2A6
:1029F000C6F38F351748007801280BD024F4004423
:102A000044F4804425F4004545F4804501201149F3
:102A1000087010E00F48007801280CD124F480449D
:102A200044F4004425F4804545F400450948007805
:102A3000401C08490870204600F060F8284600F065
:102A40005DF8BDEC048BBDE8F08100003A8C30E20B
:102A50008E792540080100202DE9F0412DED048BF1
:102A60000646310348080AF0E1FD41EC190B9FEDE1
:102A7000200B53EC102B0AF00DFC41EC180B0AF064
:102A800091FD0746BCB2C7F30F351B4800780128FB
:102A90000FD024F4005444F4804444F4004425F45A
:102AA000005545F4804545F4004501201249087061
:102AB00014E011480078012810D144F4005444F483
:102AC000804444F4004445F4005545F4804545F401
:102AD000004509480078401C07490870204600F06E
:102AE0000DF8284600F00AF8BDEC048BBDE8F08133
:102AF00044174154FB2109400901002070B50446E8
:102B00000121194801F062F90421174801F05EF92A
:102B10000421154801F058F9002519E004F400409B
:102B200020B10221104801F051F903E002210E48C2
:102B300001F04AF901210C4801F046F94FF6FF7007
:102B400000EA44040121084801F040F9681CC5B2BC
:102B5000102DE3DB0421044801F038F9012102487B
:102B600001F032F970BD0000001402402DE9F04779
:102B700004460D46164642F2280742F202084FF478
:102B800000594FF0C00A4021194801F01FF91021E7
:102B9000174801F01BF9012E06D0022E0CD0032E8F
:102BA00012D0042E20D117E047EA043141EAC521B2
:102BB00088B200F0BBF817E048EA043141EAC521C9
:102BC00088B200F0B3F80FE049EA043141EAC521C8
:102BD00088B200F0ABF807E04AEA043141EAC521C7
:102BE00088B200F0A3F800BF00BFBDE8F087000086
:102BF000001402402DE9F0412DED048B07463846C4
:102C00000AF014FD41EC190B9FED1C0B53EC102B3B
:102C10000AF05CFD41EC180B0AF0C4FC0646B4B2A5
:102C2000C6F38F351748007801280BD024F40044F0
:102C300044F4804425F4004545F4804500201149C2
:102C4000087010E00F48007801280CD124F480446B
:102C500044F4004425F4804545F4004509480078D3
:102C6000401C08490870204600F060F8284600F033
:102C70005DF8BDEC048BBDE8F08100003A8C30E2D9
:102C80008E7925400A0100202DE9F0412DED048BBD
:102C90000646310348080AF0C9FC41EC190B9FEDC8
:102CA000200B53EC102B0AF0F5FA41EC180B0AF04C
:102CB00079FC0746BCB2C7F30F351B4800780128E2
:102CC0000FD024F4005444F4804444F4004425F428
:102CD000005545F4804545F4004500201249087030
:102CE00014E011480078012810D144F4005444F451
:102CF000804444F4004445F4005545F4804545F4CF
:102D0000004509480078401C07490870204600F03B
:102D10000DF8284600F00AF8BDEC048BBDE8F08100
:102D200044174154FB2109400B01002070B50446B3
:102D30001021194801F04AF84021174801F046F8DF
:102D40004021154801F040F8002519E004F4004046
:102D500020B12021104801F039F803E020210E486D
:102D600001F032F810210C4801F02EF84FF6FF70F8
:102D700000EA44041021084801F028F8681CC5B294
:102D8000102DE3DB4021044801F020F81021024817
:102D900001F01AF870BD0000001402402EE018483F
:102DA0000068012827D101F0BDF8164909684FF4E1
:102DB0007A7201FB02F0FFF705FE0020FFF74CFEE0
:102DC0001148027800210846FFF7B8FD0F4909684D
:102DD0004FF47A7201FB02F0FFF70CFF0C48006819
:102DE000FFF752FF0B48027800210846FFF7BEFEAE
:102DF000002003490860052008F0ECF8CFE7000048
:102E00004400002028000020200000202C0000208A
:102E1000380000202400002021B1826842F0010225
:102E2000826003E0826822F0010282607047000045
:102E30000021084A1168084A1140D0E900231A43CA
:102E400083681A43C3681A431143044AC2F804133F
:102E50007047000004230140E030FCFF00200140E7
:102E600000B58BB00121880204F03EFC01218802EC
:102E700004F04AFC00214FF4806004F045FC00207F
:102E80000190049003904FF48030029001A8FFF766
:102E9000CFFF002005908DF818008DF819004FF035
:102EA000805007904FF0C0600890002009900120EA
:102EB0008DF8280005A90B4800F040F801231A46B8
:102EC0000021084800F07AF80121064800F017F8C0
:102ED0000121044800F008F801210248FFF79CFF97
:102EE0000BB000BD0022014021B1826842F4807223
:102EF000826003E0826822F480728260704721B1B0
:102F0000826842F40072826003E0826822F40072F8
:102F1000826070471CB50121084604F0B5FB012012
:102F2000009003208DF8040000208DF8070069460A
:102F3000014800F0D5FE1CBD0000024030B502463D
:102F4000002000235068104C20400D790C6844EAA2
:102F500005242043506090680C4C2040D1E9035474
:102F60002C438D682C434D7944EA450420439060FE
:102F7000D06A20F470000C7D641EE4B2234340EA62
:102F80000350D06230BD0000FFFEFFFCFDF7FFC024
:102F900010B5FFF7BFFFFFF763FF064800F0D4FA54
:102FA00004F00DFB04F09FFF0349086804F0A6FE3F
:102FB00010BD000010640240BCDD0008F0B50446FE
:102FC0000D4600200021092D11DDE068A5F10A065B
:102FD00006EB4607072606FA07F18843A5F10A061D
:102FE00006EB460603FA06F10843E0600CE02069B0
:102FF00005EB4507072606FA07F1884305EB45066A
:1030000003FA06F108432061072A0FDA606B561EA7
:1030100006EB86071F2606FA07F18843561E06EBC5
:10302000860605FA06F10843606322E00D2A0FDAEE
:10303000206BD61F06EB86071F2606FA07F188438A
:10304000D61F06EB860605FA06F10843206310E05A
:10305000E06AA2F10D0606EB86071F2606FA07F1C5
:103060008843A2F10D0606EB860605FA06F1084331
:10307000E062F0BD0FB400B5B5B037A80190C9212A
:1030800002A8019B369AFDF7E1FE00200190411E47
:103090000848006809F0F4F902A907A0FDF7F0FE5E
:1030A00000231A4619460348006808F0B3FE35B0FD
:1030B0005DF814FB1C0000202573000000BFFEE734
:1030C000E6B048E04FF4C87102A8FEF7FFF802A886
:1030D00008F026F9204B4FF4C87220A121A0FFF779
:1030E000C9FF1D4B40F291121CA12EA0FFF7C2FF99
:1030F00002A8194B4FF4C97218A1009039A0FFF72C
:10310000B9FF154B40F2931214A116A0FFF7B2FFBE
:103110004FF4C87102A8FEF7D9F802A808F092F897
:103120000D4B4FF4CC720DA132A0FFF7A3FF02A804
:10313000094B40F2991209A100902AA0FFF79AFFCB
:10314000054B4FF4CD7205A137A0FFF793FF44F66E
:10315000206007F03FFFB5E7B0DC00086D61696EE5
:103160002E6300005B25733A253035645D5B257363
:103170005D2D2D2D2D2D2D2D2D2D2D2D2D2D2D2D4F
:103180002D2D2D2D2D2D2D2D2D2D2D2D2D2D2D2D6F
:103190002D2D2D2D2D2D2D2D2D2D2D2D2D2D0D0AA2
:1031A000000000005B25733A253035645D5B2573B4
:1031B0005DC8CECEF1C3FB202020202020C8CECE7B
:1031C000F1D7B4CCAC20D3C5CFC8BCB6202020CA20
:1031D000A3D3E0D5BB20C8CECEF1D0F2BAC50D0A3C
:1031E000000000005B25733A253035645D5B257374
:1031F0005D2573005B25733A253035645D5B25736F
:103200005DC8CECEF1C3FB20202020202020D4CBCF
:10321000D0D0BCC6CAFD202020202020202020C0E5
:10322000FBD3C3C2CA0D0A005B25733A253035644F
:103230005D5B25735D2D2D2D2D2D2D2D2D2D2D2DF2
:103240002D2D2D2D2D2D2D2D2D2D2D2D2D2D2D2DAE
:103250002D2D2D2D2D2D2D2D2D2D2D2D2D2D2D2D9E
:103260002D2D0D0A0A00000070B5404800F076FAD6
:10327000C0F5FA603E49088008460088B0F5806FC6
:103280002ADA08460088C0F580603A49088000259F
:1032900008460088C0F5FA6084B209E0364830F884
:1032A0001400364921F81500601C84B2681C85B2F0
:1032B000B4F5FA6FF2DB002409E02F4830F814006F
:1032C0002E4921F81500601C84B2681C85B228487C
:1032D00000888442F1DB14E0002525480088A0F531
:1032E000806084B209E0244830F81400234921F8B2
:1032F0001500601C84B2681C85B21D480088844299
:10330000F1DB00201E4908804FF4805048800020E7
:10331000888000241EE0194830F8140018490988F4
:10332000884203DD154830F8140001E01448008895
:1033300013490880114830F814004988884203DA9C
:103340000E4830F8140001E00D4840880C494880D0
:10335000601C84B2B4F5806FDDDB09480088084941
:103360004988401A0649888070BD000010640240F8
:10337000C4000020C6000020E802002088120020BF
:10338000F000002000B595B00121084604F07CF95A
:103390000121480704F098F90121480504F074F967
:1033A0001020139003208DF8500000208DF853005A
:1033B00013A91F4800F094FC04200F9000201090E7
:1033C00012900FA900F066F81A4800F011F94FF0BA
:1033D00060600090184801901848029040200390C7
:1033E00080200490002005904FF4806006904000FB
:1033F0000790800008904011099040020A90002038
:103400000B9001200C9000200D900E906946094809
:1034100000F0F8F90121074800F08AF801210020A6
:1034200000F00EF80121002000F01EF815B000BDDC
:10343000000002408860024008740040BADC0008C6
:1034400039B1084A1268012383401A43054B1A60B8
:1034500006E0044A1268012383409A43014B1A6034
:10346000704700000074004041B1094A12684FF4EF
:10347000805383401A43064B1A6007E0044A1268DF
:103480004FF4805383409A43014B1A607047000009
:103490000074004030B5002200230A4C226840F638
:1034A000FE748440A243D1E900452C438D682C432F
:1034B000CD6844EA050303FA00F42243014C22607C
:1034C00030BD00000074004010B504F079FDFFF736
:1034D00059FF42F2107004F023FC10BD10B50549ED
:1034E000054800F03FF918B10249034800F006F81A
:1034F00010BD000020800010106402400246094BFD
:103500009A4201D2084801E00648103801F0005301
:103510001BB1064B0B40C36002E0044B0B408360C1
:103520007047000010640240006002407D0F7D0F74
:1035300021B1026842F00102026003E0026822F059
:10354000010202607047000010B590B004462548A3
:10355000844204D90121880504F096F803E0012192
:10356000480504F091F8204600F042F800BF2046DC
:1035700000F0EAF80028FAD14FF0806001901A4874
:1035800002901A480390002004904FF4FA600590CE
:10359000002006904FF48060079040000890800063
:1035A000099040110A9040020B9000200C900320DB
:1035B0000D9000200E900F9001A9204600F022F9F6
:1035C000102108481030FFF799FF0122102105480B
:1035D000103000F0F9F801212046FFF7A9FF10B0E4
:1035E00010BD0000006402404C220140E8020020AF
:1035F000016821F0010101600021016041608160EA
:10360000C1600161212141614A49884204D13D21C3
:10361000484A103A91608CE046491831884205D1F9
:103620004FF47461434A103A916082E0414930316D
:10363000884205D14FF474113E4A103A916078E007
:103640003C494831884205D14FF07461394A103AFB
:1036500091606EE037496031884204D13649354A7D
:10366000103AD16065E033497831884204D133495A
:10367000304A103AD1605CE02E499031884204D142
:103680002F492C4A103AD16053E02A49A831884288
:1036900005D14FF03D51274A103AD16049E0294900
:1036A000884204D13D21274A083A116041E025496A
:1036B0001831884205D14FF47461224A083A1160EA
:1036C00037E020493031884205D14FF474111D4A4A
:1036D000083A11602DE01B494831884205D14FF06E
:1036E0007461184A083A116023E016496031884233
:1036F00004D11149134A121F11601AE0114978319F
:10370000884204D10D490F4A121F116011E00D4982
:103710009031884204D10A490A4A121F116008E018
:103720000849A831884204D14FF03D51054A121F83
:1037300011607047106002403D000020400F0020E3
:1037400000003D2010640240014600200A6802F09B
:1037500001020AB1012000E00020704701464868DC
:1037600080B2704770B50246002000240025124E3A
:10377000B24201D2114B01E00F4B103B104E0E40F4
:1037800036B11E2606EAD124166806EA040502E0D0
:10379000566906F0800501F000560EB15C6800E045
:1037A0001C68084E344004EA010616B10DB1012030
:1037B00000E0002070BD0000106402400060024084
:1037C0003C0F3C0F7D0F7D0F10B501F080034BB116
:1037D00022B1436943F08003436103E0436923F06E
:1037E0008003436180290BD02AB1036801F01E04D5
:1037F0002343036004E0036801F01E04A343036055
:1038000010BD000010B500220268134B1A40CC68AE
:103810000B6823434C6923438C692343CC692343BE
:103820000C6A23434C6A23438C6A23434C6B234327
:103830008C6B23431A430260426922F00702D1E9EC
:103840000B3423431A4342610B6943604B68836026
:103850008B68C36010BD00003F801CF07047000003
:103860002DE9F0412DED028B05460E46174600244A
:1038700018E01B4830F8140000EE100AB8EE400AB9
:10388000DFED180A20EE208A174901EBC40080ED15
:10389000008A9FED160A6000401C01EB800080ED5D
:1038A000000A641CB4F5806FE3DB0F491048FDF794
:1038B0005BF94FF480620F490B48FCF7ABFD2946DA
:1038C0000C4806F0F9FF04F05DFF03F0A1FF394654
:1038D000304603F0F7FFBDEC028BBDE8F08100003D
:1038E000881200206740533A882200200000000020
:1038F000C85300208842002051B18200A2F1C0428A
:10390000126842F001038200A2F1C042136009E094
:103910008200A2F1C0421268034B1A408300A3F157
:10392000C0431A6070470000FEFF0F00D0E901128B
:103930001143C2681143026911434269114382690C
:103940001143C2691143026A1143426A1143826AF8
:103950001143C26A1143026B114302689200A2F143
:10396000C0421160816808290BD101688900A1F16A
:10397000C041096841F0400201688900A1F1C041DD
:103980000A60416B0968426B526841EA0211426B5E
:10399000926841EA0221426B928941EA0241426BFC
:1039A000128A41EA0251426B127D41EA0261426B86
:1039B000926911430268521C9200A2F1C042116048
:1039C000C16AB1F5804F1BD1816B0968826B526867
:1039D00041EA0211826B926841EA0221826B128AEB
:1039E00041EA0251826B127D41EA0261826B926967
:1039F000114302689200A2F1C042C2F8041107E02C
:103A00006FF0704201688900A1F1C041C1F8042142
:103A10007047000000B599B001217A2003F034FE10
:103A20000121084603F040FE0C220021A74800F0C7
:103A30009FF90C220121A54800F09AF90C220421DB
:103A4000A24800F095F90C220521A04800F090F959
:103A50000C2208219D4800F08BF90C2209219B487B
:103A600000F086F90C220A21984800F081F90C2216
:103A70000B21964800F07CF90C221146934800F087
:103A800077F90C220D21914800F072F90C220E21D9
:103A90008E4800F06DF90C220F218C4800F068F977
:103AA0000C2200218A4800F063F90C220121884889
:103AB00000F05EF90C220721854800F059F90C222C
:103AC0000821834800F054F90C220921804800F0B5
:103AD0004FF90C220A217E4800F04AF90C220B21F2
:103AE0007B4800F045F90C221146794800F040F976
:103AF0000C220D21764800F03BF90C220E2174486F
:103B000000F036F90C220F21714800F031F90C2237
:103B10000021704800F02CF90C2201216D4800F0C2
:103B200027F90C2202216B4800F022F90C22032114
:103B3000684800F01DF90C220421664800F018F9CD
:103B40000C220521634800F013F90C22114661484C
:103B500000F00EF90C220D215E4800F009F90C224C
:103B60000E215C4800F004F90C220F21594800F0A6
:103B7000FFF80C220021584800F0FAF80C2201212D
:103B8000554800F0F5F80C220221534800F0F0F8F7
:103B90000C220321504800F0EBF80C2204214E487F
:103BA00000F0E6F80C2205214B4800F0E1F80C2269
:103BB0000A21494800F0DCF84FF40040179001203A
:103BC0008DF8600000208DF8620002208DF8610001
:103BD00001208DF8630017A9404800F081F84FF6E6
:103BE0003370179002208DF8600000208DF862007D
:103BF00003208DF8610001208DF8630017A9334878
:103C000000F06EF84FF68370179002208DF8600078
:103C100000208DF8620003208DF8610001208DF8EE
:103C2000630017A92A4800F05BF84FF23F00179095
:103C300002208DF8600000208DF8620003208DF8CE
:103C4000610001208DF8630017A9224800F048F8B0
:103C500040F23F40179002208DF8600000208DF860
:103C6000620003208DF8610001208DF8630017A920
:103C7000194800F035F800200190029018200390B8
:103C800000200490059006900790042008900020E2
:103C900009900A9010200B9000200C900E900D902F
:103CA0000F9010904FF480501190002012901390BC
:103CB000149001A81590169008A8FFF737FE01216F
:103CC0000420FFF719FE19B000BD0000000C0240EF
:103CD000001002400014024000180240000402409C
:103CE000F0B50A4600210023002400BF3DE0012575
:103CF00005FA01F3156805EA03049C4234D105680E
:103D00004F000326BE40B543056015794E00B5400F
:103D10000668354305601579012D02D01579022D0D
:103D200016D185684F000326BE40B543856055799E
:103D30004E00B540866835438560456801268E4053
:103D4000B5434560456896798E40B6B235434560C7
:103D5000C5684F000326BE40B543C560D5794E0007
:103D6000B540C6683543C560491C1029BFD3F0BDB6
:103D7000F0B5002300244D07ED0E02FA05F3CE1036
:103D800000F1200555F826504E07F70E0F26BE40CD
:103D9000B543CF1000F1200646F82750CE1000F1B1
:103DA000200555F8265045EA0304CE1000F1200501
:103DB00045F82640F0BD0246002013690B400BB1C8
:103DC000012000E000207047418370470183704765
:103DD0002DE9F04104464C4F97FBF3F54B4F97FB11
:103DE000F3F6B1EE081AB0EE410A0027176004EBB3
:103DF000850797ED001AF0EE410A28465EE004EBD5
:103E0000800797ED001A70EE801AB4EEE11AF1EE19
:103E100010FA4BDD04EB800797ED001A471C04EB0A
:103E20008707D7ED001A71EE801AB4EEE11AF1EEB1
:103E300010FA3BDD04EB8007D7ED001A9FED342A22
:103E4000C1EE822AB0EE621AB0421BDADFED311AFF
:103E5000B4EEE11AF1EE10FA00D22EE004EB800786
:103E6000D7ED001ADFF8B0C017680CEB8707C7ED75
:103E7000001ADFF8A8C017684CF8270017687F1CE5
:103E8000176012E004EB8007D7ED001ADFF888C056
:103E900017680CEB8707C7ED001ADFF880C01768BA
:103EA0004CF8270017687F1C176000BF04EB8007E1
:103EB00097ED001AF0EE410A00BF401C4F1E8742EA
:103EC0009DDC04EB870797ED001A70EE801AB4EEC4
:103ED000E11AF1EE10FA15DD4F1E04EB870797ED9E
:103EE000001ADFF834C017680CEB870787ED001A5B
:103EF0004F1EDFF82880D2F800C048F82C701768F1
:103F00007F1C1760BDE8F08100C0510200407207BD
:103F1000000000449A99993E88520020D85200200F
:103F200000BFFEE71CB504211D48FFF74FFF4021ED
:103F30001B48FFF74BFF0121202003F0A5FB772052
:103F4000009001208DF8040002208DF8050000206B
:103F50008DF8060069461248FFF7C2FE6946104810
:103F6000FFF7BEFE69460E48FFF7BAFE69460C48E9
:103F7000FFF7B6FE69460A48FFF7B2FE69460848F1
:103F8000FFF7AEFE03F024FD03F032FD4FF40450C2
:103F9000FEF7B4FD4FF40450FEF7C8FE1CBD000050
:103FA000001402401CB50121112003F06DFB1C2000
:103FB000009000208DF8040003208DF805000120FA
:103FC0008DF8070069460648FFF78AFE0120009039
:103FD00002208DF8070069460248FFF781FE1CBDEC
:103FE000001002400000024010B5044614B1012048
:103FF0002C4908702B480078002837D010212A4817
:10400000FFF7D9FE78B108212748FFF7D4FE50B159
:1040100004212548FFF7CFFE28B101212348FFF7EF
:10402000CAFE012822D10A2004F014FB00201D49F9
:10403000087010211C48FFF7BEFE08B9012010BD12
:1040400008211948FFF7B7FE08B90220F7E7042155
:104050001548FFF7B0FE08B90320F0E70121134827
:10406000FFF7A9FE01281BD10420E8E710210E4824
:10407000FFF7A1FE012813D108210B48FFF79BFE93
:1040800001280DD104210848FFF795FE012807D12A
:1040900001210648FFF78FFE10B901200149087081
:1040A0000020CCE710010020001002400000024078
:1040B00024E01349096809BB0020FFF795FF012898
:1040C0000DD0022815D0032817D10E4909680529FB
:1040D00004DB0C490968491F0A4A11600DE00949CF
:1040E0000968AF2904DC07490968491D054A1160C0
:1040F00003E00121024A116000BF00BFD9E70000C0
:104100003C0000203800002070B504460026094815
:104110000588408845430021084602F0ADFE03F0C3
:1041200035F900BF02E004480480761CAE42FAD3A1
:1041300070BD0000DC5300208000006C10B5044608
:1041400049488471002C45D1F020474908804FF43C
:10415000A07048800846808845F21051884210D1EE
:104160004FF43050404908814FF4285048814FF4B3
:104170002C5088814FF4F07008804FF448704880CC
:104180001AE03948808841F6631188420DD12C200D
:10419000354908812B2048812A2088814FF4F0700E
:1041A00008804FF44870488006E02C202E49088192
:1041B0002A2048812B2088812B48808845F21031A5
:1041C00088424CD14FF4A070274908804FF4F0701A
:1041D000488044E04FF4A07023490880F0204880D4
:1041E0000846808845F21051884210D14FF4305073
:1041F0001D4908814FF4285048814FF42C50888184
:104200004FF4487008804FF4F07048801AE0164868
:10421000808841F6631188420DD12C201249088113
:104220002A2048812B2088814FF4487008804FF461
:10423000F070488006E02C200B4908812A20488134
:104240002B2088810848808845F21031884206D1A9
:104250004FF4F070044908804FF4A07048800020AB
:1042600002F0F0FC10BD0000DC53002030B5044625
:104270000D463948808845F21051884220D1364990
:10428000488903F077F8201203F068F83249498929
:10429000491C88B203F06EF8E0B203F05FF82E49D3
:1042A000888903F067F8281203F058F82A498989A9
:1042B000491C88B203F05EF8E8B203F04FF842E020
:1042C0002548808841F66311884228D122488079A8
:1042D00020B921480088401E001B84B21E4948892D
:1042E00003F048F8201203F039F8E0B203F036F892
:1042F000201203F033F8E0B203F030F81649888951
:1043000003F038F8281203F029F8E8B203F026F891
:10431000281203F023F8E8B203F020F813E00E4966
:10432000488903F027F8201203F018F8E0B203F0F0
:1043300015F80949888903F01DF8281203F00EF8D2
:10434000E8B203F00BF804480089044908804FF0F4
:10435000D840A0F8802030BDDC5300207E00006CE7
:1043600000B5A1B00020209001217A2003F08CF943
:104370000121084603F098F94FF400401E900120F7
:104380008DF87C0000208DF87E0002208DF87D00E5
:1043900001208DF87F001EA9FE48FFF7A1FC4CF21A
:1043A00033701E9002208DF87C0000208DF87E0076
:1043B00003208DF87D0001208DF87F001EA9F648AE
:1043C000FFF78EFC4FF680701E9002208DF87C0067
:1043D00000208DF87E0003208DF87D0001208DF8EF
:1043E0007F001EA9ED48FFF77BFC4FF480501E9024
:1043F00002208DF87C0000208DF87E0003208DF8CF
:104400007D0001208DF87F001EA9E548FFF768FCBC
:104410004FF480501E9002208DF87C0000208DF813
:104420007E0003208DF87D0001208DF87F001EA9FD
:10443000DC48FFF755FC0C220021D748FFF798FC19
:104440000C220121D448FFF793FC0C220421D2480E
:10445000FFF78EFC0C220521CF48FFF789FC0C22C8
:104460000821CD48FFF784FC0C220921CA48FFF738
:104470007FFC0C220A21C848FFF77AFC0C220E218F
:10448000C548FFF775FC0C220F21C348FFF770FCED
:104490000C220721C148FFF76BFC0C220821BF4802
:1044A000FFF766FC0C220921BC48FFF761FC0C22D7
:1044B0000A21BA48FFF75CFC0C220B21B748FFF732
:1044C00057FC0C221146B548FFF752FC0C220D2177
:1044D000B248FFF74DFC0C220E21B048FFF748FC14
:1044E0000C220F21AD48FFF743FC0C221146AC48CB
:1044F000FFF73EFC0C221146AA48FFF739FC0F20BB
:104500000890002009903C200A9000200B900C900D
:104510000D900E9009200190002002900820039039
:104520000020049005900690079006200F90002030
:10453000109011901020129000201390159014905C
:10454000169017904FF480501890002019904FF457
:1045500080401A9000201B9008A81C9001A81D9074
:104560000FA8FFF7E3F901210620FFF7C5F9322074
:1045700004F070F8D32002F0FDFE02F029FB8A4916
:10458000888002F025FB8849888002F021FB86495B
:104590008880084680884FF6FF7101EA0020824932
:1045A000888002F015FB8049898808437E4988800D
:1045B0000846808849F2413188427DD0042002F0CB
:1045C000D9FE02F005FB7849888002F001FB7649AC
:1045D000888002F0FDFA74498880084680884FF68A
:1045E000FF7101EA00207049888002F0F1FA6E49FB
:1045F000898808436C4988800846808848F252516F
:10460000884203D147F2897067498880664880886C
:1046100047F289718842D0D0D42002F0ABFE02F07C
:10462000D7FA6149888002F0D3FA5F49888002F0A6
:10463000CFFA5D498880084680884FF6FF7101EA0D
:1046400000205949888002F0C3FA574989880843F5
:10465000554988800846808845F2103188426BD0E1
:1046600055214FF4704002F09BFEAA214FF2010049
:1046700002F096FE52214FF2020002F091FE082154
:104680004FF2030002F08CFE01214FF2040002F011
:1046900087FE4FF4454002F06DFE02F099FA424960
:1046A0008880084680884FF6FF7101EA00203E4965
:1046B00088804CF2015000E03EE002F05BFE02F028
:1046C00087FA39498988084337498880052003F0EB
:1046D000C1FF35488088B0F5004F03D145F2105036
:1046E000314988803048808845F21051884223D073
:1046F000A12002F03FFE02F06BFA2B49888002F005
:1047000067FA29498880084680884FF6FF7101EAD8
:1047100000202549888002F05BFA234989880843F4
:10472000214988800846808845F26171884203D11A
:1047300041F663101C4988801B48808849F241314A
:10474000884217D01848808847F28971884211D072
:104750001548808845F2103188420BD01248808875
:1047600045F21051884205D00F48808841F6631108
:1047700088423BD10D48006820F00F004FF02041E7
:10478000C1F81C010846D0F81C0120F47060C1F883
:104790001C010DE000040240000C02400010024029
:1047A0000014024000180240DC5300201C0100A04D
:1047B0000846D0F81C0140F00300C1F81C01FE4877
:1047C000808847F28971884208D1FC48006840F42B
:1047D00040704FF02041C1F81C0107E0F748006825
:1047E00040F400704FF02041C1F81C01F24881886C
:1047F000F3A0FCF745FBF048808849F2413188423C
:104800007ED1CF2002F0B6FD002002F0A7FDC1202E
:1048100002F0A4FD302002F0A1FDED2002F0AAFD7F
:10482000642002F09BFD032002F098FD122002F0AC
:1048300095FD812002F092FDE82002F09BFD85208D
:1048400002F08CFD102002F089FD7A2002F086FD36
:10485000CB2002F08FFD392002F080FD2C2002F0E9
:104860007DFD002002F07AFD342002F077FD022069
:1048700002F074FDF72002F07DFD202002F06EFDB5
:10488000EA2002F077FD002002F068FD002002F02F
:1048900065FDC02002F06EFD1B2002F05FFDC1200F
:1048A00002F068FD012002F059FDC52002F062FD12
:1048B000302002F053FD302002F050FDC72002F0FE
:1048C00059FDB72002F04AFD362002F053FD482082
:1048D00002F044FD3A2002F04DFD552002F03EFD6D
:1048E000B12002F047FD002002F038FD1A2002F04E
:1048F00035FDB62002F03EFD0A2002F02FFD00E05B
:1049000097E0A22002F02AFDF22002F033FD002001
:1049100002F024FD262002F02DFD012002F01EFDF4
:10492000E02002F027FD0F2002F018FD2A2002F0FF
:1049300015FD282002F012FD082002F00FFD0E20C8
:1049400002F00CFD082002F009FD542002F006FDE3
:10495000A92002F003FD432002F000FD0A2002F02E
:10496000FDFC0F2002F0FAFC002002F0F7FC002012
:1049700002F0F4FC002002F0F1FC002002F0EEFC5A
:10498000E12002F0F7FC002002F0E8FC152002F024
:10499000E5FC172002F0E2FC072002F0DFFC11200A
:1049A00002F0DCFC062002F0D9FC2B2002F0D6FC41
:1049B000562002F0D3FC3C2002F0D0FC052002F08F
:1049C000CDFC102002F0CAFC0F2002F0C7FC3F20F3
:1049D00002F0C4FC3F2002F0C1FC0F2002F0BEFC3C
:1049E0002B2002F0C7FC002002F0B8FC002002F0EF
:1049F000B5FC012002F0B2FC3F2002F0AFFC2A20FF
:104A000002F0B8FC002002F0A9FC002002F0A6FC95
:104A1000002002F0A3FCEF2002F0A0FC112002F025
:104A2000A9FC782003F016FE292002F0A3FC02F076
:104A3000B3B86148808847F2897188427ED11120DD
:104A400002F098FC782003F005FE362002F092FC7C
:104A5000002002F083FC3A2002F08CFC052002F0DA
:104A60007DFCB22002F086FC0C2002F077FC0C20CA
:104A700002F074FC002002F071FC332002F06EFCA6
:104A8000332002F06BFCB72002F074FC352002F0FA
:104A900065FCBB2002F06EFC322002F05FFCC020FF
:104AA00002F068FC0C2002F059FCC22002F062FC0B
:104AB000012002F053FCC32002F05CFC102002F045
:104AC0004DFCC42002F056FC202002F047FCC6201A
:104AD00002F050FC0F2002F041FCD02002F04AFC12
:104AE000A42002F03BFCA12002F038FCE02002F000
:104AF00041FCD02002F032FC002002F02FFC02200A
:104B000002F02CFC072002F029FC0A2002F026FC0F
:104B1000282002F023FC322002F020FC442002F086
:104B20001DFC422002F01AFC062002F017FC0E20A9
:104B300002F014FC122002F011FC00E061E01420ED
:104B400002F00CFC172002F009FCE12002F012FC3C
:104B5000D02002F003FC002002F000FC022002F052
:104B6000FDFB072002F0FAFB0A2002F0F7FB2820E9
:104B700002F0F4FB312002F0F1FB542002F0EEFBD6
:104B8000472002F0EBFB0E2002F0E8FB1C2002F0B5
:104B9000E5FB172002F0E2FB1B2002F0DFFB1E20EA
:104BA00002F0DCFB2A2002F0E5FB002002F0D6FB3D
:104BB000002002F0D3FB0BE0DC5300201C0100A01E
:104BC000204C43442049443A25780D0A0000000057
:104BD000002002F0C3FBEF2002F0C0FB2B2002F00C
:104BE000C9FB002002F0BAFB002002F0B7FB012055
:104BF00002F0B4FB3F2002F0B1FB292002F0BAFB27
:104C000015E7FE48808845F21031884240F07C87E5
:104C1000ED2002F0AFFB012002F0A0FBFE2002F02D
:104C20009DFBEE2002F0A6FBDE2002F097FB212088
:104C300002F094FBF12002F09DFB012002F08EFBBC
:104C4000DF2002F097FB102002F088FBC42002F066
:104C500091FB8F2002F082FBC62002F08BFB00202C
:104C600002F07CFBE22002F079FBE22002F076FB0E
:104C7000E22002F073FBBF2002F07CFBAA2002F0CE
:104C80006DFBB02002F076FB0D2002F067FB0020E8
:104C900002F064FB0D2002F061FB002002F05EFBDD
:104CA000112002F05BFB002002F058FB192002F0FB
:104CB00055FB002002F052FB212002F04FFB0020A8
:104CC00002F04CFB2D2002F049FB002002F046FBD5
:104CD0003D2002F043FB002002F040FB5D2002F08B
:104CE0003DFB002002F03AFB5D2002F037FB002084
:104CF00002F034FBB12002F03DFB802002F02EFBDD
:104D0000002002F02BFB8B2002F028FB002002F099
:104D100025FB962002F022FB002002F01FFBB220B0
:104D200002F028FB002002F019FB002002F016FB25
:104D3000022002F013FB002002F010FB032002F01F
:104D40000DFB002002F00AFBB32002F013FB002051
:104D500002F004FB002002F001FB002002F0FEFA4A
:104D6000002002F0FBFA002002F0F8FA002002F026
:104D7000F5FA002002F0F2FA002002F0EFFA00202B
:104D800002F0ECFA002002F0E9FA002002F0E6FA64
:104D9000002002F0E3FA002002F0E0FA002002F026
:104DA000DDFA002002F0DAFA002002F0D7FA002043
:104DB00002F0D4FA002002F0D1FA002002F0CEFA7C
:104DC000002002F0CBFA002002F0C8FA002002F026
:104DD000C5FA002002F0C2FA002002F0BFFAB420A7
:104DE00002F0C8FA8B2002F0B9FA002002F0B6FAFD
:104DF000962002F0B3FA002002F0B0FAA12002F0EF
:104E0000ADFA002002F0AAFAB52002F0B3FA0220AF
:104E100002F0A4FA002002F0A1FA032002F09EFAA8
:104E2000002002F09BFA042002F098FA002002F021
:104E300095FAB62002F09EFA002002F08FFA0020C8
:104E400002F08CFAB72002F095FA002002F086FA00
:104E5000002002F083FA3F2002F080FA002002F0E6
:104E60007DFA5E2002F07AFA002002F077FA6420E0
:104E700002F074FA002002F071FA8C2002F06EFA4F
:104E8000002002F06BFAAC2002F068FA002002F079
:104E900065FADC2002F062FA002002F05FFA70206E
:104EA00002F05CFA002002F059FA902002F056FA63
:104EB000002002F053FAEB2002F050FA002002F03A
:104EC0004DFADC2002F04AFA002002F047FAB8203E
:104ED00002F050FA002002F041FA002002F03EFAFF
:104EE000002002F03BFA002002F038FA002002F025
:104EF00035FA002002F032FA002002F02FFA0020EA
:104F000002F02CFABA2002F035FA242002F026FA38
:104F1000002002F023FA002002F020FA002002F024
:104F20001DFAC12002F026FA202002F017FA002014
:104F300002F014FA542002F011FA002002F00EFAE6
:104F4000FF2002F00BFA002002F008FAC22002F063
:104F500011FA0A2002F002FA002002F0FFF9042000
:104F600002F0FCF9002002F0F9F9C32002F002FA85
:104F70003C2002F0F3F9002002F0F0F93A2002F0B0
:104F8000EDF9002002F0EAF9392002F0E7F90020FB
:104F900002F0E4F9372002F0E1F9002002F0DEF936
:104FA0003C2002F0DBF9002002F0D8F9362002F0B4
:104FB000D5F9002002F0D2F9322002F0CFF900201A
:104FC00002F0CCF92F2002F0C9F9002002F0C6F956
:104FD0002C2002F0C3F9002002F0C0F9292002F0D1
:104FE000BDF9002002F0BAF9262002F0B7F900203E
:104FF00002F0B4F9242002F0B1F901E0DC53002002
:10500000002002F0ABF9242002F0A8F9002002F001
:10501000A5F9232002F0A2F9002002F09FF93C201C
:1050200002F09CF9002002F099F9362002F096F97E
:10503000002002F093F9322002F090F9002002F0F3
:105040008DF92F2002F08AF9002002F087F92C2038
:1050500002F084F9002002F081F9292002F07EF9A3
:10506000002002F07BF9262002F078F9002002F0FF
:1050700075F9242002F072F9002002F06FF9242063
:1050800002F06CF9002002F069F9232002F066F9C1
:10509000002002F063F9C42002F06CF9622002F0F3
:1050A0005DF9002002F05AF9052002F057F90020BE
:1050B00002F054F9842002F051F9002002F04EF978
:1050C000F02002F04BF9002002F048F9182002F01D
:1050D00045F9002002F042F9A42002F03FF9002037
:1050E00002F03CF9182002F039F9002002F036F9FC
:1050F000502002F033F9002002F030F90C2002F0C9
:105100002DF9002002F02AF9172002F027F90020DB
:1051100002F024F9952002F021F9002002F01EF996
:10512000F32002F01BF9002002F018F9E62002F04B
:1051300015F9002002F012F9C52002F01BF9322007
:1051400002F00CF9002002F009F9442002F006F9FF
:10515000002002F003F9652002F000F9002002F0BF
:10516000FDF8762002F0FAF8002002F0F7F8882027
:1051700002F0F4F8002002F0F1F8C62002F0FAF88C
:10518000202002F0EBF8002002F0E8F8172002F0EF
:10519000E5F8002002F0E2F8012002F0DFF800203C
:1051A00002F0DCF8C72002F0E5F8002002F0D6F8A3
:1051B000002002F0D3F8002002F0D0F8002002F026
:1051C000CDF8C82002F0D6F8002002F0C7F8002081
:1051D00002F0C4F8002002F0C1F8002002F0BEF88E
:1051E000C92002F0C7F8002002F0B8F8002002F051
:1051F000B5F8002002F0B2F8002002F0AFF800206D
:1052000002F0ACF8002002F0A9F8002002F0A6F8A5
:10521000002002F0A3F8002002F0A0F8002002F025
:105220009DF8002002F09AF8002002F097F8002084
:1052300002F094F8002002F091F8002002F08EF8BD
:10524000002002F08BF8E02002F094F8162002F023
:1052500085F8002002F082F81C2002F07FF8002080
:1052600002F07CF8212002F079F8002002F076F8B4
:10527000362002F073F8002002F070F8462002F0A9
:105280006DF8002002F06AF8522002F067F8002062
:1052900002F064F8642002F061F8002002F05EF889
:1052A0007A2002F05BF8002002F058F88B2002F020
:1052B00055F8002002F052F8992002F04FF8002033
:1052C00002F04CF8A82002F049F8002002F046F85D
:1052D000B92002F043F8002002F040F8C42002F0A8
:1052E0003DF8002002F03AF8CA2002F037F800201A
:1052F00002F034F8D22002F031F8002002F02EF84B
:10530000D92002F02BF8002002F028F8E02002F06B
:1053100025F8002002F022F8F32002F01FF8002008
:1053200002F01CF8E12002F025F8162002F016F831
:10533000002002F013F81C2002F010F8002002F008
:105340000DF8222002F00AF8002002F007F83620BB
:1053500002F004F8002002F001F8452001F0FEFF01
:10536000002001F0FBFF522001F0F8FF002001F0C7
:10537000F5FF642001F0F2FF002001F0EFFF7A203A
:1053800001F0ECFF002001F0E9FF8B2001F0E6FFC7
:10539000002001F0E3FF992001F0E0FF002001F080
:1053A000DDFFA82001F0DAFF002001F0D7FFB920CF
:1053B00001F0D4FF002001F0D1FFC42001F0CEFFA6
:1053C000002001F0CBFFCA2001F0C8FF002001F04F
:1053D000C5FFD22001F0C2FF002001F0BFFFD8209E
:1053E00001F0BCFF002001F0B9FFE02001F0B6FFA2
:1053F000002001F0B3FFF32001F0B0FF002001F026
:10540000ADFFE22001F0B6FF052001F0A7FF00206C
:1054100001F0A4FF0B2001F0A1FF002001F09EFF8E
:105420001B2001F09BFF002001F098FF342001F0C9
:1054300095FF002001F092FF442001F08FFF002033
:1054400001F08CFF4F2001F089FF002001F086FF62
:10545000612001F083FF002001F080FF792001F03E
:105460007DFF002001F07AFF882001F077FF002007
:1054700001F074FF972001F071FF002001F06EFF32
:10548000A62001F06BFF002001F068FFB72001F0BB
:1054900065FF002001F062FFC22001F05FFF0020E5
:1054A00001F05CFFC72001F059FF002001F056FF1A
:1054B000D12001F053FF002001F050FFD62001F071
:1054C0004DFF002001F04AFFDD2001F047FF0020E2
:1054D00001F044FFF32001F041FF002001F03EFF06
:1054E000E32001F047FF052001F038FF002001F024
:1054F00035FF0A2001F032FF002001F02FFF1C20B1
:1055000001F02CFF002001F029FF332001F026FFDD
:10551000002001F023FF442001F020FF002001F0D3
:105520001DFF502001F01AFF002001F017FF62203C
:1055300001F014FF002001F011FF782001F00EFFB0
:10554000002001F00BFF882001F008FF002001F08F
:1055500005FF972001F002FF002001F0FFFEA620CA
:1055600001F0FCFE002001F0F9FEB72001F0F6FE8C
:10557000002001F0F3FEC22001F0F0FE002001F057
:10558000EDFEC72001F0EAFE002001F0E7FED12089
:1055900001F0E4FE002001F0E1FED52001F0DEFE86
:1055A000002001F0DBFEDD2001F0D8FE002001F03C
:1055B000D5FEF32001F0D2FE002001F0CFFEE42062
:1055C00001F0D8FE012001F0C9FE002001F0C6FE66
:1055D000012001F0C3FE002001F0C0FE022001F016
:1055E000BDFE002001F0BAFE2A2001F0B7FE002027
:1055F00001F0B4FE3C2001F0B1FE002001F0AEFE4F
:105600004B2001F0ABFE002001F0A8FE5D2001F070
:10561000A5FE002001F0A2FE742001F09FFE0020F4
:1056200001F09CFE842001F099FE002001F096FE1E
:10563000932001F093FE002001F090FEA22001F0E3
:105640008DFE002001F08AFEB32001F087FE0020CD
:1056500001F084FEBE2001F081FE002001F07EFEFC
:10566000C42001F07BFE002001F078FECD2001F087
:1056700075FE002001F072FED32001F06FFE0020C5
:1056800001F06CFEDD2001F069FE002001F066FEF5
:10569000F32001F063FE002001F060FEE52001F040
:1056A00069FE002001F05AFE002001F057FE0020A4
:1056B00001F054FE002001F051FE022001F04EFEE8
:1056C000002001F04BFE292001F048FE002001F0EF
:1056D00045FE3C2001F042FE002001F03FFE4B2041
:1056E00001F03CFE002001F039FE5D2001F036FEA5
:1056F000002001F033FE742001F030FE002001F0A4
:105700002DFE842001F02AFE002001F027FE9320C8
:1057100001F024FE002001F021FEA22001F01EFE77
:10572000002001F01BFEB32001F018FE002001F064
:1057300015FEBE2001F012FE002001F00FFEC42075
:1057400001F00CFE002001F009FECD2001F006FE64
:10575000002001F003FED32001F000FE002001F044
:10576000FDFDDC2001F0FAFD002001F0F7FDF32043
:1057700001F0F4FD002001F0F1FDE62001F0FAFD5A
:10578000112001F0EBFD002001F0E8FD342001F0D4
:10579000E5FD002001F0E2FD562001F0DFFD0020D4
:1057A00001F0DCFD762001F0D9FD002001F0D6FDEE
:1057B000772001F0D3FD002001F0D0FD662001F03C
:1057C000CDFD002001F0CAFD882001F0C7FD0020BA
:1057D00001F0C4FD992001F0C1FD002001F0BEFDE3
:1057E000BB2001F0BBFD002001F0B8FD992001F0C5
:1057F000B5FD002001F0B2FD662001F0AFFD0020F4
:1058000001F0ACFD552001F0A9FD002001F0A6FD3E
:10581000552001F0A3FD002001F0A0FD452001F07E
:105820009DFD002001F09AFD432001F097FD00202E
:1058300001F094FD442001F091FD002001F08EFD67
:10584000E72001F097FD322001F088FD002001F0F3
:1058500085FD552001F082FD002001F07FFD7620BE
:1058600001F07CFD002001F079FD662001F076FD5D
:10587000002001F073FD672001F070FD002001F0B1
:105880006DFD672001F06AFD002001F067FD8720B3
:1058900001F064FD002001F061FD992001F05EFD42
:1058A000002001F05BFDBB2001F058FD002001F05D
:1058B00055FD992001F052FD002001F04FFD7720A9
:1058C00001F04CFD002001F049FD442001F046FDAF
:1058D000002001F043FD562001F040FD002001F0C2
:1058E0003DFD232001F03AFD002001F037FD33207B
:1058F00001F034FD002001F031FD452001F02EFDC6
:10590000002001F02BFDE82001F034FD002001F023
:1059100025FD002001F022FD992001F01FFD00204F
:1059200001F01CFD872001F019FD002001F016FD9B
:10593000882001F013FD002001F010FD772001F018
:105940000DFD002001F00AFD662001F007FD00209A
:1059500001F004FD882001F001FD002001F0FEFCB3
:10596000AA2001F0FBFC002001F0F8FCBB2001F0B4
:10597000F5FC002001F0F2FC992001F0EFFC002082
:1059800001F0ECFC662001F0E9FC002001F0E6FCEF
:10599000552001F0E3FC002001F0E0FC552001F06F
:1059A000DDFC002001F0DAFC442001F0D7FC0020EF
:1059B00001F0D4FC442001F0D1FC002001F0CEFC29
:1059C000552001F0CBFC002001F0C8FCE92001F0DB
:1059D000D1FCAA2001F0C2FC002001F0BFFC002095
:1059E00001F0BCFC002001F0B9FC002001F0C2FC79
:1059F000AA2001F0B3FCCF2001F0BCFC002001F094
:105A0000ADFC002001F0AAFC002001F0A7FC002062
:105A100001F0A4FC002001F0A1FC002001F09EFC9C
:105A2000002001F09BFC002001F098FC002001F018
:105A300095FC002001F092FC002001F08FFC00207A
:105A400001F08CFC002001F089FC002001F086FCB4
:105A5000002001F083FC002001F080FC002001F018
:105A60007DFCF02001F086FC002001F077FC502046
:105A700001F074FC002001F071FC002001F06EFCCC
:105A8000002001F06BFCF32001F074FC002001F019
:105A900065FCF92001F06EFC062001F05FFC10208F
:105AA00001F05CFC292001F059FC002001F056FCBB
:105AB0003A2001F05FFC552001F050FC112001F06C
:105AC00059FC642002F0C6FD292001F053FC35206A
:105AD00001F050FC002001F041FC512001F04AFC93
